:020000040800F2
:1000000000000520711F0008751E0008771E0008FB
:10001000791E00087B1E00087D1E000800000000FD
:10002000000000000000000000000000818F0008B8
:100030007F1E000800000000219000088590000845
:10004000C11F0008C11F0008C11F0008C11F000810
:10005000C11F0008C11F0008C11F0008C11F000800
:10006000C11F0008C11F0008C11F0008C11F0008F0
:10007000C11F0008C11F0008C11F0008C11F0008E0
:10008000C11F0008C11F0008C11F0008C11F0008D0
:10009000C11F0008C11F0008C11F0008C11F0008C0
:1000A000C11F0008C11F0008C11F0008C11F0008B0
:1000B000C11F0008C11F0008C11F0008C11F0008A0
:1000C000C11F0008C11F0008C11F0008C11F000890
:1000D000C11F0008C11F0008C11F0008C11F000880
:1000E000C11F0008C11F0008C11F0008C11F000870
:1000F000C11F0008C11F0008C11F0008C11F000860
:10010000C11F0008C11F0008C11F0008C11F00084F
:10011000C11F0008C11F0008811E0008C11F000880
:100120008D1E0008991E0008C11F0008C11F00088D
:10013000C11F0008C11F0008C11F0008C11F00081F
:10014000C11F0008C11F0008C11F0008C11F00080F
:10015000C11F0008C11F0008C11F0008C11F0008FF
:10016000C11F0008C11F0008C11F0008C11F0008EF
:10017000C11F0008C11F0008C11F000800000000C7
:10018000C11F0008C11F0008C11F0008C11F0008CF
:10019000C11F0008C11F0008C11F0008C11F0008BF
:1001A000A51E0008C11F0008B11E0008C11F0008DD
:1001B000C11F0008C11F0008C11F0008C11F00089F
:0801C000C11F0008C11F000867
:1001D00010B5054C237833B9044B13B10448AFF381
:1001E00000800123237010BD900200200000000059
:1001F000A4EB020808B5034B1BB103490348AFF356
:10020000008008BD0000000094020020A4EB02085A
:1002100001F0FF01102A2BDB10F0070F08D010F8B7
:10022000013B013A8B422DD010F0070F42B3F6D1BB
:10023000F0B441EA012141EA014122F007047FF0D4
:1002400000070023F0E80256083C85EA010586EA2B
:10025000010685FA47F5A3FA87F586FA47F6A5FA67
:1002600087F68EB9EED1F0BC01F0FF0102F0070273
:1002700032B110F8013B013A83EA010313B1F8D11E
:100280000020704701387047002D06BF35460338FF
:10029000073815F0010F07D1013015F4807F02BF38
:1002A000013015F4C03F0130F0BC0138704700BF89
:1002B000034613F8012B002AFBD1181A01387047A6
:1002C00081F0004102E000BF83F0004330B54FEA07
:1002D00041044FEA430594EA050F08BF90EA020F74
:1002E0001FBF54EA000C55EA020C7FEA645C7FEA07
:1002F000655C00F0E2804FEA5454D4EB5555B8BF2A
:100300006D420CDD2C4480EA020281EA030382EA9A
:10031000000083EA010180EA020281EA0303362D2C
:1003200088BF30BD11F0004F4FEA01314FF4801CFF
:100330004CEA113102D0404261EB410113F0004F11
:100340004FEA03334CEA133302D0524263EB4303C8
:1003500094EA050F00F0A780A4F10104D5F1200E66
:100360000DDB02FA0EFC22FA05F2801841F10001C1
:1003700003FA0EF2801843FA05F359410EE0A5F195
:1003800020050EF1200E012A03FA0EFC28BF4CF0C6
:10039000020C43FA05F3C01851EBE37101F000457C
:1003A00007D54FF0000EDCF1000C7EEB00006EEB89
:1003B0000101B1F5801F1BD3B1F5001F0CD3490813
:1003C0005FEA30004FEA3C0C04F101044FEA44526A
:1003D00012F5800F80F09A80BCF1004F08BF5FEAF1
:1003E000500C50F1000041EB045141EA050130BDD1
:1003F0005FEA4C0C404141EB0101013C28BFB1F5E3
:10040000801FE9D291F0000F04BF01460020B1FA2D
:1004100081F308BF2033A3F10B03B3F120020CDA00
:100420000C3208DD02F1140CC2F10C0201FA0CF0DE
:1004300021FA02F10CE002F11402D8BFC2F1200C43
:1004400001FA02F120FA0CFCDCBF41EA0C019040F9
:10045000E41AA2BF01EB0451294330BD6FEA040442
:100460001F3C1CDA0C340EDC04F11404C4F120022D
:1004700020FA04F001FA02F340EA030021FA04F33F
:1004800045EA030130BDC4F10C04C4F1200220FA96
:1004900002F001FA04F340EA0300294630BD21FAD4
:1004A00004F0294630BD94F0000F83F4801306BF9A
:1004B00081F480110134013D4EE77FEA645C18BF8E
:1004C0007FEA655C29D094EA050F08BF90EA020F25
:1004D00005D054EA000C04BF1946104630BD91EA1D
:1004E000030F1EBF0021002030BD5FEA545C05D120
:1004F0004000494128BF41F0004130BD14F580045F
:100500003CBF01F5801130BD01F0004545F0FE41D2
:1005100041F470014FF0000030BD7FEA645C1ABF07
:10052000194610467FEA655C1CBF0B46024650EA3E
:10053000013406BF52EA033591EA030F41F400216A
:1005400030BD00BF90F0000F04BF0021704730B5F0
:100550004FF4806404F132044FF000054FF00001C5
:1005600050E700BF90F0000F04BF0021704730B586
:100570004FF4806404F1320410F0004548BF40425B
:100580004FF000013EE700BF42004FEAE2014FEAB0
:1005900031014FEA02701FBF12F07F4393F07F4F8B
:1005A00081F06051704732F07F4208BF704793F08E
:1005B0007F4F04BF41F40021704730B54FF46074A1
:1005C00001F0004521F000411CE700BF50EA0102A4
:1005D00008BF704730B54FF000050AE050EA01024D
:1005E00008BF704730B511F0004502D5404261EBBD
:1005F00041014FF4806404F132045FEA915C3FF4FE
:10060000D8AE4FF003025FEADC0C18BF03325FEA9A
:10061000DC0C18BF033202EBDC02C2F1200300FA4B
:1006200003FC20FA02F001FA03FE40EA0E0021FA70
:1006300002F11444BDE600BF70B54FF0FF0C4CF45E
:10064000E06C1CEA11541DBF1CEA135594EA0C0F10
:1006500095EA0C0F00F0DEF82C4481EA030621EA4B
:100660004C5123EA4C5350EA013518BF52EA033586
:1006700041F4801143F4801338D0A0FB02CE4FF038
:100680000005E1FB02E506F00042E0FB03E54FF068
:100690000006E1FB03569CF0000F18BF4EF0010E60
:1006A000A4F1FF04B6F5007F64F5407404D25FEA5C
:1006B0004E0E6D4146EB060642EAC62141EA55510F
:1006C0004FEAC52040EA5E504FEACE2EB4F1FD0C51
:1006D00088BFBCF5E06F1ED8BEF1004F08BF5FEACF
:1006E000500E50F1000041EB045170BD06F0004681
:1006F00046EA010140EA020081EA0301B4EB5C042E
:10070000C2BFD4EB0C0541EA045170BD41F4801125
:100710004FF0000E013C00F3AB8014F1360FDEBF4A
:10072000002001F0004170BDC4F10004203C35DA26
:100730000C341BDC04F11404C4F1200500FA05F3A9
:1007400020FA04F001FA05F240EA020001F000424A
:1007500021F0004110EBD37021FA04F642EB0601C0
:100760005EEA430E08BF20EAD37070BDC4F10C04EA
:10077000C4F1200500FA04F320FA05F001FA04F2AE
:1007800040EA020001F0004110EBD37041F100019A
:100790005EEA430E08BF20EAD37070BDC4F12005A5
:1007A00000FA05F24EEA020E20FA04F301FA05F20D
:1007B00043EA020321FA04F001F0004121FA04F2B5
:1007C00020EA020000EBD3705EEA430E08BF20EA85
:1007D000D37070BD94F0000F0FD101F000464000BF
:1007E00041EB010111F4801F08BF013CF7D041EA41
:1007F000060195F0000F18BF704703F00046520045
:1008000043EB030313F4801F08BF013DF7D043EA15
:100810000603704794EA0C0F0CEA135518BF95EACB
:100820000C0F0CD050EA410618BF52EA4306D1D152
:1008300081EA030101F000414FF0000070BD50EA71
:10084000410606BF1046194652EA430619D094EAFB
:100850000C0F02D150EA013613D195EA0C0F05D1E5
:1008600052EA03361CBF104619460AD181EA030139
:1008700001F0004141F0FE4141F470014FF00000F1
:1008800070BD41F0FE4141F4780170BD70B54FF08C
:10089000FF0C4CF4E06C1CEA11541DBF1CEA13550C
:1008A00094EA0C0F95EA0C0F00F0A7F8A4EB0504EE
:1008B00081EA030E52EA03354FEA013100F08880E5
:1008C0004FEA03334FF0805545EA131343EA1263AE
:1008D0004FEA022245EA111545EA10654FEA002663
:1008E0000EF000419D4208BF964244F1FD0404F51C
:1008F000407402D25B084FEA3202B61A65EB030578
:100900005B084FEA32024FF480104FF4002CB6EB34
:10091000020E75EB030E22BFB61A754640EA0C00B4
:100920005B084FEA3202B6EB020E75EB030E22BFF4
:10093000B61A754640EA5C005B084FEA3202B6EB35
:10094000020E75EB030E22BFB61A754640EA9C00F4
:100950005B084FEA3202B6EB020E75EB030E22BFC4
:10096000B61A754640EADC0055EA060E18D04FEA82
:10097000051545EA16754FEA06164FEAC30343EA22
:1009800052734FEAC2025FEA1C1CC0D111F4801FEF
:100990000BD141EA00014FF000004FF0004CB6E7E8
:1009A00011F4801F04BF01430020B4F1FD0C88BF87
:1009B000BCF5E06F3FF6AFAEB5EB030C04BFB6EB92
:1009C000020C5FEA500C50F1000041EB045170BD85
:1009D0000EF0004E4EEA113114EB5C04C2BFD4EBB2
:1009E0000C0541EA045170BD41F480114FF0000E36
:1009F000013C90E645EA060E8DE60CEA135594EAB2
:100A00000C0F08BF95EA0C0F3FF43BAF94EA0C0FB4
:100A10000AD150EA01347FF434AF95EA0C0F7FF429
:100A200025AF104619462CE795EA0C0F06D152EA7D
:100A300003353FF4FDAE1046194622E750EA410661
:100A400018BF52EA43067FF4C5AE50EA41047FF472
:100A50000DAF52EA43057FF4EBAE12E74FF0FF3CD7
:100A600006E000BF4FF0010C02E000BF4FF0010CA8
:100A70004DF804CD4FEA410C7FEA6C5C4FEA430C21
:100A800018BF7FEA6C5C1BD001B050EA410C0CBF70
:100A900052EA430C91EA030F02BF90EA020F0020D2
:100AA000704710F1000F91EA030F58BF994208BF39
:100AB00090422CBFD8176FEAE37040F001007047F6
:100AC0004FEA410C7FEA6C5C02D150EA013C07D14D
:100AD0004FEA430C7FEA6C5CD6D152EA033CD3D098
:100AE0005DF8040B704700BF8446104662468C4692
:100AF0001946634600E000BF01B5FFF7B7FF0028C5
:100B000048BF10F1000F01BD4DF808EDFFF7F4FFED
:100B10000CBF012000205DF808FB00BF4DF808ED78
:100B2000FFF7EAFF34BF012000205DF808FB00BF9B
:100B30004DF808EDFFF7E0FF94BF012000205DF8BD
:100B400008FB00BF4DF808EDFFF7CEFF94BF012072
:100B500000205DF808FB00BF4DF808EDFFF7C4FF6B
:100B600034BF012000205DF808FB00BF4FEA410CB4
:100B70007FEA6C5C02D150EA013C0AD14FEA430C97
:100B80007FEA6C5C02D152EA033C02D14FF00000D4
:100B900070474FF0010070474FEA410212F5001212
:100BA00015D211D56FF47873B3EB625212D94FEAB4
:100BB000C12343F0004343EA505311F0004F23FA9E
:100BC00002F018BF404270474FF00000704750EAF3
:100BD000013005D111F0004008BF6FF000407047B0
:100BE0004FF00000704700BF4FEA4102B2F1E0430E
:100BF00024BFB3F5001CDCF1FE5C0DD901F0004C04
:100C00004FEAC0024CEA5070B2F1004F40EB830053
:100C100008BF20F00100704711F0804F21D113F17F
:100C20003872BCBF01F00040704741F480114FEAB8
:100C30005252C2F11802C2F1200C10FA0CF320FA41
:100C400002F018BF40F001004FEAC1234FEAD3235E
:100C500003FA0CFC40EA0C0023FA02F34FEA4303C8
:100C6000CCE77FEA625307D150EA01331EBF4FF051
:100C7000FE4040F44000704701F0004040F0FE406C
:100C800040F40000704700BF53B94AB9002908BFBB
:100C900000281CBF4FF0FF314FF0FF3000F070B95B
:100CA000ADF1080C6DE904CE00F006F8DDF804E0C3
:100CB000DDE9022304B070472DE9F047089E0D4698
:100CC00004460F46002B4AD18A42944665D9B2FAAF
:100CD00082F343B102FA03FCC3F120029F4020FAE1
:100CE00002F217439C404FEA1C4E1FFA8CF5B7FBEB
:100CF000FEF1220C0EFB117742EA074201FB05F0E0
:100D000090420AD91CEB020201F1FF3780F01C81EE
:100D1000904240F2198102396244121AA4B2B2FB25
:100D2000FEF00EFB102244EA024400FB05F5A5424A
:100D30000AD91CEB040400F1FF3280F00781A542C0
:100D400040F204816444023840EA0140641B0021FF
:100D50001EB1DC400023C6E90043BDE8F0878B42AA
:100D600008D9002E00F0ED800021C6E900050846F4
:100D7000BDE8F087B3FA83F1002949D1AB4202D331
:100D8000824200F2F880841A65EB030201201746C4
:100D9000002EE2D0C6E90047DFE702B9FFDEB2FA73
:100DA00082F3002B40F090808A1A4FEA1C471FFA0A
:100DB0008CFE0121B2FBF7F507FB1520220C42EA5D
:100DC00000420EFB05F0904208D91CEB020205F12F
:100DD000FF3802D2904200F2CB804546121AA4B2EC
:100DE000B2FBF7F007FB102244EA02440EFB00FEC0
:100DF000A64508D91CEB040400F1FF3202D2A64537
:100E000000F2BB801046A4EB0E0440EA05409FE7C9
:100E1000C1F120078B4022FA07FC4CEA030C05FACB
:100E200001F420FA07F3FD404FEA1C492343B5FBC8
:100E3000F9F81FFA8CFE09FB18551C0C44EA05440E
:100E400008FB0EF5A54202FA01F200FA01F00BD9F7
:100E50001CEB040408F1FF3A80F08880A54240F2C0
:100E60008580A8F102086444641B9DB2B4FBF9F3C9
:100E700009FB134445EA044403FB0EFEA64508D9CA
:100E80001CEB040403F1FF356CD2A6456AD9023B82
:100E9000644443EA0843A3FB0295A4EB0E04AC426E
:100EA000C846AE4656D353D056B1B0EB080264EBF9
:100EB0000E0404FA07F7CA40CC401743C6E9007491
:100EC00018460021BDE8F087C3F1200102FA03FCB7
:100ED00020FA01F225FA01F19D402A434FEA1C470E
:100EE0001FFA8CFEB1FBF7F007FB1015110C41EA5D
:100EF000054100FB0EF58D4204FA03F408D91CEB02
:100F0000010100F1FF382FD28D422DD90238614402
:100F1000491B92B2B1FBF7F507FB151142EA0142FA
:100F200005FB0EF1914208D91CEB020205F1FF38D6
:100F300016D2914214D9023D6244521A45EA004148
:100F400038E73146304608E73946E6E61046FBE624
:100F50004845A9D2B9EB020865EB0C0E013BA3E7AB
:100F60004546EAE72B4694E74046D1E7D0467BE783
:100F7000023D624432E708460AE76444023842E729
:100F8000704700BF08B50A220449054803F0A0FFD6
:100F90000448BDE8084006F0A1BD00BFAC02002037
:100FA000F40200202406002070470000014B18685E
:100FB00007F042BDEC0200200149002009F0F4B91D
:100FC0006D24000808B5642007F0EEFBFBE708B5C8
:100FD000FFF7D8FFFFF7E8FF012007F0E5FBF9E78F
:100FE00007B54FF0FF330190012201A9034807F034
:100FF00020FA019803B05DF804FB00BF70060020E2
:1010000010B594B01022002102240AA82BF0E0FDB4
:101010001422002103A82BF0DBFD1D4B192108A889
:101020001A6C42F080521A641B6C03F080530193D7
:10103000019B184B1A6842F440421A6001221B6857
:1010400003F440430293029B4FF48033CDE908231D
:101050004FF48003CDE90E434FF4D873CDE9124429
:10106000CDE9101305F0AEFE05F050FB0F23002074
:101070000721CDE903344FF4A053CDE905034FF424
:10108000805303A8079306F085F814B010BD00BF85
:1010900000380240007000402DE98048A5B0BFF341
:1010A0004F8FBFF36F8FCA4A0021C2F85012BFF3AF
:1010B0004F8FBFF36F8F536943F400335361BFF316
:1010C0004F8FBFF36F8FC2F88410BFF34F8FD2F8EA
:1010D000803043F6E074C3F3C900C3F34E335B01C1
:1010E00003EA0406014646EA81750139C2F86052F6
:1010F000F9D2203B13F1200FF2D1BFF34F8F536988
:1011000043F480335361BFF34F8FBFF36F8F1027CA
:1011100003F002FE002117A83A46002401262BF016
:1011200057FD04F0C7F84FF01042AA4B17A8ADF8CE
:101130005C604FF003081A944FF00809A64D4FF475
:10114000805A4FF0400BCDE9182304F0D1F8172353
:1011500017A88DF85D608DF864308DF86A6004F032
:10116000C7F8042004F0B4F8FFF74AFF1422214620
:1011700017A82BF02DFD2B6B224639463B43974891
:101180002B632B6B3B400293029B2B6B43F00203C0
:101190002B632B6B03F002030393039B2B6B3343F3
:1011A0002B632B6B33400493049B2B6B43F0400366
:1011B0002B632B6B03F040030593059B2B6B43F4D0
:1011C00000732B632B6B03F400730693069B2B6B4E
:1011D00043F008032B632B6B03F008030793079B73
:1011E0002B6B43F480632B632B6B03F480630893B6
:1011F000089B2B6B43F020032B632B6B03F0200326
:101200000993099B2B6B43F480732B632B6B03F4C3
:1012100080730A930A9B2B6B43F080032B632B6B29
:1012200003F080030B930B9B2B6B43F004032B63A6
:101230002B6B03F004030C930C9B04F039FD324636
:101240000821674804F034FD32464FF48051654868
:1012500004F02EFD2246C021634804F029FD2246F9
:101260004021624804F024FD17A95C48CDF868804D
:101270001994CDE9177604F093FB17A95848CDE9E6
:101280001796CDE9194404F08BFB17A95548CDE911
:1012900017A6CDE9194404F083FBC02317A95248CF
:1012A000CDE91736CDE9194804F07AFB17A94F4864
:1012B000CDE917B6CDE9194804F072FB2B6B224635
:1012C000052143F4800338202B632B6B484D03F436
:1012D00080030193019B03F09BFF382003F0CAFFBA
:1012E00022460521392003F093FF392003F0C2FF85
:1012F000404B2846C5E90A44C5E90C44C5E9003419
:10130000C5E9024404F04CFA314628463A4D04F04F
:10131000FFFA4FF4C072394B17A9C5F814B04FF05B
:10132000020B2846AC60AC62CDF874B0C5E9062467
:101330004FF40062C5E90034C5E9082A0423DFF848
:10134000C4A00722C5E90337CDE91932CDE917B2A8
:10135000CDE91B8B06F084FA51464FF6FF72284602
:101360000094CAE90067CAE9026406F099FA3046B7
:1013700003F0F6FC51464FF6FF722846CAE900B763
:10138000CAE9026406F08CFA51464FF6FF7228460D
:10139000CAE90087CAE9029406F082FA4FF40C7297
:1013A0000423514600922846009A40F23528CAF894
:1013B0000860CAF80C204FF6FF72CAE9003706F041
:1013C0006FFA40F22B7128460D4D06F088FA1BE0AB
:1013D00000ED00E01B000003003802400004024062
:1013E000002802400020024000080240001802408D
:1013F000A803002000B00240F0050020400100A03A
:10140000A8040020D40200204FF0204243F2D20171
:1014100064204FF4806A116003F0A2FCA24AA34941
:1014200028462C62C5E90012C5E90246C5E9044414
:10143000C5E9064404F064FD2146284604F082FF15
:10144000214628469A4D04F0A3FF2146342217A8CE
:101450002BF0BEFB974A28204FF0350C40F2152E9A
:10146000AC862C6185F83640C5E900240922C5E91F
:1014700005020B222846C5E907C240F21B12C5E946
:1014800009E240F21D12C5E90244C5E90B8205F0EC
:1014900027F8FF204FF4F0714FF4887217944FF43F
:1014A00080382292ADF88C408DF88E40CDE91C0436
:1014B0000520CDE91EA04FF04040CDE91A2BCDE923
:1014C0002001224628464FF0180B7B4DCDE9181419
:1014D00017A905F0D0F879480423794A0462C0E9D5
:1014E00002374FF4A063C0E90026C0E904B3C0E9A5
:1014F000064405F025FA03F08DFA03F0D1F95C20DB
:1015000003F0C6FE00F032FD21463A4617A82BF044
:101510005FFB6C4B4FF080522846AC602E61AC6193
:1015200085F82040EC60EE6185F830606C61C5E9BB
:1015300000384FF01063C5E90A3203F023FC17A905
:1015400028461994604DCDE9174603F0A3FD5F4886
:101550005F4B848003600662C0E9054403F0F4FE3B
:101560001C22214610A80F94CDE90D442BF030FB2E
:101570002C22214617A82BF02BFB564942F20F7361
:101580002846AC606C61C5E9001340F2E733C5E959
:1015900003348023AB6106F029FC20230DA92846E3
:1015A0000F94CDE90D3406F0BBFC224610A9284665
:1015B0001694CDE91044CDE91244CDE9144406F067
:1015C0007DFC4FF4005317A928461B94424D1E94EE
:1015D0002194CDE91C344FF00073CDE91744CDE9D7
:1015E0001F34CDE9194406F0E7FC3C484FF416538C
:1015F00004614462C0E900530C23394DC0E905344D
:10160000C0E90244C0E9074406F087FF3A46214694
:1016100017A82BF0DDFA334B2846AC602C61AC6187
:1016200085F82040EC62EC60EE6185F830406E6138
:10163000C5E900382C4BAB6203F0A4FB17A9284680
:101640001994CDE9179603F025FD00F0BBFC00F0DE
:10165000B8FC07F01BF8254A3146304607F05CF924
:10166000234B244A21461860234807F049F8234BAE
:10167000234A21461860234807F042F8224B234AA8
:1016800021461860224807F03BF8224B224A2146A7
:101690001860224807F034F8214B186021482BF0DD
:1016A00097F907F00DF8FEE768474020005C00401E
:1016B000FC04002000680140F4020020A405002082
:1016C000001000A000200140240600208403002018
:1016D0000030024000000140001001407006002070
:1016E0003C030020002201400100000F74EC0208BE
:1016F000EC02002084EC0208C50F0008F002002074
:1017000050EC0208D31F0008E4020020CCEC0208D1
:1017100055380008FC060020A8EC0208CF0F00088E
:10172000F806002000EC02080268034B9A4201D13F
:1017300003F004BB704700BF00100040704700007A
:101740000D4B82B00F216FF001001A6C42F08052F5
:101750001A641A6C02F080520092009A5A6C42F499
:1017600080425A6400225B6C03F480430193019B26
:1017700002B003F04DBD00BF00380240142200212A
:1017800070B58AB005460DEB02002BF021FA2B68EC
:10179000334A934239D1334B012405A932485A6C5C
:1017A000324E42F480725A645A6C02F48072019292
:1017B000019A1A6B42F001021A631B6B03F00103DA
:1017C0000293029B0323CDE9054304F0E9F8284C7A
:1017D00000234FF48062C4E90063C4E9023322614C
:1017E0004FF400524FF4006120466362C4E90512D1
:1017F0004FF48072C4E9072303F01AFE08B1FFF723
:101800009DFFAC63A5630AB070BD1A4A9342FAD13A
:10181000144B4FF48066184805A95A6C174C42F4D3
:1018200080625A645A6C02F480620392039A1A6BC3
:1018300042F020021A631B6B03F020030493049B05
:101840000323CDE9056304F0ABF84FF080630C4847
:101850002661C4E900030023C4E90233C0E700BFE6
:1018600000200140003802400000024010640240A5
:10187000E803002000220140001402404804002038
:1018800028640240026882B0084B9A420BD1D3F818
:10189000302803F5006342F480521A631B6B03F493
:1018A00080530193019B02B0704700BF003002409B
:1018B0000E4B07B502689A4215D1A3F5F0430521F6
:1018C0005A201A6B42F400021A6300221B6B03F4C5
:1018D00000030193019B03F09BFC5A2003B05DF8C9
:1018E00004EB03F0C7BC03B05DF804FB00B002409A
:1018F00010B5A8B004461422002102A82BF068F904
:101900008422002107A82BF063F92268174B9A4222
:101910002AD14FF4803307A8079305F017FD08B1CB
:10192000FFF70CFF124C4FF4C07201211148236BDA
:1019300043F080032363236B03F080030093009B39
:101940001223CDE902230323CDE90413042302A9C2
:10195000069304F025F8236C43F400032364236CFE
:1019600003F400030193019B28B010BD005C00400C
:1019700000380240001C0240026808B5094B9A4238
:101980000FD1094A80210948136C23F40003136422
:1019900004F0E8F84FF480710448BDE8084004F012
:1019A000E1B808BD005C004000380240001C024065
:1019B00070B5ACB004461422002106A82BF008F93B
:1019C000842200210BA82BF003F92268484B9A428D
:1019D00040F08C800823052001240B934FF4C07342
:1019E00010930223CDE911304FF400330BA8CDE959
:1019F000154305F0ABFC08B1FFF7A0FE3D4B0024FA
:101A000002250E265A6C06A93B4842F080625A64B1
:101A10005A6C02F080620092009A1A6B42F0100237
:101A20001A631A6B02F010020192019A1A6B42F4C7
:101A300000721A631A6B02F400720292029A1A6B15
:101A400042F480621A631A6B02F480620392039A72
:101A50001A6B42F040021A631A6B02F040020492C1
:101A6000049A1A6B42F480721A631B6B03F480733E
:101A70000593059B1023CDE90635CDE908440A9668
:101A800003F08EFF4EF6FF7306A91C480A96CDE9B7
:101A90000635CDE9084403F083FFF72306A918486B
:101AA0000A96CDE90635CDE9084403F079FF4FF4F5
:101AB000805306A91348CDE906350923CDE908442A
:101AC0000A9303F06DFF4FF4464306A90E480A96A9
:101AD000CDE90635CDE9084403F062FF58202246DF
:101AE000052103F095FB582003F0C4FB2CB070BD1A
:101AF000006801400038024000100240002402400B
:101B00000028024000180240002002401422002158
:101B10002DE9F0418AB004460DEB02002BF058F895
:101B200022682C4B9A4251D12B4B022503240926C3
:101B30009A6B4FF0040805A9284842F002020027DA
:101B40009A639A6B02F002020192019A1A6B42F0B8
:101B500010021A631A6B02F010020292029A1A6BB8
:101B600042F002021A631A6B02F002020392039A15
:101B70001A6B42F008021A631B6B03F0080304930C
:101B8000049BCDE90585CDE9084603F009FF402314
:101B900005A91348CDE905350A23CDE90774099352
:101BA00003F0FEFE05A90E480996CDE90585CDE9AD
:101BB000077403F0F5FE4FF4605305A90948099630
:101BC000CDE90535CDE9077403F0EAFE0AB0BDE8BA
:101BD000F08100BF001000A0003802400010024059
:101BE00000040240000C0240026808B50B4B9A4208
:101BF00013D10B4A04210B48936B23F00203936328
:101C000003F0B0FF4421084803F0ACFF4FF46051EB
:101C10000648BDE8084003F0A5BF08BD001000A0BD
:101C2000003802400010024000040240000C024054
:101C3000026882B0074B9A420AD103F59C335A6C72
:101C400042F001025A645B6C03F001030193019BB3
:101C500002B0704700000140F0B5ABB0044614225A
:101C6000002104A82AF0B4FF8422002109A82AF048
:101C7000AFFF2268204B9A423CD1402309A8099328
:101C800005F064FB08B1FFF759FD1C4B0227002645
:101C900003255A6C072404A9194842F010025A641B
:101CA0005A6C02F010020192019A1A6B42F0020281
:101CB0001A631A6B02F002020292029A1A6B42F045
:101CC00001021A631B6B089403F001030393039B47
:101CD0008023CDE90665CDE9043703F061FE4FF4BA
:101CE000007304A907480894CDE90437CDE90665D7
:101CF00003F056FE2BB0F0BD00100140003802404A
:101D00000004024000000240F0B5002387B00393B6
:101D1000294B1E68002E4DD10122022703250C24D9
:101D20001A6001A9254B26489A6B42F001029A637A
:101D30009B6B03F001030093009B4FF68373CDE987
:101D40000454CDE9013703F02BFE48F2331301A907
:101D50001C480594CDE90137CDE9036503F020FE69
:101D60004CF2037301A918480594CDE90137CDE978
:101D7000036503F015FE4FF63F0301A913480594D0
:101D8000CDE90137CDE9036503F00AFE282301A957
:101D90000F480594CDE90137CDE9036503F000FE56
:101DA000082301A90B480594CDE90137CDE9036566
:101DB00003F0F6FD07B0F0BD000700200038024038
:101DC0000010024000180240000C024000140240C3
:101DD000001C024000080240214B1A6C42F0100225
:101DE00070B51A6488B01B6C054601A903A803F0FE
:101DF00010030293029B05F08BFA069B4BBB05F088
:101E000067FA184E184B336040F2E733F360174B14
:101E1000B0FBF3F3013B3046736000233361B360E2
:101E2000B36105F0B3FF044680B9304605F056FEB5
:101E3000044658B9362003F01DFA0F2D0DD822465E
:101E40002946362003F0E4F9094B1D60204608B00E
:101E500070BD05F03DFA4000D3E70124F6E700BF6E
:101E600000380240040700200010004040420F00EC
:101E70003C0000207047FEE7FEE7FEE7FEE7704704
:101E8000014805F06DBE00BF04070020014803F0C3
:101E9000C9BB00BFE8030020014803F0C3BB00BF7B
:101EA00048040020014804F089BB00BFFC04002066
:101EB000014803F0A3BC00BFA80300200120704725
:101EC00008B52AF03DFF162303604FF0FF3008BD30
:101ED00008B52AF035FF16230360FEE770B50D46FE
:101EE00014460E46731B9C4201DC204670BDAFF3C6
:101EF000008006F8010BF5E770B50D4614460E4656
:101F0000731B9C4201DC204670BD16F8010BFFF7E5
:101F100067F8F5E74FF0FF3070474FF400530020AB
:101F20004B60704701207047002070470B4A034602
:101F3000116810B509B90A491160106809490A4CBD
:101F40000344091B8B4206D92AF0FAFE0C230360D6
:101F50004FF0FF3010BD1360FCE700BF50070020BA
:101F6000A861012000000520000A00007047000061
:101F7000DFF834D0002103E00C4B5B5843500431B0
:101F80000B480C4B42189A42F6D30B4A02E000234E
:101F900042F8043B094B9A42F9D302F0D3FD2AF0F0
:101FA000D5FEFFF779F87047000005205438030884
:101FB000000000209002002090020020A461012077
:101FC000FEE7704708B501F0F7F8BDE8084001F0FA
:101FD00083B801F0F3B84068704741607047000073
:101FE0004FF0E022D2F8FC3D43F08073C2F8FC3D94
:101FF000054B064AD3F8B01F0A43C3F8B02F1A683E
:1020000042F001021A607047001000E055CEACC5E6
:10201000511A01EB5301B1FBF3F07047014B5868C3
:10202000704700BF001000E0704710B504460C2157
:1020300029F011FE204610BD036810B51B69044647
:1020400031B19847A26863689B1A1844606010BD5C
:102050009847A060FBE70000024B7020024A136023
:10206000DB6818471000002054070020704710B5A7
:102070000446042129F0EFFD204610BD73B50E4E35
:102080000D461446336813B9002002B070BD1B69B9
:10209000702098470028F7D03368702001AA0DF10E
:1020A00006015B699847BDF8043001202B60BDF83C
:1020B00006302360E9E700BF540700207FB5012305
:1020C0008DF817204FF47A72CDE901320DF1170225
:1020D00000920A460146054803F07CFF10B1034810
:1020E00003F05FFF07B05DF804FB00BFA804002009
:1020F0007FB500230A464FF47A718DF8173001231B
:10210000CDE901310DF1170100910146054804F0B8
:102110003BF810B1034803F044FF9DF8170007B0E7
:102120005DF804FBA8040020032823D8DFE800F0B2
:10213000020B131A104B102110481A68B2FA82F2DF
:10214000520903F0B5BD0C4B40215A68B2FA82F235
:1021500052090B48F5E7084B80219A68B2FA82F2DF
:102160005209F6E7044B40210648DA68B2FA82F2D7
:102170005209E6E7704700BF5807002000040240FC
:102180000008024000180240032823D8DFE800F0CE
:10219000020B131A104B102110481A68003A18BF8E
:1021A000012203F085BD0C4B40215A68003A18BF4C
:1021B00001220B48F5E7084B80219A68003A18BFC6
:1021C0000122F6E7044B40210648DA68003A18BFBE
:1021D0000122E6E7704700BF5807002000040240D4
:1021E000000802400018024003280FD8DFE800F082
:1021F0000206090B1021064803F05FBD4021054887
:10220000FAE78021FBE740210348F5E7704700BF6C
:1022100000040240000802400018024008B50328EC
:1022200013D8DFE800F0020A0D0F1021084803F070
:1022300039FD431E5842584108BD40210548F6E784
:102240008021FBE740210448F1E70020F1E700BFCF
:1022500000040240000802400018024070B5084D1A
:1022600000240126E0B2FFF7D9FF18B12B68012B3B
:1022700018BF2E6001340435052CF3D170BD00BFAA
:1022800058070020012380F8781080F879307047D3
:102290000020704741640039024B18BF01211970BA
:1022A000704700BF7355012000207047836B0BB14E
:1022B0000846184770474FF6FF707047406803683C
:1022C0009B6918477047000038B5044601F080F854
:1022D000084923682046084DD3F88C3098470023DE
:1022E000284684F84A30FFF77BFE0123256184F8F5
:1022F000703038BD000000C06807002001F01EB833
:1023000001F022B870B501F08DF810490023C1F832
:102310008430BFF34F8FD1F8803043F6E074C3F3BD
:10232000C900C3F34E335B0103EA0406024646EAE2
:102330008275013AC1F87452F9D2203B13F1200F93
:10234000F2D1BFF34F8FBFF36F8F70BD00ED00E090
:1023500001F06AB800F0CEBF01F084B901F08CB989
:1023600000F0D2BF10B5044616F0E8FD2368204601
:10237000D3F8AC30BDE81040184716F03DB810B5A2
:1023800004467C2129F067FC204610BD90F87A3085
:102390001BB1406803681B68184718467047000067
:1023A00090F834100D4B10B590F878401A788C42A4
:1023B00009D03AB90A490B4A0888148810800122CA
:1023C0000C801A7010BD002AFCD0064A04491488FB
:1023D00008880C8010800022F3E700BF6C550120B4
:1023E0006A5501206855012070B50D46194635B96A
:1023F000094B40F2D221094A094829F05BFCC0E9A7
:102400000F52003A074B18BF01221A700368BDE84B
:102410007040D3F88C30184730ED020868ED0208A0
:10242000B6ED02087255012008B5094B1B888B4296
:1024300003D8084B1B88934205D9074B9E21074AB6
:10244000074829F037FC074B1980074B1A8008BD55
:10245000685501206A550120FBED02085EEE020876
:10246000B6ED02086E55012070550120014608B5F1
:10247000034B186801B1012116F07AFD012008BD57
:1024800074550120034B00225A609A60024A1A6078
:10249000704700BF68070020F8EC02080121002205
:1024A00008B5084606F038FA0A4B186028B90A4BF6
:1024B00028210A4A0A4829F0FDFB002204210120B4
:1024C00006F0F0FA074B186018B9074B2C21034AA5
:1024D000F0E708BD780700207CEF0208C5EF02088E
:1024E000F4EF0208740700205FF00208024B4FF07F
:1024F000FF31186806F066BA78070020014B1868AB
:1025000006F09ABA78070020024B0021186806F0FE
:1025100059BA00BF78070020FFF7F0BF0023034837
:1025200003491A46006806F003BB00BF7407002089
:102530000400002013B50023074C01A91A462068A7
:1025400006F038FB4FF0FF33002201A9206806F0A7
:1025500031FB02B010BD00BF7407002003685B6C44
:1025600018470120704703689B6A18470D4B82B0DB
:102570001A6B42F400021A631A6B02F40002019211
:10258000019A1A6942F400021A611A6922F40002DF
:102590001A61054B054A1A614FF08062044B9A603C
:1025A00002B0704700380240A8030020F52500085B
:1025B00000E100E040F2EF3070470000054B4FF0C3
:1025C00080620360044BC3F88820BFF34F8FBFF3D2
:1025D0006F8F70471CF2020800E100E010B504465E
:1025E0004FF45A61FFF7EAFF204629F034FB2046FA
:1025F00010BD0000024B1B68586803685B691847F0
:102600007455012070B504460A4B0C30002625464F
:10261000602260602672667245F8203B294616F0FB
:10262000E3FD04F55A63EE602435AB42FBD120464E
:1026300070BD00BF1CF2020808B50B290BD8DFE8FB
:1026400001F01206100A0A0A0A0808080808012000
:1026500008BD0520FCE7054B6521054A054829F022
:1026600029FB0020F4E70220F2E700BFA1F00208F6
:10267000BCF0020806F1020808B50A2909D8DFE80B
:1026800001F010060E0808080806060606000120DC
:1026900008BD054B8621054A054829F00BFB0020A3
:1026A000F6E70220F4E700BFA1F002086FF102088C
:1026B00006F102082DE9F84391F81D800C46074603
:1026C0004146FFF7B9FF94F81E9005463846494643
:1026D000FFF7B2FF494606463846FFF7CDFFA18A0D
:1026E000628B434B521A1A649A61228B521A1A61F6
:1026F000E28A586342EA014220695A646268D863F8
:10270000DA602768802F28D0227F0FD8202F65D04D
:10271000402F63D0042F1AD045EA0265344BC845D8
:1027200045F40035DD615FD0324A44E0B7F5807F83
:1027300004D0B7F5007FEFD12F4900E02F4941EADF
:102740000262DA61E2681A625E62586132E045EA6A
:10275000026242F40032DA61F6E7A7683A1DDA62F3
:10276000217F3A7845EA016545F40035DD615E6216
:10277000586142B1012A21D0214B4FF48871214A7E
:10278000214829F097FADA69798822F47F420139E1
:1027900022F0100242EA01220121DA61144BDA69C7
:1027A00042F02002DA61DA699206FCD410229A60C3
:1027B0000029B9D0154A1A60BDE8F883DA69FF39F3
:1027C000788822F47F4218BF0121013822F01002DC
:1027D00042EA002242F01002DA61DFE745EA0262D3
:1027E000034B42F40032B6E740F20122E3E700BFB8
:1027F00000B0024001020100090002000A000200CC
:10280000BAF10208D4F1020806F10208010202003E
:1028100038B50C46897FFFF72FFF174BA58AE28A50
:10282000586342EA054221695A64628BD963521B9C
:102830001A642568082D0ED19A611A6158620F4AF0
:10284000207F42EA0062DA61E2681A620C4A59614A
:10285000D9601A6038BD0022D8611A61E1680A0A9D
:102860004809C1F3C40102F4784200F4FC60024359
:102870000A439A63034AECE700B0024009000100F2
:1028800001020200010203004069704790F8440011
:102890007047036B23B9C06A003818BF0120704726
:1028A0000120704780687047043010B50C460FC88F
:1028B00084E80F0010BD704708B5034A40F21221AA
:1028C000024B034829F0F6F964F20208570B03089B
:1028D000BFF2020810B50446482129F0BCF9204691
:1028E00010BD00002DE9F0431C46436BADF51F7D84
:1028F00005460E461746002B37D0002203A8DFF806
:10290000A890CDE901320EF0AFFA4FF4F4725021E5
:10291000249024A808F0F7F93A46314624A809F093
:1029200073F9012124A808F0F1FA022324A88DF8F4
:10293000D83008F08FFBBDF898322B9ABDF89C6216
:102940009342A89F28BF1346419A964203EB43083F
:10295000A7EB430728BF1646479B9E4209D824A8E9
:1029600008F0F6FA24A808F01BFA0DF51F7DBDE863
:10297000F083012201A924A808F0B5FB6B6B03EBDF
:102980000800984201D83C44E6E759789A78C90093
:1029900009EA022201F4FC610A4313F8031B42EA2C
:1029A000D10224F8022BECE700F8FFFF0A4A02608C
:1029B0000022C0E90522C0E90722C0E90922C0E9D6
:1029C0000B22C0E90D12C0E90F2280F84420C0E9B3
:1029D0000322C0E901227047BCF5020810B40C467E
:1029E00011461A46036B3BB1036C806BE41A20441A
:1029F0005DF8044B2AF0F4B8C06AF8E7036B10B531
:102A000073B1036C826BC91A5318525C98785C7866
:102A10000004DB7840EA0420104340EA036010BD64
:102A2000C36A5858FBE7036B43B1036CC91A836B45
:102A30005A18585C527840EA02207047C36A585AC4
:102A40007047000070B50446006B0D461646D8B1BD
:102A5000E36B934208D209230D4A65210D4884F89F
:102A600044300D4B29F026F90368DB689847206B4A
:102A70003246A16B03681B69984710B90D2384F88F
:102A80004430A06B256470BDE06A0844FBE700BFDA
:102A900047F30208BFF2020834F302082DE9F843B5
:102AA000436904462BB9234BAA21234A234829F022
:102AB00001F908228169FFF7C5FFA16943F23006D9
:102AC00046F2643704312046FFF798FFA3691844A3
:102AD000A36A00F108029A4206D301230020636131
:102AE000236AA361BDE8F8836369093008220133D2
:102AF00020F0010120466361A161FFF7A3FFD4F834
:102B0000189020464946FFF78EFF09F102018046E2
:102B10002046FFF788FF09F1040105462046FFF72C
:102B20006DFFB045D2D1BD42D0D10028CED001201A
:102B3000D8E700BF89F30208D2F30208BFF2020807
:102B40002DE9F04F0446ADF51F7D8A461646816992
:102B500008229846FFF776FFA7692046391DFFF740
:102B60004DFF07F10801024605462046FFF76AFFC0
:102B7000636B074633B93C4B40F2AB113B4A3C48D0
:102B800029F098F8002203A8CDE901320EF06CF983
:102B90004FF4F4725021249024A808F0B4F82A4687
:102BA000394624A809F030F8012124A808F0AEF92C
:102BB000022324A88DF8D83008F04CFABAF9025054
:102BC000479BAB4229D3BAF900904FEA4808BAF8BC
:102BD00004702B9B08FB05664F44BAF80250DFF8DF
:102BE00094B03FB29F4228BF1F46BAF8063009EBA7
:102BF000490A1D44419B2DB29D4228BF1D46479B5B
:102C0000AB4210D324A808F0A3F924A808F0C8F810
:102C100001200DF51F7DBDE8F08F012201A924A838
:102C200008F061FACCE7012201A924A808F05BFAB8
:102C3000626B49465244B94202F1030201D3464451
:102C4000DDE712F8020C12F8013CC0000BEA032386
:102C500000F4FC60034312F8030C43EAD00326F8A7
:102C600011300131E7E700BF05F402085BF4020808
:102C7000BFF2020800F8FFFF0129036838BF0121F5
:102C8000DB6A70B50D4604469847A84204D2236813
:102C90002046DB6A984705466B1EE66910222046EF
:102CA00006EB031606F10801FFF7CCFE06F1100152
:102CB0002046FFF7A3FE236A043B0344C4E90553FF
:102CC00070BD00002DE9F3410021044648228161D6
:102CD00080F84410FFF7B6FEA7690423634A39461B
:102CE0002046FFF77BFE40B10323614AF22184F8BE
:102CF0004430604B604828F0DDFF07F108010423F1
:102D00005E4A2046A161FFF769FE30B10423584AAC
:102D1000FA2184F844305A4BECE707F10C01042304
:102D2000584A2046A161FFF759FE064638B10523EF
:102D30004F4A40F2011184F84430534BDAE707F16F
:102D400010012046FFF75AFE054620B94F4B40F2CE
:102D50000711474ACEE707F1140804234C4A2046DE
:102D60004146FFF73BFE00284BD0062384F8443051
:102D70000423484A07F118012046FFF72FFE0028D8
:102D800041D0072384F844304544434F0C22204669
:102D90002946FFF757FE05F1080604233A46204668
:102DA0003146FFF71BFE94F8443000284AD0002B30
:102DB0004AD1A36A291DAB424AD805F10C03291D4B
:102DC0002046A3610191FFF719FE3044019960622A
:102DD0002046FFF713FE0644042220463146FFF743
:102DE00031FE04232D4A31462046FFF7F7FD002827
:102DF00039D10123E6616361A369236202B0BDE8B2
:102E0000F0810126B4E7002EBED007F12001204654
:102E1000FFF7F4FD4FF47A7307F13001B0FBF3F0E4
:102E200060602046FFF7EAFD07F14001A060204600
:102E3000FFF7E4FD07F14401E0602046FFF7DEFD07
:102E40002061A1E7002BB8D00A2384F84430D5E7ED
:102E50002046FFF7D3FD08300C22054420462946C2
:102E6000FFF7F0FD97E70B23EFE700BFB5F402088B
:102E7000D3F40208BAF40208BFF2020800F502080F
:102E800005F502081DF5020822F5020838F50208CA
:102E900044F5020849F502084EF5020853F5020808
:102EA000C0E90A2100220263FFF70CBF10B500231E
:102EB00004460846E3620B6821639B689847A0625A
:102EC0002046BDE81040FFF7FDBEF0B4BDF810503D
:102ED000BDF814602AB123B1CDE90456F0BCFFF768
:102EE00001BDF0BC704700002DE9F04F99464369E1
:102EF00085B004460F4690462BB92A4B77212A4AC3
:102F00002A4828F0D7FE08228169FFF79BFDA669B1
:102F100020463146FFF787FDB11C83462046FFF768
:102F200082FD311D82462046FFF768FD06F108014B
:102F3000A36A054642189A4227D243F230039B45C2
:102F400017D146F264339A4513D190B10246A1617C
:102F50002046FFF777FD0E9B01462A462046CDF816
:102F60000080CDE901933B46FFF7AFFF6369013372
:102F70006361A3692B448DB1A361A369626A0133C4
:102F800023F001039342A3610AD10120236A606107
:102F9000A36180F0010005B0BDE8F08F0833EBE7D6
:102FA0000020F6E789F3020858F50208BFF202088C
:102FB000012070470C2070470C2303FB01000830F0
:102FC00070470C2303FB0100083070470120704755
:102FD0004FF40A7070474FF40A7303FB0100083086
:102FE00070474FF40A7303FB01000830704701205B
:102FF00070471020704700EB01100830704700EB5D
:10300000011008307047084600F03CBE034B10B575
:103010000446036014F046FF204610BD64F6020823
:1030200010B50446FFF7F2FF1421204628F013FEE6
:10303000204610BD034B10B50446036014F032FF68
:10304000204610BD30F6020810B50446FFF7F2FF27
:103050004FF40C71204628F0FEFD204610BD000004
:10306000034B10B50446036014F01CFF204610BD4E
:10307000FCF5020810B50446FFF7F2FF18212046C0
:1030800028F0E9FD204610BD084B10B5044603604A
:1030900000F51770FFF7BAFF04F12C00FFF7CAFF25
:1030A00004F11400FFF7DCFF204610BD98F602087B
:1030B00008B50248FFF7E8FF08BD00BF8007002001
:1030C00010B50446FFF7E0FF4FF47471204628F076
:1030D000C2FD204610BD00002DE9F34100F052FC76
:1030E0000024054600F052FC2346014622462846AD
:1030F00000941BF04DF9254B254A2046254D1A60BA
:1031000001F0EAF924481BF0ABF82B68BFF35B8FA2
:10311000DB0735D4284628F0A0FD88B31F4C204B90
:1031200004F51D7604F1140004F12C0804F517775A
:1031300023606060C4F80880E760266114F0B4FE84
:10314000184B4046636114F0AFFE174B3846E362FC
:1031500014F0AAFE154B04F51C70C4F85C3201F0A3
:1031600037FA224604F51C71304601F027FA304642
:1031700000F088FD0E4828F0BBFD284628F079FDB8
:103180000C4802B0BDE8F041FFF79EB8D0550120D1
:10319000701900207C070020080000208007002014
:1031A00098F60208FCF5020830F6020864F60208F8
:1031B000B1300008F418002070470000014815F0F5
:1031C00084B900BFF418002070B5224E224B234C66
:1031D0003046234D2360FFF715FA28461FF0B2FB57
:1031E000204B00224FF480711F481A8683F8582024
:1031F0005A6683F870205A67DC60C3E912121B49D3
:10320000C3E91A121A4999671A490B604FF4F07111
:103210000180194801804FF488711848C3E90422DD
:10322000C3E90622C3E90822C3E90A22C3E90E2240
:10323000C3E91022C3E91422C3E91722C3E90165D7
:1032400001800F4883F8342001800E490A700E4A2D
:103250001A6070BD540B002020ED0208500B0020B6
:1032600074190020F41800206855012001000001A5
:1032700000000101745501206E5501206A5501209E
:10328000705501206C550120ACEE02080148FFF793
:1032900095B900BF540B0020002070478180704713
:1032A000C180704701817047418170477047704706
:1032B00070477047704710B4C4880368121B848835
:1032C0005B6D091B12B25DF8044B09B218474FF64B
:1032D000FF7383814FF0FF3303621368C361106093
:1032E000704790F825201AB190F8242002B1186098
:1032F00070470000034B902283F85A2383F8582329
:10330000704700BF00E100E0094A0A49D3680A4853
:10331000C3F30A03013B9BB20B801169C1F30A019D
:10332000013901801364536B43F001035363704709
:1033300000680140521A0020501A0020014BD3F8B7
:10334000AC00704700680140024B0122C3F8AC108A
:103350005A62704700680140124A5369DB0370B536
:103360001ED50023C2F88430BFF34F8FD2F88030CF
:1033700043F6E074C3F3C900C3F34E335B0103EAC1
:103380000406014646EA81750139C2F87452F9D241
:10339000203B13F1200FF2D1BFF34F8FBFF36F8F9C
:1033A00070BD00BF00ED00E070473823002201FB34
:1033B0000333C25490F838300BB9036C8364704700
:1033C000704710B50446582128F045FC204610BD32
:1033D00038B5044615F065F823685D6E17F0B4FD46
:1033E00001462046A8472368084A2046D3F888505B
:1033F0000023A2F57F31A847054B064A5A60064ACA
:103400001A649A644FF4FF225A6438BD00F807C06A
:10341000F8190020D421002000F40BC015F028B8C2
:1034200015F032B814F0EEBF15F05DB990F8252014
:1034300012B103685B6918477047000008B531B1E5
:10344000044B40F29711044A044828F033FC90F8EA
:10345000390008BDA4F60208B8F6020845F80208CB
:1034600010B531B1064B40F29111064A064828F0DA
:1034700021FC406811460368BDE810401B6B1847EB
:10348000A4F6020887F8020845F8020808B529B131
:10349000034B7A21034A044828F00CFC006908BD5C
:1034A000A4F6020838FA020845F8020808B529B15E
:1034B000054B8321054A064828F0FCFB41618160E9
:1034C000C0E9063208BD00BFA4F60208F0FB0208FE
:1034D00045F8020810B5044629B1274BA421274A14
:1034E000274828F0E7FB052A34D8DFE802F0032953
:1034F0002F34393E406803681B69984750B34FF03A
:10350000FF31606D05F0AEF90023012294F83E1002
:1035100084F83B3084F83920A360636101B12262F2
:1035200084F83E306362E36A2BB90123206D84F88E
:103530003A3005F081FA606DBDE8104005F0C2B97F
:10354000002380F8393084F83E3003E00362002322
:103550008360436110BD0362002383604361F2E72F
:10356000002380F839300123EDE7003B18BF012329
:1035700080F83D30EEE700BFA4F60208AFFD020878
:1035800045F8020870B50446164629B1314BE721CB
:10359000314A324828F08EFB90F8393033B1304B45
:1035A0001B6893F86B20436913444361E36A002B63
:1035B0004DD0E169D4E905325343A2684A439342AE
:1035C00020D2236A002B42D04FF0FF31606D05F00E
:1035D00049F9236A0BB10023E362E36AFBB90125D1
:1035E000606D05F06FF994F839300BB9236A3BB17F
:1035F000E36A2BB90123206D84F83A3005F01CFAF8
:10360000284670BD94F84C000028DDD09B1AB3FB0F
:10361000F1F2994298BF02F1FF326262D4E70022D0
:1036200094F83C50A3623046E262E2682261A268EC
:103630000132A260336333685B699847002DCED1B5
:1036400094F83D30002BCBD184F83950C8E70125E0
:10365000C9E700BFA4F6020886FF020845F8020881
:1036600074550120034B4FF080629A604FF08072D6
:103670009A60704700E100E0084B4FF08062C3F8A9
:103680008820BFF34F8FBFF36F8F4FF08072C3F866
:103690008820BFF34F8FBFF36F8F704700E100E0CA
:1036A00038B5034690F8380038BB01229860D860DE
:1036B0009A634FF4807258619A874FF4F072986160
:1036C000D861186258629862D8621863586383F8A8
:1036D0003E00CA864FF4887281F834000A87086376
:1036E0009A6C186102F5FF24D3E9101529448C4225
:1036F0000AD9084B5821084A03E0084B40F2F5115B
:10370000074A084828F0D6FA1A6302F57F329C640B
:103710005A6338BDE4020308240303082A0103089E
:103720005A01030845F8020810B5144C236823B366
:10373000134B144A1B6C11888B4213D1124B1988FE
:1037400002F0C6FF226892F86A30013382F86A30CC
:10375000FEF7E4FE206815F0F1FB0020BDE8104004
:10376000FEF7E2BC02F0B4FF206803681B6A9847CA
:103770000020BDE81040FEF707BD10BD74550120C4
:1037800000680140521A0020501A00202DE9F7432A
:1037900004464FF4707894F83A304FF0FF31002B24
:1037A00031D0606D05F05EF8276BA36ABB4200D193
:1037B000676B266A656856B32B68314628465B6A94
:1037C00098470023236284F83B30606D05F07AF857
:1037D0002B684FF4F0723946CDF8008028465E69B8
:1037E0004FF48873B0474FF0FF310646606D05F027
:1037F00039F894F83B30E3B1002384F83B30606D36
:1038000005F060F8C7E7206D05F0DCF8C3E7636AF0
:10381000002BDAD02B682846D3E909939847616AD0
:1038200001442846C847A368626A66621344A360DD
:10383000CBE7E7625EB12B6828469B6A9847013860
:103840000023E06084F83C6084F83A30D7E7012038
:10385000F6E70000014808B5FFF798FFF8190020C7
:103860000368042270B504465E6A00230D46B04723
:103870004FF0FF31606D04F0F5FF382303FB054284
:10388000D16A09B10021D16203FB0545012385F806
:103890003B30002385F83930606DBDE8704005F09D
:1038A00011B838B500EB810304460D46114658683F
:1038B0000368DB68984729462046FFF7D1FF38BDEB
:1038C00070B50D461146044600EB8502506802684B
:1038D00096681A46B04729462046FFF7C1FF70BDDB
:1038E00038B5164900251648FFF760F8154C164BF9
:1038F00001202A46294623604FF48073A564A387DC
:1039000084F84C0084F83E50C4E91055C4E91455BD
:10391000C4E90155C4E90355C4E90555C4E907558F
:10392000C4E90955C4E90B55C4E90D5504F0F4FF89
:103930002065284604F052FF606538BD541A002007
:10394000D4210020F8190020D4040308704710B5D2
:103950000446042128F07FF9204610BD012908B54E
:1039600006D0022908D059B900F002FE006808BD4F
:1039700000F0FEFD4068FAE700F0FAFD8068F6E727
:103980000020F4E7004870471C0503080120704739
:1039900013B5002451B1036801AA01948DF80340C6
:1039A0009C680DF10303A04702B010BD0846FBE779
:1039B000C0897047008A7047C08870478088704708
:1039C000807A00F07F007047807AC00970477047A6
:1039D00010B50446082128F03EF9204610BD704776
:1039E000704700F598730868496803C370477047CB
:1039F0007047416070477047064BC0F84801C0F8F7
:103A00004C310023C0F8503100F5A273C0F84031AA
:103A1000704700BFBD3A000801230372704770472A
:103A2000704710B441680346C2689B68541001EBAC
:103A30006200D20748BF0A595DF8044B48BFD3580B
:103A4000184743682BB183682BB9C06800F00100A8
:103A50007047184670470120704710B504460C2186
:103A600028F0F9F8204610BD10B50446102128F0C2
:103A7000F2F8204610BD10B504464FF4AE7128F0A0
:103A8000EAF8204610BD10B517F05EFA0368BDE8ED
:103A90001040DB6B184710B50446D0F8400158B110
:103AA0000368DB68984738B1D4F8400103689B6825
:103AB00098470023C4F8403110BD00002DE9F14FB4
:103AC000D0E9555A0746A86803681B6A9847B0F5BD
:103AD0000A7F05D2454BA321454A464828F0EAF81B
:103AE000686803681B6A98470F2803D8424BA421D3
:103AF0003F4AF2E7E86803681B6A98470B2803D837
:103B00003E4BA5213A4AE8E7DFF8F89017F01CFA97
:103B1000043017F03EFAD9F8000010B10368DB68F2
:103B20009847D9F8000010B103681B689847DFF880
:103B3000D880D8F8000010B103685B699847D7F8BF
:103B40003C0110B103685B689847D8F8000010B1D9
:103B500003681B689847D7F83C0110B103689B685D
:103B60009847E86800214FF0000B03685B6A9847AC
:103B7000234B0446C0F804B00360594680F808B0EF
:103B8000A86803685B6A9847064600F0C9FD686844
:103B9000594603685B6A98470546314600F092FD36
:103BA000C9F80040C7F83C51C8F80060E5B12B1DCA
:103BB000CAF8003030463368C5F808A0DB68F56302
:103BC00098472B6828461B6898472146304618F0CE
:103BD00087FE236820461B699847236820465B6957
:103BE00001B0BDE8F04F18472B46E1E74005030858
:103BF000CE050308D206030819070308BC0703080B
:103C0000D4080308B4550120B0550120044B1B68AB
:103C100093F858200AB1D86C00B99868704700BF73
:103C200074550120F8B5044617460E4617F052FAAF
:103C3000104B00251C6029460F4B23600F4BC4E935
:103C400051350F4B1868C4E953550368C4E94F5503
:103C50009B68C4E955769847284600F03DFCFFF77D
:103C6000D5FF20F09EFCFFF7D1FF20F015FD204688
:103C7000F8BD00BFC055012080080308680803088C
:103C800074550120064BC0F84801C0F84C310023A0
:103C9000C0F8503100F5A273C0F84031704700BF42
:103CA000BD3A0008406A7047806A704770478B8849
:103CB000C069DB0A0A6850F823001044704710B549
:103CC000C2B1137BB3B1547BD27A240204F4E06412
:103CD0001443026A98B202EB840213888B4202D129
:103CE00092F9020010BD05D80138043280B20028D4
:103CF000F3D1F7E70020F5E710B504462C2127F0B3
:103D0000AAFF204610BD000030B58BB00446BDF8B8
:103D100060500895BDF85C5007959DF85050069589
:103D20009DF84C5005959DF8485004959DF84450D9
:103D300003959DF8405002959DF83C500195BDF8C3
:103D40003850009518F026FA064B20462360159B44
:103D5000E361169B2362199B63621A9BA3620BB0FB
:103D600030BD00BFF80803087047704770477047C0
:103D7000704730B585B00368044601816D46014641
:103D8000D3F884303C342846984795E8070084E807
:103D9000070005B030BD30B585B0036804464181E9
:103DA0006D460146D3F884303C342846984795E860
:103DB000070084E8070005B030BD00220280428081
:103DC0008280C280704780F836107047036870B5F3
:103DD00004461B6B154698472368204629465B6EB0
:103DE000BDE87040184700207047806C70477047EE
:103DF0007047704710B504464C2127F02CFF204631
:103E000010BD10B504464FF40A7127F024FF204678
:103E100010BD08B5FFF70AFB08BD0000036870B5C8
:103E20005E6B0446114B8DB21B682BB9104B6C2195
:103E3000104A114827F03EFF1049828D09889142AF
:103E400003D80F4B6D210B4AF3E713F812200D4BEB
:103E50001B6853F8220003681B6B9847281A3346E7
:103E600001B22046BDE87040184700BFC45501208C
:103E70005009030892090308CD090308C855012019
:103E8000140A0308CC55012000224FF0FF31826054
:103E9000C0E900217047036870B504461B6B1546E6
:103EA00098472368204629465B6BBDE87040184759
:103EB0004FF48071002281840D49026381624FF6C4
:103EC000FF71028781854FF47F01C2634163094915
:103ED000826401604FF0FF31C0E90122C0E9032292
:103EE000C0E90522C0E90722C0E91012704700BFEF
:103EF00038050308940A03082DE9F04F044600250D
:103F00002DED028B89B0A34618F03EFBD24BE56342
:103F100004F16C0A4BF8403B04F1B809CF4B504612
:103F200004F582782566A56604F5A877261DC4E900
:103F300010354FF48073A4F86430FF23C4E91255A0
:103F400084F86630C4E91455C4E91655FFF7B0FF8C
:103F50004846FFF7ADFF4046FFF7AAFF3846FFF798
:103F6000A7FF04F5CE73184608EE103AFFF7A0FF3E
:103F70002A4658462946FFF78EFF58464FF4F071FF
:103F8000FFF790F958464FF48871FFF78DF94FF01D
:103F90007F4359463046A3660DF1080B13F098FF96
:103FA000352246215046FFF776FF4FF0FF3351464A
:103FB0005846C4F89C30E36EA4F8A050D3F884307F
:103FC000984704F1A8039BE8070083E8070004F57D
:103FD000F4730193A24B1B682BB9A24B6021A24A38
:103FE000A24827F067FEA24B1B88052B03D8A14BE4
:103FF00061219D4AF4E7A04B0521186800F0A8FA5A
:104000000A2103469D4A019819F036FF019A50464D
:10401000C4F8B42015F0E4F90923994A504606A9DA
:10402000ADF81C30069215F0FBF95146304613F0FE
:104030004FFF612246214846FFF72DFF4FF0FF3129
:10404000D4F8B8305846C4F8E8104946D3F884305C
:1040500004F5FE7AA4F8EC50984704F1F4039BE8C9
:10406000070083E807007E490B68002BB5D0804825
:104070000388042BBBD9804B0421186800F068FA30
:104080007E4A03460421504619F0F6FE4846C4F81D
:1040900000A115F0A5F90DF1180C0823784A614626
:1040A0004846ADF81C30069215F0BAF9494630463C
:1040B00013F00EFF932246214046FFF7ECFE4FF02F
:1040C000FF3CD4F8043141465846C4F834C1D3F813
:1040D000843004F50179A4F83851984704F5A073A9
:1040E0009BE8070083E807005D490B68002B3FF45D
:1040F00074AF5F480388032B7FF679AF5E4B0321D3
:10410000186800F025FA5D4A03460421484619F074
:10411000B3FE4046C4F84C9115F062F90DF1180C4D
:104120000723574A61464046ADF81C30069215F009
:1041300077F94146304613F0CBFEC6224621384679
:10414000FFF7A9FE4FF0FF3CD4F8503139465846EE
:10415000C4F880C1D3F8843004F50378A4F88451FE
:10416000984704F5C6739BE8070083E807003C49BD
:104170000B68002B3FF431AF3D480388022B7FF6DC
:1041800036AF3D4B0221186800F0E2F93B4A034686
:104190000421404619F070FE3846C4F8988115F0A5
:1041A0001FF90623364A3846ADF81C3006AB069296
:1041B000194615F035F93946304613F089FE352297
:1041C0004FF4897118EE100AFFF765FE4FF0FF33C8
:1041D00018EE101A5846C4F8CC31D4F89C31A4F823
:1041E000D05104F50575D3F88430984704F5EC7385
:1041F0009BE8070083E8070019490B68002B3FF490
:10420000ECAE1B480388002B3FF4F1AE1A4B0021A3
:10421000186800F09DF9194A03460A21284619F04A
:104220002BFE18EE100AC4F8E45115F0D9F8144B1F
:1042300006A918EE100A06930123ADF81C3015F0FC
:10424000EFF8304618EE101A13F042FE204609B07F
:10425000BDEC028BBDE8F08F240B0308E82F0308A8
:10426000C455012050090308520A0308CD09030868
:10427000C8550120140A0308D0550120D82303088B
:10428000380503087047000030B5164D8FB02C6814
:10429000BFF35B8F14F0010420D1284627F0DDFC2A
:1042A000E0B13F23012210490993104B10480893B5
:1042B000104B0A940594CDE906430423CDE903325B
:1042C0000A23CDE90B440093CDE90144FFF71CFD1F
:1042D000094827F00DFD284627F0CBFC04480FB015
:1042E00030BD00BF1C220020140B0090BC37030817
:1042F000202200201C380308854200087047000077
:1043000030B5164D8FB02C68BFF35B8F14F00104ED
:1043100021D1284627F0A1FCE8B1114B23221149F5
:104320000893114B11480793012301940493CDE99D
:1043300005330423CDE902431423CDE90B44009354
:104340001823CDE90944FFF7DFFC094827F0D0FC2A
:10435000284627F08EFC05480FB030BD4C220020C7
:10436000C0370308240B0090203803085022002097
:10437000FD4200087047000030B5164D8FB02C6824
:10438000BFF35B8F14F0010420D1284627F065FCB1
:10439000E0B13F23012210490993104B10480893C4
:1043A000104B0A940594CDE906430423CDE903326A
:1043B0002823CDE90B440093CDE90144FFF7A4FC89
:1043C000094827F095FC284627F053FC04480FB015
:1043D00030BD00BF7C220020100D0090183803086B
:1043E000802200202438030875430008002070470D
:1043F000002070470EB403B503AB002153F8042B23
:10440000019317F0EFFC02B05DF804EB03B07047C6
:104410000CB407B504AB53F8042B019317F0E2FC7E
:1044200003B05DF804EB02B070470000436C10B5B8
:10443000044673B3038F2BB9184BC521184A19488A
:1044400027F038FCC38E00EB43035B8C0BB318F0F2
:104450005FFF238F012B03D8134BCB21134AEEE7C9
:10446000E28E40F63F10531C9BB2092B194688BFC1
:10447000A3F10A0104EB4101498C814209D10A2BC5
:1044800004EB420228BF0023508C04EB4303588402
:1044900051842046BDE8104018F03CBE500B030884
:1044A000590B0308040C03084E0C03085C0C0308AA
:1044B00018F0F9BD10B586B002AC84E806001A46C3
:1044C0000AAB214605930193099B0093089B16F0C4
:1044D000D9F806B010BD000038B518BB124B134810
:1044E0001C681349B4B12268224402606268224405
:1044F0000A60A26814440F4B00221A8000F038F8BA
:10450000054600F033F80C4B1C600C4B1D600C4B47
:10451000188007E00B4B03600B4B0B600B4B1C68C8
:10452000002CE8D138BD00BFAC220020B022002012
:10453000B4220020B8220020C4550120CC5501200F
:10454000C8550120480D0090200D0090000E0090ED
:10455000044B1B6853F82100034B1B6803EB40001E
:10456000704700BFB4220020B02200200A2070470C
:1045700000487047BC22002010B5054CFFF7C0FE74
:104580002060FFF7F9FE6060FFF77EFEA06010BDBF
:10459000BC220020704710B504464FF4AE7127F0DE
:1045A0005AFB204610BD10B50446D0F8580100F063
:1045B00045F82046BDE8104016F048BD10B5044649
:1045C000FFF730FB014B2046236010BD380D030878
:1045D0000022026070470000064B00681A680A3229
:1045E000B2F5617F08BF00221A60026819689268FC
:1045F000104700BFE8020020F7B5002506460D4F22
:104600002C4637F8023B013532201C4400F0A8FB51
:104610000A2DA4B2F5D10848B4FBF5F1019128F0B8
:1046200071F9306801990368DB6803B0BDE8F040B8
:10463000184700BFAC020020840D030810B50446E3
:10464000FFF7DAFF084B186830B1642104F0BAF9BB
:1046500010B92046FFF7D0FF044B20461968BDE88B
:104660001040FFF7B9BF00BFEC020020E8020020B5
:104670007047043870477047C0680368DB6A1847A2
:10468000A0F10400FFF7F8BF10B50446102127F091
:10469000E2FA204610BDA0F10400F5E713B5044688
:1046A0000548019128F094F9E068019903685B6B73
:1046B00002B0BDE810401847990D0308A0F10400AE
:1046C000FFF7ECBF0022C1608260044A10B502F11E
:1046D000080428320460426010BD00BFAC0D03081E
:1046E00070470000024B1868821C01301A60704746
:1046F000C8220020034B10B504460360FFF777FB88
:10470000204610BD0C0E030810B50446FFF7F2FF5B
:104710004FF40A71204627F09EFA204610BD000093
:1047200010B50446FFF7E8FB014B2046236010BD9F
:104730000C0E030810B50446FFF75AFB2368204609
:104740001B6B9847236801462046DB6ABDE8104092
:10475000184700000000000073B5044614480D46D9
:1047600028F0D0F8002304F505762846C4F8143262
:10477000C4F81832A4F81C32FBF7F4FE0AA3D3E9FC
:104780000023FBF759FFFCF72FFA01AB01900A2138
:10479000084A304619F05AFD04F5CE7002B0BDE863
:1047A000704017F04ABC00BF964E0A4466664A3F06
:1047B000E40D0308FF0D030810B504460B46064A36
:1047C0000A2100F5F47019F057FB04F16C00BDE804
:1047D000104017F032BC00BF3621030800B54FF47B
:1047E000807295B04FF0807103460C9205220F91B4
:1047F00001210692002201910B92139200920B4824
:10480000CDE90312CDE90D22CDE91122102206A92E
:1048100002924FF4800205926A4602F03BF900389A
:1048200018BF012015B05DF804FB00BFCC220020AA
:1048300000B54FF4807395B041F2883217480C935D
:10484000062306A906930023CDE90D330F930B939E
:104850001393CDE9113302F0DAF8E0B90223012213
:104860004FF4800104900D48CDE900331023CDE9C9
:10487000023205236A46CDE905134FF0807306A97D
:104880000F9341F2883302F005F9003818BF012078
:1048900015B05DF804FB0120FAE700BFCC22002030
:1048A00000B54FF4807391B04FF040720E480893FA
:1048B000EB2302A902934FF4406309934FF4005392
:1048C00005930023CDE90A320A220F9307926A4624
:1048D000CDE90D33CDE9003302F02CF9003818BFD3
:1048E000012011B05DF804FBCC220020454B0121D2
:1048F00045489A6B42F00202F0B59A638DB09A6B0C
:1049000009240427002602F00202404D0092009A7A
:104910009A6942F002029A619A6922F002029A614F
:104920001A6B42F002021A631A6B02F00202019241
:10493000019A1A6B42F002021A631A6B02F0020229
:104940000292029A1A6B42F008021A631A6B02F082
:1049500008020392039A1A6B42F008021A631A6B58
:1049600002F008020492049A1A6B42F010021A63D1
:104970001A6B02F010020592059A1A6B42F00802B7
:104980001A6340221B6B03F008030693069B022365
:10499000CDE907230323CDE909130A2307A90B93C4
:1049A00000F0FEFF07A91848079709960B9400F03E
:1049B000F7FF4FF4006307A928460B94079300F014
:1049C000EFFF4FF4805307A928460B94079300F09C
:1049D000E7FF07A90E4807970B9400F0E1FF4FF49B
:1049E000005307A928460B94079300F0D9FF3246DD
:1049F0000F215C2000F00CFC5C2000F03BFC0DB0B3
:104A0000F0BD00BF0038024000040240000C02402C
:104A100000100240F0B5494C91B0494B204623604C
:104A200001F0E2FF054610B1012011B0F0BD0146D2
:104A30002046FFF75BFF012604234FF08077C4E98F
:104A400001631023E36097FAA7F3B3FA83F32046D8
:104A5000013B23614FF4A063C4E90755C4E9053560
:104A600001F06EFF0028DFD14FF4807566230B90B4
:104A700041F28832079002A90F9008950293CDE980
:104A80000900CDE90D00204601F0C1FF08B1042066
:104A9000CBE7992341F2883202A92046029301F024
:104AA000B6FF0028F3D141F28830FFF797FE0028C7
:104AB000EDD18523079041F2883202A9089502932F
:104AC0000B97CDE90900CDE90C60CDE90E00204639
:104AD00001F09DFF0028DAD141F288320DF1070183
:104AE000204602F00DF90028D1D1FFF7A1FE0028E1
:104AF000CDD18123F022029392FAA2F20A219DF8ED
:104B00000730B2FA82F2204603F00F0301FA02F2F4
:104B100002A9134341F288328DF8073001F077FF84
:104B20000028B4D141F288320DF10701204602F08D
:104B30008BF800283FF479AFA9E700BFCC22002012
:104B4000001000A00F490020D1F8883043F4700312
:104B5000C1F888300C4B1A6842F001021A60986064
:104B60001A6822F0847222F480321A60074A5A606E
:104B70001A6822F480221A60D8604FF000638B60BC
:104B8000704700BF00ED00E0003802401030002404
:104B90007047002070470000002337B58DF80730BC
:104BA0000D4B1A780AB901221A700324C5B2013CD0
:104BB000A8212846FDF79CFA14F0FF048DF80700A1
:104BC0009DF80730DBB203D19DF8070003B030BD7C
:104BD000512BECD1F8E700BF1A23002013B50024B5
:104BE0000221C0B28DF80740FDF782FA8DF8070068
:104BF0009DF8073003F00F038DF807309DF807305C
:104C0000052B01D98DF807409DF80720034B9DF82F
:104C100007005A7000229A7002B010BD1A230020BB
:104C20002DE9F74F2F4C15464FF000080F46A3789B
:104C300062788DF807809A424DD9092B4ED803EB44
:104C400043035B00DBB2191D03F1030B03F1060AFA
:104C50000533C9B25FFA8BFB5FFA8AFA5FFA83F811
:104C6000C6B2DFF884903046FDF742FA8DF80700AF
:104C70009DF8073059463046A9F80030FDF738FA5C
:104C80008DF8070051469DF807303046B9F80020EE
:104C90001B0203F4706313433B80A9F80030FDF757
:104CA00027FA8DF8070041469DF807303046A9F8ED
:104CB0000030FDF71DFA8DF807009DF80730B9F8B0
:104CC00000201B0203F470631343A9F800302B800B
:104CD000A3780133A37003B0BDE8F08FC246C3468A
:104CE0004146BDE71A230020182300200122A421F9
:104CF000C0B2FDF7E3B90022A421C0B2FDF7DEB9CE
:104D0000FFF7F9BF70470000024B1A780AB9012279
:104D10001A7070471A230020074A032008B5136849
:104D200043F48073136000F061FA0020FDF754F83B
:104D3000FCF706FD002008BD003C0240034A044B7E
:104D400011681B780B441360704700BF20230020BC
:104D500038000020014B1868704700BF2023002056
:104D600038B50446FFF7F6FF0546631C1EBF044B2B
:104D70001B78E418FFF7EEFF431BA342FAD338BDBC
:104D80003800002038B50446002800F09B80056CF0
:104D900025B9FCF7F3FC656484F83C50236CDB0612
:104DA00000F18E80236C23F4885323F0020343F038
:104DB00002032364444B5A6822F440325A605A6812
:104DC00061680A435A60236821695A6822F4807234
:104DD0005A605A6842EA0122A1685A605A6822F071
:104DE00040725A605A680A43E1685A609A6822F42D
:104DF00000629A609A680A4334499A60A26A8A42B9
:104E000052D0996821F07061996099680A43E16A0B
:104E10009A609A6822F040529A609A680A439A60AF
:104E20009A68A16922F002029A609A6842EA4102F5
:104E30009A6094F82020002A3ED05A68616A42F4B1
:104E4000006201395A605A6822F460425A605A6816
:104E500042EA41325A600020DA6AE16922F47002C3
:104E60000139DA62DA6A42EA0152DA629A6822F4B5
:104E700000729A609A6894F8301042EA412261699F
:104E80009A609A6822F480629A609A6842EA812263
:104E90009A606064236C23F0030343F001032364EE
:104EA000002384F83C3038BD9A6822F070629A6022
:104EB0009A6822F04052B2E75A6822F40062C9E7C9
:104EC0000120EDE70120EEE7002301400100000F83
:104ED0001346002273B50192054690F83C20012A42
:104EE0007DD00122066880F83C20B268D4070CD53A
:104EF000B46814F001041BD12B6C43F010032B6435
:104F00006B6C43F001036B644FE0B26842F0010246
:104F1000B260344A1068344AB0FBF2F000EB400053
:104F20000190019A002AE3D0019A013A0192F8E730
:104F3000286C20F4E06020F0010040F480702864C8
:104F40007268500505D5286C20F4405040F480501C
:104F500028642A6C12F4805202D06A6C22F0060295
:104F60006A640022A86B85F83C20204AC263204A6C
:104F70000264204AC2646FF022023260726842F01A
:104F800080627260B26842F48072B2600A4606F1D2
:104F90004C0100F0CBFA18494B6813F01F0F2B6837
:104FA00006D1986810F0405014D0002002B070BDB7
:104FB000124A934207D19A6812F0405F03D19A686F
:104FC00042F080429A604A68D206EED40C4A93427C
:104FD000EBD1E6E79A6842F080429A60E6E7022069
:104FE000E4E700BF0C00002040420F0029500008F9
:104FF0000750000813500008002301400020014022
:10500000002201407047806B08B5FFF7FBFF08BD29
:105010007047806B08B540230364436C43F004037E
:105020004364FFF7F5FF08BD836B1A6C12F0500F55
:105030001A6C10B523D142F400721A641A68916890
:1050400011F0405F17D19969A9B9D16A11F4700FB5
:1050500002D0916848050ED4516821F020015160BA
:105060001A6C22F480721A641A6CD10403D41A6C7C
:1050700042F001021A641846FBF798FF10BDD206F1
:1050800003D51846FFF7C4FFF8E79B6BBDE8104057
:10509000DB6C18470023F7B5019390F83C30012BE7
:1050A00077D0012380F83C300C680368A5B2092C46
:1050B0008E6805EB45023AD9B4F1004F37D01E3A5D
:1050C0004FF0070CDF680CFA02FC27EA0C07DF60E0
:1050D000414FBC4226D1DA6842EA0662DA6049688A
:1050E000062901EB81022FD8053A1F26596B9640FD
:1050F00005FA02F221EA06015963596B0A435A6321
:10510000364A934208D1B4F1004F44D1D2F8043367
:1051100023F44003C2F80433002380F83C301846DF
:1051200003B0F0BDDF6806FA02F23A43D6E74FF06B
:10513000070C1F6996400CFA02FC27EA0C071F6156
:105140001F693E431E61CAE70C294FF01F010BD8AF
:10515000233A1E6B914005FA02F226EA0101196317
:10516000196B0A431A63CBE7413ADE6A91409540D6
:1051700026EA0101D962D96A0D43DD62C0E7184B06
:105180005A6822F400025A605A6842F480025A6057
:10519000C2E70220C4E7122CF1D00F4B9C4201D091
:1051A000112CB9D10E4B5A6822F480025A605A6809
:1051B00042F400025A60084B9C42ADD1094B0A4AA6
:1051C0001B68B3FBF2F30A2253430193019B002BAC
:1051D000A2D0019B013BF8E7120000100020014023
:1051E000002301400C00002040420F000749030249
:1051F000CA6803F4E06322F4E0621204120C134361
:1052000043F0BF6343F40033CB60704700ED00E030
:10521000164B30B5DC68C4F30224C4F10703251D26
:10522000042B28BF0423062D4FF0FF358CBF033C11
:10523000002405FA03F3002805FA04F521EA030324
:1052400022EA050203FA04F343EA02034FEA0313D6
:10525000DBB206DB00F1604000F5614080F800330E
:1052600030BD00F00F00024A1354F9E700ED00E0F2
:1052700014ED00E0002807DB4109012300F01F00C6
:10528000024A834042F82130704700BF00E100E04D
:1052900000280CDB4309012200F01F0004492033E1
:1052A000824041F82320BFF34F8FBFF36F8F7047C9
:1052B00000E100E0BFF35F8F044B5A6A22F48032B2
:1052C0005A620022C3F89420704700BF00ED00E04E
:1052D000064B40F00100C3F894005A6A42F4803251
:1052E0005A62BFF34F8FBFF36F8F704700ED00E03E
:1052F0004378144A10B5C2F898300178E9B1436890
:10530000C2F89C30C37A047B1B0643EA04730B4348
:10531000817A43EAC143417B43EA8143817B43EA8B
:105320004143C17B43EA0143417A43EA0123017AC5
:1053300043EA4103C2F8A03010BDC2F89C10C2F885
:10534000A010F9E700ED00E010B5044608B901200F
:1053500010BD437F03F0FF0213B90277FCF792FA06
:10536000022363772379E3B92368134A5A619A6861
:1053700022F018029A6062792368D2B94FF0FF32A6
:105380001A6100209A68616922F060020A43A169EB
:105390009A609A6822F080020A439A600123637738
:1053A000D6E7D4E90212204600F008F80028E2D03F
:1053B000CDE72269E4E700BFB71DC1041F2310B584
:1053C000013B1CD321FA03F4E407F9D5102A12D0CB
:1053D00004D83AB1082A10D001200BE0182AFBD1DA
:1053E000062BF9D800684161836823F01803134342
:1053F0008360002010BD072BF3E70F2BF1E7002A95
:10540000EAD1EFE703681821DAB223F47F73103A88
:1054100023F00303B2FBF1F110B55F2A034C88BF00
:105420000433615C8365C165184610BD5C0E0308DA
:1054300070B50446FFF78EFC0546002C71D00223A0
:10544000226884F83530002384F83430136823F060
:105450000103136022681368D8072ED413683248FA
:10546000A1691840D4E901352B43E5682B43256930
:105470002B4365692B43E5690B432B43256A2B437B
:105480000343606A042802BFD4E90B5635432B431B
:1054900004281360536923F0070343EA000332D161
:1054A000A06AE56A034375B391B9012820D030F0B2
:1054B000020128D1E90126D51DE0FFF74BFC401B76
:1054C0000528C7D920230320636584F8350070BD03
:1054D000B1F5005F13D1032815D801A151F820F0D0
:1054E000F7540008B5540008F7540008F1540008B8
:1054F000B5F1C07F07D1402301206365E5E70228AD
:10550000F9D90328D6D053612046FFF77BFFE26D1F
:105510003F239340836000200123606584F8353089
:10552000D5E70120D3E700BF3F8010F070B590F8B9
:105530003440866D012C34D00124002580F834409D
:1055400090F83540012C4FF0020428D180F8354006
:1055500004684565256825F48025256063608368B7
:10556000402B19D1A260E160C26D3F239340B3602C
:10557000236843F016032360636943F0800363618B
:10558000036C1BB1236843F00803236023680020E9
:1055900043F00103236070BDA160E260E4E780F89E
:1055A00034500220F7E770B50446866DFFF7D2FB52
:1055B000054694F83530022B06D080230120636520
:1055C000002384F8343070BD23681A6822F0160274
:1055D0001A605A6922F080025A61226C0AB9A26CE0
:1055E0001AB11A6822F008021A601A6822F0010241
:1055F0001A6023681B6813F0010308D1E16D3F2294
:1056000018468A40B260012284F83520D8E7FFF7B7
:10561000A1FB401B0528ECD920230320636584F8F7
:105620003500CDE70023F7B5019308225B4B044614
:10563000856D1F68C36D2E689A4032420CD0016898
:105640000868400708D5086820F004000860AA60D0
:10565000626D42F00102626501229A40324208D036
:1056600021684969090604D5AA60626D42F0020208
:10567000626504229A40324208D02168096888078E
:1056800004D5AA60626D42F00402626510229A405D
:10569000324210D02368196809070CD5AA601A682D
:1056A000500337D51B68190301D4236C00E0A36CA9
:1056B0000BB120469847E16D20228A4032423AD011
:1056C00023681868C60636D5AA6094F83520052ADE
:1056D0001A6827D122F016021A605A6922F0800255
:1056E0005A61226C0AB9A26C1AB11A6822F0080237
:1056F0001A603F238B40AB60012384F835300023D0
:1057000084F83430236D002B45D0204603B0BDE82B
:10571000F04018471A68D205C7D41A6822F0080268
:105720001A60C2E7500327D51B68190331D4636C94
:105730000BB120469847636D6BB3636DDA0719D5DB
:105740004FF416532268B7FBF3F7052384F835307E
:10575000136823F001031360019B0133BB420193E3
:1057600002D81368DB07F7D4012384F8353000230F
:1057700084F83430E36CC6E71A6812F4807208D1FA
:10578000196821F010011960012384F8342084F88D
:105790003530E36BCCE703B0F0BD00BF0C00002058
:1057A00010B5044630B390F8393003F0FF021BB94E
:1057B00080F83820FCF77CF822680223616800201A
:1057C00084F83930136823F440330B43A168136025
:1057D000536B23F007030B43E1685363136C23F40B
:1057E0007F5323F03F030B4313640123E06384F8EA
:1057F000393010BD0120FCE770477047036870B571
:105800005E6804461D68F20714D5E90512D51A68CA
:1058100022F480721A60C26B42F00102C26301225C
:105820009A60042380F83930002380F838304369C7
:1058300003B19847B20616D5AB0414D523681A688D
:1058400022F400521A6020229A60E36B43F00203B4
:10585000E363042384F83930002384F83830636923
:105860000BB120469847300716D5290514D5236873
:105870001A6822F400621A6008229A60E36B43F00F
:105880000403E363042384F83930002384F83830B8
:1058900063690BB12046984772070BD56B0509D594
:1058A000236820461A6822F480621A6004229A60F3
:1058B000FFF7A2FFB00714D5A90512D523681A680F
:1058C00022F400721A6002229A60E36BE363012300
:1058D00084F83930002384F8383023690BB120462E
:1058E0009847F20613D5EB0411D5236820461A68B1
:1058F00022F480521A6010229A60E36BE363012362
:1059000084F83930002384F83830FFF776FF70BD13
:10591000F0B590F83830012B4FF002032BD080F80F
:105920003930012200EB01131C4F80F838200E01A2
:105930005D6AD3E9074244EA0242093C012C96BF62
:1059400005F07F4342EA05621A430368A9B9596A20
:10595000012C01EA070142EA01025A6282699A6156
:1059600003D8426A22F07F429A62012380F83930DC
:10597000002380F838301846F0BDD969012C01EABF
:10598000070142EA0102DA6100EB060292691A613C
:10599000EBD825F07F451D62E7E700BFF0FFFC0074
:1059A0002DE9F74F0023DFF8B8916B4A01240D6809
:1059B0009C4004EA050CAC4340F0B4804D684FEACB
:1059C0004308032605F0030406FA08F6671EF643AB
:1059D000012F34D8876807EA060ECF6807FA08F760
:1059E00047EA0E078760476827EA0C0EC5F30017E1
:1059F0009F4047EA0E074760C768022C07EA060E79
:105A00008F6807FA08F747EA0E07C76019D14FEA0F
:105A1000D30A03F0070B4FF00F0E00EB8A0A4FEA90
:105A20008B0BDAF820700EFA0BFE27EA0E0E0F69C8
:105A300007FA0BF747EA0E07CAF8207001E0032CBB
:105A4000DAD1076804FA08F415F4403F07EA0607BC
:105A500044EA0704046065D0D9F8444023F0030603
:105A600003F0030744F4804406F18046BF00C9F800
:105A7000444006F59C36D9F8444004F4804401942F
:105A8000019C0F24D6F808E0BC402EEA040E334CEB
:105A9000A0424ED004F58064A0424CD004F580644E
:105AA000A0424AD004F58064A04248D004F5806446
:105AB000A04246D004F58064A04244D004F580643E
:105AC000A04242D004F58064A04240D004F5806436
:105AD000A0423ED004F58064A0420CBF09240A24F1
