:020000040800F2
:1000000000000520B1190008CD180008CF1800081D
:10001000D1180008D3180008D51800080000000007
:10002000000000000000000000000000617A0008ED
:10003000D718000800000000017B0008657B00085D
:10004000011A0008011A0008011A0008011A000824
:10005000011A0008011A0008011A0008011A000814
:10006000011A0008011A0008011A0008011A000804
:10007000011A0008011A0008011A0008011A0008F4
:10008000011A0008011A0008011A0008011A0008E4
:10009000011A0008011A0008011A0008011A0008D4
:1000A000011A0008011A0008011A0008011A0008C4
:1000B000011A0008011A0008011A0008011A0008B4
:1000C000011A0008011A0008011A0008011A0008A4
:1000D000011A0008011A0008011A0008011A000894
:1000E000011A0008011A0008011A0008011A000884
:1000F000011A0008011A0008011A0008011A000874
:10010000011A0008011A0008011A0008011A000863
:10011000011A0008011A0008D9180008011A00087D
:10012000011A0008011A0008011A0008011A000843
:10013000011A0008011A0008011A0008011A000833
:10014000011A0008011A0008011A0008011A000823
:10015000011A0008011A0008011A0008011A000813
:10016000011A0008011A0008011A0008011A000803
:10017000011A0008011A0008011A00080000000016
:10018000011A0008011A0008011A0008011A0008E3
:10019000011A0008011A0008011A0008011A0008D3
:1001A000E5180008011A0008F1180008011A0008F3
:1001B000011A0008011A0008011A0008011A0008B3
:0801C000011A0008011A0008F1
:1001D00010B5054C237833B9044B13B10448AFF381
:1001E00000800123237010BD2401002000000000C6
:1001F00050C5020808B5034B1BB103490348AFF3D0
:10020000008008BD000000002801002050C5020841
:1002100001F0FF01102A2BDB10F0070F08D010F8B7
:10022000013B013A8B422DD010F0070F42B3F6D1BB
:10023000F0B441EA012141EA014122F007047FF0D4
:1002400000070023F0E80256083C85EA010586EA2B
:10025000010685FA47F5A3FA87F586FA47F6A5FA67
:1002600087F68EB9EED1F0BC01F0FF0102F0070273
:1002700032B110F8013B013A83EA010313B1F8D11E
:100280000020704701387047002D06BF35460338FF
:10029000073815F0010F07D1013015F4807F02BF38
:1002A000013015F4C03F0130F0BC0138704700BF89
:1002B00081F0004102E000BF83F0004330B54FEA17
:1002C00041044FEA430594EA050F08BF90EA020F84
:1002D0001FBF54EA000C55EA020C7FEA645C7FEA17
:1002E000655C00F0E2804FEA5454D4EB5555B8BF3A
:1002F0006D420CDD2C4480EA020281EA030382EAAB
:10030000000083EA010180EA020281EA0303362D3C
:1003100088BF30BD11F0004F4FEA01314FF4801C0F
:100320004CEA113102D0404261EB410113F0004F21
:100330004FEA03334CEA133302D0524263EB4303D8
:1003400094EA050F00F0A780A4F10104D5F1200E76
:100350000DDB02FA0EFC22FA05F2801841F10001D1
:1003600003FA0EF2801843FA05F359410EE0A5F1A5
:1003700020050EF1200E012A03FA0EFC28BF4CF0D6
:10038000020C43FA05F3C01851EBE37101F000458C
:1003900007D54FF0000EDCF1000C7EEB00006EEB99
:1003A0000101B1F5801F1BD3B1F5001F0CD3490823
:1003B0005FEA30004FEA3C0C04F101044FEA44527A
:1003C00012F5800F80F09A80BCF1004F08BF5FEA01
:1003D000500C50F1000041EB045141EA050130BDE1
:1003E0005FEA4C0C404141EB0101013C28BFB1F5F3
:1003F000801FE9D291F0000F04BF01460020B1FA3E
:1004000081F308BF2033A3F10B03B3F120020CDA10
:100410000C3208DD02F1140CC2F10C0201FA0CF0EE
:1004200021FA02F10CE002F11402D8BFC2F1200C53
:1004300001FA02F120FA0CFCDCBF41EA0C01904009
:10044000E41AA2BF01EB0451294330BD6FEA040452
:100450001F3C1CDA0C340EDC04F11404C4F120023D
:1004600020FA04F001FA02F340EA030021FA04F34F
:1004700045EA030130BDC4F10C04C4F1200220FAA6
:1004800002F001FA04F340EA0300294630BD21FAE4
:1004900004F0294630BD94F0000F83F4801306BFAA
:1004A00081F480110134013D4EE77FEA645C18BF9E
:1004B0007FEA655C29D094EA050F08BF90EA020F35
:1004C00005D054EA000C04BF1946104630BD91EA2D
:1004D000030F1EBF0021002030BD5FEA545C05D130
:1004E0004000494128BF41F0004130BD14F580046F
:1004F0003CBF01F5801130BD01F0004545F0FE41E3
:1005000041F470014FF0000030BD7FEA645C1ABF17
:10051000194610467FEA655C1CBF0B46024650EA4E
:10052000013406BF52EA033591EA030F41F400217A
:1005300030BD00BF90F0000F04BF0021704730B500
:100540004FF4806404F132044FF000054FF00001D5
:1005500050E700BF90F0000F04BF0021704730B596
:100560004FF4806404F1320410F0004548BF40426B
:100570004FF000013EE700BF42004FEAE2014FEAC0
:1005800031014FEA02701FBF12F07F4393F07F4F9B
:1005900081F06051704732F07F4208BF704793F09E
:1005A0007F4F04BF41F40021704730B54FF46074B1
:1005B00001F0004521F000411CE700BF50EA0102B4
:1005C00008BF704730B54FF000050AE050EA01025D
:1005D00008BF704730B511F0004502D5404261EBCD
:1005E00041014FF4806404F132045FEA915C3FF40E
:1005F000D8AE4FF003025FEADC0C18BF03325FEAAB
:10060000DC0C18BF033202EBDC02C2F1200300FA5B
:1006100003FC20FA02F001FA03FE40EA0E0021FA80
:1006200002F11444BDE600BF70B54FF0FF0C4CF46E
:10063000E06C1CEA11541DBF1CEA135594EA0C0F20
:1006400095EA0C0F00F0DEF82C4481EA030621EA5B
:100650004C5123EA4C5350EA013518BF52EA033596
:1006600041F4801143F4801338D0A0FB02CE4FF048
:100670000005E1FB02E506F00042E0FB03E54FF078
:100680000006E1FB03569CF0000F18BF4EF0010E70
:10069000A4F1FF04B6F5007F64F5407404D25FEA6C
:1006A0004E0E6D4146EB060642EAC62141EA55511F
:1006B0004FEAC52040EA5E504FEACE2EB4F1FD0C61
:1006C00088BFBCF5E06F1ED8BEF1004F08BF5FEADF
:1006D000500E50F1000041EB045170BD06F0004691
:1006E00046EA010140EA020081EA0301B4EB5C043E
:1006F000C2BFD4EB0C0541EA045170BD41F4801136
:100700004FF0000E013C00F3AB8014F1360FDEBF5A
:10071000002001F0004170BDC4F10004203C35DA36
:100720000C341BDC04F11404C4F1200500FA05F3B9
:1007300020FA04F001FA05F240EA020001F000425A
:1007400021F0004110EBD37021FA04F642EB0601D0
:100750005EEA430E08BF20EAD37070BDC4F10C04FA
:10076000C4F1200500FA04F320FA05F001FA04F2BE
:1007700040EA020001F0004110EBD37041F10001AA
:100780005EEA430E08BF20EAD37070BDC4F12005B5
:1007900000FA05F24EEA020E20FA04F301FA05F21D
:1007A00043EA020321FA04F001F0004121FA04F2C5
:1007B00020EA020000EBD3705EEA430E08BF20EA95
:1007C000D37070BD94F0000F0FD101F000464000CF
:1007D00041EB010111F4801F08BF013CF7D041EA51
:1007E000060195F0000F18BF704703F00046520055
:1007F00043EB030313F4801F08BF013DF7D043EA26
:100800000603704794EA0C0F0CEA135518BF95EADB
:100810000C0F0CD050EA410618BF52EA4306D1D162
:1008200081EA030101F000414FF0000070BD50EA81
:10083000410606BF1046194652EA430619D094EA0B
:100840000C0F02D150EA013613D195EA0C0F05D1F5
:1008500052EA03361CBF104619460AD181EA030149
:1008600001F0004141F0FE4141F470014FF0000001
:1008700070BD41F0FE4141F4780170BD70B54FF09C
:10088000FF0C4CF4E06C1CEA11541DBF1CEA13551C
:1008900094EA0C0F95EA0C0F00F0A7F8A4EB0504FE
:1008A00081EA030E52EA03354FEA013100F08880F5
:1008B0004FEA03334FF0805545EA131343EA1263BE
:1008C0004FEA022245EA111545EA10654FEA002673
:1008D0000EF000419D4208BF964244F1FD0404F52C
:1008E000407402D25B084FEA3202B61A65EB030588
:1008F0005B084FEA32024FF480104FF4002CB6EB45
:10090000020E75EB030E22BFB61A754640EA0C00C4
:100910005B084FEA3202B6EB020E75EB030E22BF04
:10092000B61A754640EA5C005B084FEA3202B6EB45
:10093000020E75EB030E22BFB61A754640EA9C0004
:100940005B084FEA3202B6EB020E75EB030E22BFD4
:10095000B61A754640EADC0055EA060E18D04FEA92
:10096000051545EA16754FEA06164FEAC30343EA32
:1009700052734FEAC2025FEA1C1CC0D111F4801FFF
:100980000BD141EA00014FF000004FF0004CB6E7F8
:1009900011F4801F04BF01430020B4F1FD0C88BF97
:1009A000BCF5E06F3FF6AFAEB5EB030C04BFB6EBA2
:1009B000020C5FEA500C50F1000041EB045170BD95
:1009C0000EF0004E4EEA113114EB5C04C2BFD4EBC2
:1009D0000C0541EA045170BD41F480114FF0000E46
:1009E000013C90E645EA060E8DE60CEA135594EAC2
:1009F0000C0F08BF95EA0C0F3FF43BAF94EA0C0FC5
:100A00000AD150EA01347FF434AF95EA0C0F7FF439
:100A100025AF104619462CE795EA0C0F06D152EA8D
:100A200003353FF4FDAE1046194622E750EA410671
:100A300018BF52EA43067FF4C5AE50EA41047FF482
:100A40000DAF52EA43057FF4EBAE12E74FEA4102E5
:100A5000B2F1E04324BFB3F5001CDCF1FE5C0DD91C
:100A600001F0004C4FEAC0024CEA5070B2F1004F66
:100A700040EB830008BF20F00100704711F0804F69
:100A800021D113F13872BCBF01F00040704741F42E
:100A900080114FEA5252C2F11802C2F1200C10FA32
:100AA0000CF320FA02F018BF40F001004FEAC12316
:100AB0004FEAD32303FA0CFC40EA0C0023FA02F3BA
:100AC0004FEA4303CCE77FEA625307D150EA013390
:100AD0001EBF4FF0FE4040F44000704701F0004060
:100AE00040F0FE4040F40000704700BF53B94AB9DF
:100AF000002908BF00281CBF4FF0FF314FF0FF3026
:100B000000F070B9ADF1080C6DE904CE00F006F804
:100B1000DDF804E0DDE9022304B070472DE9F04779
:100B2000089E0D4604460F46002B4AD18A42944641
:100B300065D9B2FA82F343B102FA03FCC3F1200291
:100B40009F4020FA02F217439C404FEA1C4E1FFAC6
:100B50008CF5B7FBFEF1220C0EFB117742EA07423F
:100B600001FB05F090420AD91CEB020201F1FF37AC
:100B700080F01C81904240F2198102396244121ABD
:100B8000A4B2B2FBFEF00EFB102244EA024400FBCA
:100B900005F5A5420AD91CEB040400F1FF3280F0F0
:100BA0000781A54240F204816444023840EA0140D2
:100BB000641B00211EB1DC400023C6E90043BDE8F0
:100BC000F0878B4208D9002E00F0ED800021C6E9A5
:100BD00000050846BDE8F087B3FA83F1002949D142
:100BE000AB4202D3824200F2F880841A65EB030222
:100BF00001201746002EE2D0C6E90047DFE702B920
:100C0000FFDEB2FA82F3002B40F090808A1A4FEA9E
:100C10001C471FFA8CFE0121B2FBF7F507FB1520DC
:100C2000220C42EA00420EFB05F0904208D91CEB70
:100C3000020205F1FF3802D2904200F2CB80454615
:100C4000121AA4B2B2FBF7F007FB102244EA0244E6
:100C50000EFB00FEA64508D91CEB040400F1FF3290
:100C600002D2A64500F2BB801046A4EB0E0440EA77
:100C700005409FE7C1F120078B4022FA07FC4CEAB0
:100C8000030C05FA01F420FA07F3FD404FEA1C4972
:100C90002343B5FBF9F81FFA8CFE09FB18551C0C11
:100CA00044EA054408FB0EF5A54202FA01F200FAF7
:100CB00001F00BD91CEB040408F1FF3A80F08880A6
:100CC000A54240F28580A8F102086444641B9DB2ED
:100CD000B4FBF9F309FB134445EA044403FB0EFE9D
:100CE000A64508D91CEB040403F1FF356CD2A645D8
:100CF0006AD9023B644443EA0843A3FB0295A4EB90
:100D00000E04AC42C846AE4656D353D056B1B0EBF3
:100D1000080264EB0E0404FA07F7CA40CC401743FC
:100D2000C6E9007418460021BDE8F087C3F1200130
:100D300002FA03FC20FA01F225FA01F19D402A4350
:100D40004FEA1C471FFA8CFEB1FBF7F007FB1015AA
:100D5000110C41EA054100FB0EF58D4204FA03F443
:100D600008D91CEB010100F1FF382FD28D422DD99B
:100D700002386144491B92B2B1FBF7F507FB15112C
:100D800042EA014205FB0EF1914208D91CEB020236
:100D900005F1FF3816D2914214D9023D6244521A2D
:100DA00045EA004138E73146304608E73946E6E68D
:100DB0001046FBE64845A9D2B9EB020865EB0C0EDC
:100DC000013BA3E74546EAE72B4694E74046D1E7D7
:100DD000D0467BE7023D624432E708460AE76444B6
:100DE000023842E7704700BF0149002008F04CB8C4
:100DF000AD1E000808B5642006F040FAFBE70000CD
:100E000010B594B01022002102240AA82AF056FC42
:100E10001422002103A82AF051FC1D4B192108A817
:100E20001A6C42F080521A641B6C03F080530193D9
:100E3000019B184B1A6842F440421A6001221B6859
:100E400003F440430293029B4FF48033CDE908231F
:100E50004FF48003CDE90E434FF4D873CDE912442B
:100E6000CDE9101305F0D0F904F072FE0F23002035
:100E70000721CDE903344FF4A053CDE905034FF426
:100E8000805303A8079305F0A7FB14B010BD00BF63
:100E900000380240007000402DE980489BB0BFF34D
:100EA0004F8FBFF36F8FC64A0021C2F85012BFF3B5
:100EB0004F8FBFF36F8F536943F400335361BFF318
:100EC0004F8FBFF36F8FC2F88410BFF34F8FD2F8EC
:100ED000803043F6E074C3F3C900C3F34E335B01C3
:100EE00003EA0406014646EA81750139C2F86052F8
:100EF000F9D2203B13F1200FF2D1BFF34F8F53698A
:100F000043F480335361BFF34F8FBFF36F8F4FF0C4
:100F1000100803F0E5FC00210DA84246002401263C
:100F20002AF0CCFB03F076FD4FF01042A54B0DA844
:100F3000ADF834604FF0030B10944FF4805AA24D7B
:100F40004FF00409A14FCDE90E2303F081FD1723D3
:100F50000DA88DF835608DF83C308DF8426003F0B7
:100F600077FD042003F064FDFFF74AFF14222146B9
:100F70000DA82AF0A3FB964B414696481A6B42EA0D
:100F800008021A631A6B02EA08020292029A1A6BAA
:100F900042F002021A631A6B02F002020392039AF1
:100FA0001A6B32431A631A6B32400492049A1A6B1A
:100FB00042F040021A631A6B02F040020592059A51
:100FC0001A6B42F400721A631A6B02F400720692F2
:100FD000069A1A6B42F008021A631A6B02F00802B2
:100FE0000792079A1A6B42F480621A631A6B02F432
:100FF00080620892089A1A6B42F020021A631A6BF8
:1010000002F020020992099A1A6B42F480721A6364
:101010001A6B02F480720A920A9A1A6B42F08002EA
:101020001A631A6B02F080020B920B9A1A6B42F051
:1010300004021A6322461B6B03F004030C930C9BFF
:1010400004F058F832460821634804F053F8324659
:101050004FF48051614804F04DF82246C0216048A9
:1010600004F048F8224640215E4804F043F80DA9F8
:101070005848CDF840B00F94CDE90D8603F0B2FE8C
:1010800008230DA95448CDE90D36CDE90F4403F0EE
:10109000A9FE0DA95148CDE90DA6CDE90F4403F0F5
:1010A000A1FEC0220DA94E48CDE90D26CDE90F4B7A
:1010B00003F098FE40220DA94A48CDE90D26CDE95E
:1010C0000F4B03F08FFE4848484984800160066258
:1010D000C0E9054403F0E8FC45492846C5E90A444F
:1010E000C5E90C44C5E90014C5E9024403F079FDE3
:1010F000314628463F4D03F02DFE3F494FF4C07264
:101100003846BC60FC61BC62C7E900144021C7E9F5
:1011100005124FF400620DA9C7E9082A4FF0020A30
:101120000722C7E90398CDE90DA2CDE90F92CDE9D9
:1011300011BACDF84CA005F0A5FD29464FF6FF7277
:1011400038460194C5E90068C5E9026405F0BAFDB6
:10115000304603F0E9FB29464FF6FF723846C5E9F1
:1011600000A8C5E9026405F0ADFD082329464FF645
:10117000FF723846C5E900B8C5E9023405F0A2FDA2
:101180004FF40C734FF6FF72294601933846019BCA
:1011900040F2352BAE60EB60C5E9009805F092FD9A
:1011A00040F22B713846154D05F0ABFD43F2D202EB
:1011B0004FF02043642028271A6003F0B5FB1FE09E
:1011C00000ED00E01B0000037C0100200403002070
:1011D0000038024000040240002802400020024083
:1011E0000008024000180240580100200030024070
:1011F00000B0024040010020400100A0BC010020DE
:10120000484B49482C62C5E900032846C5E9024617
:10121000C5E90444C5E9064404F094F8214628468B
:1012200004F0B2FA21462846404D04F0D3FA3422A5
:1012300021460DEB02002AF041FA3D4B4FF0350CF0
:1012400040F2152E2846AC862C6185F83640C5E95B
:1012500000340923C5E905730B23C5E907C340F230
:101260001B13C5E909E340F21D13C5E90244C5E9B2
:101270000BB304F057FBFF214FF480604FF4F07282
:101280004FF488730D94ADF8644018938DF8664060
:10129000CDE912140521CDE914014FF04041284653
:1012A0001825CDE91612CDE90E240DA92246CDE967
:1012B000103A04F002FC1F481F4B0462C0E90036DC
:1012C0004FF4A063C0E90298C0E90453C0E90644A2
:1012D00004F058FD03F082F903F0C6F85C2003F037
:1012E00087FB00F063FB00F08DFB00F08AFB05F04C
:1012F00037FF124A2146124805F06CFF114B124A83
:1013000021461860114805F065FF114B114A21462E
:101310001860114805F05EFF104B186005F03AFFA9
:10132000FEE700BF68474020005C0040100200203C
:1013300000680140B8020020001000A0FCC50208AF
:10134000F50D000854010020D8C50208131A000842
:101350005001002020C60208953200083803002002
:101360000268034B9A4201D103F0CCBA704700BF28
:1013700000100040704700000D4B82B00F216FF04D
:1013800001001A6C42F080521A641A6C02F080520A
:101390000092009A5A6C42F480425A6400225B6CBC
:1013A00003F480430193019B02B003F0E1BA00BF54
:1013B00000380240026882B0084B9A420BD1D3F841
:1013C000302803F5006342F480521A631B6B03F468
:1013D00080530193019B02B0704700BF0030024070
:1013E0000E4B07B502689A4215D1A3F5F0430521CB
:1013F0005A201A6B42F400021A6300221B6B03F49A
:1014000000030193019B03F0B3FA5A2003B05DF887
:1014100004EB03F0DFBA03B05DF804FB00B0024058
:1014200010B5A8B004461422002102A82AF046F9FB
:101430008422002107A82AF041F92268174B9A421A
:101440002AD14FF4803307A8079305F091F908B12A
:10145000FFF790FF124C4FF4C07201211148236B2B
:1014600043F080032363236B03F080030093009B0E
:101470001223CDE902230323CDE90413042302A997
:10148000069303F0AFFC236C43F400032364236C46
:1014900003F400030193019B28B010BD005C0040E1
:1014A00000380240001C0240026808B5094B9A420D
:1014B0000FD1094A80210948136C23F400031364F7
:1014C00003F072FD4FF480710448BDE8084003F05A
:1014D0006BBD08BD005C004000380240001C0240AB
:1014E00070B5ACB004461422002106A82AF0E6F834
:1014F000842200210BA82AF0E1F82268484B9A4286
:1015000040F08C800823052001240B934FF4C07316
:1015100010930223CDE911304FF400330BA8CDE92D
:10152000154305F025F908B1FFF724FF3D4B0024D2
:1015300002250E265A6C06A93B4842F080625A6486
:101540005A6C02F080620092009A1A6B42F010020C
:101550001A631A6B02F010020192019A1A6B42F49C
:1015600000721A631A6B02F400720292029A1A6BEA
:1015700042F480621A631A6B02F480620392039A47
:101580001A6B42F040021A631A6B02F04002049296
:10159000049A1A6B42F480721A631B6B03F4807313
:1015A0000593059B1023CDE90635CDE908440A963D
:1015B00003F018FC4EF6FF7306A91C480A96CDE905
:1015C0000635CDE9084403F00DFCF72306A91848B9
:1015D0000A96CDE90635CDE9084403F003FC4FF443
:1015E000805306A91348CDE906350923CDE90844FF
:1015F0000A9303F0F7FB4FF4464306A90E480A96F8
:10160000CDE90635CDE9084403F0ECFB582022462D
:10161000052103F0ADF9582003F0DCF92CB070BDC2
:1016200000680140003802400010024000240240DF
:10163000002802400018024000200240142200212D
:101640002DE9F0418AB004460DEB02002AF036F88D
:1016500022682C4B9A4251D12B4B02250324092698
:101660009A6B4FF0040805A9284842F002020027AF
:101670009A639A6B02F002020192019A1A6B42F08D
:1016800010021A631A6B02F010020292029A1A6B8D
:1016900042F002021A631A6B02F002020392039AEA
:1016A0001A6B42F008021A631B6B03F008030493E1
:1016B000049BCDE90585CDE9084603F093FB402363
:1016C00005A91348CDE905350A23CDE90774099327
:1016D00003F088FB05A90E480996CDE90585CDE9FB
:1016E000077403F07FFB4FF4605305A9094809967E
:1016F000CDE90535CDE9077403F074FB0AB0BDE808
:10170000F08100BF001000A000380240001002402D
:1017100000040240000C0240026808B50B4B9A42DC
:1017200013D10B4A04210B48936B23F002039363FC
:1017300003F03AFC4421084803F036FC4FF46051B2
:101740000648BDE8084003F02FBC08BD001000A00B
:10175000003802400010024000040240000C024029
:10176000F0B5002387B00393294B1E68002E4DD19E
:101770000122022703250C241A6001A9254B2648C3
:101780009A6B42F001029A639B6B03F00103009392
:10179000009B4FF68373CDE90454CDE9013703F084
:1017A00021FB48F2331301A91C480594CDE9013708
:1017B000CDE9036503F016FB4CF2037301A9184849
:1017C0000594CDE90137CDE9036503F00BFB4FF636
:1017D0003F0301A913480594CDE90137CDE903651D
:1017E00003F000FB282301A90F480594CDE9013738
:1017F000CDE9036503F0F6FA082301A90B48059427
:10180000CDE90137CDE9036503F0ECFA07B0F0BD8F
:101810003C03002000380240001002400018024043
:10182000000C024000140240001C0240000802406C
:10183000214B1A6C42F0100270B51A6488B01B6C10
:10184000054601A903A803F010030293029B04F0CC
:1018500071FF069B4BBB04F05DFF184E184B3360C5
:1018600040F2E733F360174BB0FBF3F3013B304634
:10187000736000233361B360B36105F0B3FB0446CA
:1018800080B9304605F056FA044658B9362003F0C0
:10189000A1F80F2D0DD822462946362003F068F80E
:1018A000094B1D60204608B070BD04F033FF4000B6
:1018B000D3E70124F6E700BF0038024040030020D0
:1018C0000010004040420F003C0000207047FEE73F
:1018D000FEE7FEE7FEE77047014805F06DBA00BF7E
:1018E00040030020014804F08BB800BF1002002024
:1018F000014803F0A4B900BF7C010020012070471B
:1019000008B529F08FFF162303604FF0FF3008BDA4
:1019100008B529F087FF16230360FEE770B50D4672
:1019200014460E46731B9C4201DC204670BDAFF38B
:10193000008006F8010BF5E770B50D4614460E461B
:10194000731B9C4201DC204670BD16F8010BAFF3FF
:101950000080F5E74FF0FF3070474FF40053002050
:101960004B60704701207047002070470B4A0346C8
:10197000116810B509B90A491160106809490A4C83
:101980000344091B8B4206D929F04CFF0C2303604A
:101990004FF0FF3010BD1360FCE700BF8C03002048
:1019A000E062012000000520000A000070470000EE
:1019B000DFF834D0002103E00C4B5B584350043176
:1019C0000B480C4B42189A42F6D30B4A02E0002314
:1019D00042F8043B094B9A42F9D302F097FE29F0F2
:1019E00027FFFFF759FA7047000005205811030838
:1019F000000000202401002024010020E0620120DA
:101A0000FEE7704708B501F0F7F8BDE8084001F0BF
:101A100083B801F0F3B84068704741607047000038
:101A20004FF0E022D2F8FC3D43F08073C2F8FC3D59
:101A3000054B064AD3F8B01F0A43C3F8B02F1A6803
:101A400042F001021A607047001000E055CEACC5AC
:101A5000511A01EB5301B1FBF3F07047014B586889
:101A6000704700BF001000E0704710B504460C211D
:101A700029F03BFB204610BD036810B51B690446E6
:101A800031B19847A26863689B1A1844606010BD22
:101A90009847A060FBE70000024B7020024A1360E9
:101AA000DB6818471000002090030020704710B535
:101AB0000446042129F019FB204610BD73B50E4ED3
:101AC0000D461446336813B9002002B070BD1B697F
:101AD000702098470028F7D03368702001AA0DF1D4
:101AE00006015B699847BDF8043001202B60BDF802
:101AF00006302360E9E700BF900300207FB5012393
:101B00008DF817204FF47A72CDE901320DF11702EA
:101B100000920A460146054803F07EFC10B10348D6
:101B200003F061FC07B05DF804FB00BFBC010020BE
:101B30007FB500230A464FF47A718DF817300123E0
:101B4000CDE901310DF1170100910146054803F07F
:101B50003DFD10B1034803F046FC9DF8170007B0A7
:101B60005DF804FBBC010020032823D8DFE800F067
:101B7000020B131A104B102110481A68B2FA82F2A5
:101B8000520903F0B7BA0C4B40215A68B2FA82F2FC
:101B900052090B48F5E7084B80219A68B2FA82F2A5
:101BA0005209F6E7044B40210648DA68B2FA82F29D
:101BB0005209E6E7704700BF94030020000402408A
:101BC0000008024000180240032823D8DFE800F094
:101BD000020B131A104B102110481A68003A18BF54
:101BE000012203F087BA0C4B40215A68003A18BF13
:101BF00001220B48F5E7084B80219A68003A18BF8C
:101C00000122F6E7044B40210648DA68003A18BF83
:101C10000122E6E7704700BF940300200004024061
:101C2000000802400018024003280FD8DFE800F047
:101C30000206090B1021064803F061BA402105484D
:101C4000FAE78021FBE740210348F5E7704700BF32
:101C500000040240000802400018024008B50328B2
:101C600013D8DFE800F0020A0D0F1021084803F036
:101C70003BFA431E5842584108BD40210548F6E74B
:101C80008021FBE740210448F1E70020F1E700BF95
:101C900000040240000802400018024070B5084DE0
:101CA00000240126E0B2FFF7D9FF18B12B68012B01
:101CB00018BF2E6001340435052CF3D170BD00BF70
:101CC00094030020012380F8781080F87930704761
:101CD0000020704741640039024B18BF0121197080
:101CE000704700BFAF56012000207047836B0BB1D7
:101CF0000846184770474FF6FF7070474068036802
:101D00009B6918477047000038B5044601F080F819
:101D1000084923682046084DD3F88C3098470023A3
:101D2000284684F84A30FFF77BFE0123256184F8BA
:101D3000703038BD000000C0A403002001F01EB8C0
:101D400001F022B870B501F08DF810490023C1F8F8
:101D50008430BFF34F8FD1F8803043F6E074C3F383
:101D6000C900C3F34E335B0103EA0406024646EAA8
:101D70008275013AC1F87452F9D2203B13F1200F59
:101D8000F2D1BFF34F8FBFF36F8F70BD00ED00E056
:101D900001F06AB800F0CEBF01F084B901F08CB94F
:101DA00000F0D2BF10B5044616F0FAF823682046BA
:101DB000D3F8AC30BDE81040184715F04FBB10B554
:101DC00004467C2129F091F9204610BD90F87A3024
:101DD0001BB1406803681B6818471846704700002D
:101DE00090F834100D4B10B590F878401A788C426A
:101DF00009D03AB90A490B4A088814881080012290
:101E00000C801A7010BD002AFCD0064A04491488C0
:101E100008880C8010800022F3E700BFA85601203C
:101E2000A6560120A456012070B50D46194635B9B5
:101E3000094B40F2D221094A094829F085F9C0E945
:101E40000F52003A074B18BF01221A700368BDE811
:101E50007040D3F88C30184784C60208BCC602080C
:101E60000AC70208AE56012008B5094B1B888B42F1
:101E700003D8084B1B88934205D9074B9E21074A7C
:101E8000074829F061F9074B1980074B1A8008BDF4
:101E9000A4560120A65601204FC70208B2C7020867
:101EA0000AC70208AA560120AC560120014608B50F
:101EB000034B186801B1012116F08CF8012008BD10
:101EC000B0560120034B00225A609A60024A1A6001
:101ED000704700BFA40300204CC602080121002265
:101EE00008B5084605F082FA0A4B186028B90A4B73
:101EF00028210A4A0A4829F027F900220421012052
:101F000005F03AFB074B186018B9074B2C21034A20
:101F1000F0E708BDB4030020D0C8020819C90208C0
:101F200048C90208B0030020B3C90208024B4FF0B1
:101F3000FF31186805F0B0BAB4030020014B1868EF
:101F400005F0E4BAB4030020024B0021186805F044
:101F5000A3BA00BFB4030020FFF7F0BF002303487B
:101F600003491A46006805F04DBB00BFB0030020CE
:101F70000400002013B50023074C01A91A4620686D
:101F800005F082FB4FF0FF33002201A9206805F025
:101F90007BFB02B010BD00BFB003002003685B6C88
:101FA00018470120704703689B6A18470D4B82B0A1
:101FB0001A6B42F400021A631A6B02F400020192D7
:101FC000019A1A6942F400021A611A6922F40002A5
:101FD0001A61054B054A1A614FF08062044B9A6002
:101FE00002B07047003802407C0100203520000814
:101FF00000E100E040F2EF3070470000054B4FF089
:1020000080620360044BC3F88820BFF34F8FBFF397
:102010006F8F704770CB020800E100E010B50446F6
:102020004FF45A61FFF7EAFF204629F05EF8204698
:1020300010BD0000024B1B68586803685B691847B5
:10204000B056012070B504460A4B0C3000262546D8
:10205000602260602672667245F8203B294616F0C1
:10206000F5F804F55A63EE602435AB42FBD1204607
:1020700070BD00BF70CB020808B50B290BD8DFE894
:1020800001F01206100A0A0A0A08080808080120C6
:1020900008BD0520FCE7054B6521054A054829F0E8
:1020A00053F80020F4E70220F2E700BFF5C9020868
:1020B00010CA02085ACA020808B50A2909D8DFE876
:1020C00001F010060E0808080806060606000120A2
:1020D00008BD054B8621054A054829F035F8002042
:1020E000F6E70220F4E700BFF5C90208C3CA0208F8
:1020F0005ACA02082DE9F84391F81D800C4607469C
:102100004146FFF7B9FF94F81E9005463846494608
:10211000FFF7B2FF494606463846FFF7CDFFA18AD2
:10212000628B434B521A1A649A61228B521A1A61BB
:10213000E28A586342EA014220695A646268D863BD
:10214000DA602768802F28D0227F0FD8202F65D013
:10215000402F63D0042F1AD045EA0265344BC8459E
:1021600045F40035DD615FD0324A44E0B7F5807F49
:1021700004D0B7F5007FEFD12F4900E02F4941EAA5
:102180000262DA61E2681A625E62586132E045EA30
:10219000026242F40032DA61F6E7A7683A1DDA62B9
:1021A000217F3A7845EA016545F40035DD615E62DC
:1021B000586142B1012A21D0214B4FF48871214A44
:1021C000214828F0C1FFDA69798822F47F42013979
:1021D00022F0100242EA01220121DA61144BDA698D
:1021E00042F02002DA61DA699206FCD410229A6089
:1021F0000029B9D0154A1A60BDE8F883DA69FF39B9
:10220000788822F47F4218BF0121013822F01002A1
:1022100042EA002242F01002DA61DFE745EA026298
:10222000034B42F40032B6E740F20122E3E700BF7D
:1022300000B0024001020100090002000A00020091
:102240000ECB020828CB02085ACA0208010202007B
:1022500038B50C46897FFFF72FFF174BA58AE28A16
:10226000586342EA054221695A64628BD963521B62
:102270001A642568082D0ED19A611A6158620F4AB6
:10228000207F42EA0062DA61E2681A620C4A596110
:10229000D9601A6038BD0022D8611A61E1680A0A63
:1022A0004809C1F3C40102F4784200F4FC6002431F
:1022B0000A439A63034AECE700B0024009000100B8
:1022C00001020200010203004069704790F84400D7
:1022D0007047036B23B9C06A003818BF01207047EC
:1022E0000120704780687047043010B50C460FC855
:1022F00084E80F0010BD704708B5034A40F2122170
:10230000024B034828F020FFB8CB0208ABE40208D8
:1023100013CC020810B50446482128F0E6FE2046FA
:1023200010BD00002DE9F0431C46436BADF51F7D49
:1023300005460E461746002B37D0002203A8DFF8CB
:10234000A890CDE901320DF0FFFA4FF4F47250215C
:10235000249024A807F047FA3A46314624A808F00A
:10236000C3F9012124A807F041FB022324A88DF81A
:10237000D83007F0DFFBBDF898322B9ABDF89C628D
:102380009342A89F28BF1346419A964203EB430805
:10239000A7EB430728BF1646479B9E4209D824A8AF
:1023A00007F046FB24A807F06BFA0DF51F7DBDE88A
:1023B000F083012201A924A807F005FC6B6B03EB55
:1023C0000800984201D83C44E6E759789A78C90059
:1023D00009EA022201F4FC610A4313F8031B42EAF2
:1023E000D10224F8022BECE700F8FFFF0A4A026052
:1023F0000022C0E90522C0E90722C0E90922C0E99C
:102400000B22C0E90D12C0E90F2280F84420C0E978
:102410000322C0E90122704710CF020810B40C4615
:1024200011461A46036B3BB1036C806BE41A2044DF
:102430005DF8044B29F04AB9C06AF8E7036B10B5A0
:1024400073B1036C826BC91A5318525C98785C782C
:102450000004DB7840EA0420104340EA036010BD2A
:10246000C36A5858FBE7036B43B1036CC91A836B0B
:102470005A18585C527840EA02207047C36A585A8A
:102480007047000070B50446006B0D461646D8B183
:10249000E36B934208D209230D4A65210D4884F865
:1024A00044300D4B28F050FE0368DB689847206BE2
:1024B0003246A16B03681B69984710B90D2384F855
:1024C0004430A06B256470BDE06A0844FBE700BFA0
:1024D0009BCC020813CC020888CC02082DE9F843F3
:1024E000436904462BB9234BAA21234A234828F0E9
:1024F0002BFE08228169FFF7C5FFA16943F2300670
:1025000046F2643704312046FFF798FFA369184468
:10251000A36A00F108029A4206D3012300206361F6
:10252000236AA361BDE8F883636909300822013397
:1025300020F0010120466361A161FFF7A3FFD4F8F9
:10254000189020464946FFF78EFF09F102018046A8
:102550002046FFF788FF09F1040105462046FFF7F2
:102560006DFFB045D2D1BD42D0D10028CED00120E0
:10257000D8E700BFDDCC020826CD020813CC020844
:102580002DE9F04F0446ADF51F7D8A461646816958
:1025900008229846FFF776FFA7692046391DFFF706
:1025A0004DFF07F10801024605462046FFF76AFF86
:1025B000636B074633B93C4B40F2AB113B4A3C4896
:1025C00028F0C2FD002203A8CDE901320DF0BCF9CC
:1025D0004FF4F4725021249024A807F004F92A46FD
:1025E000394624A808F080F8012124A807F0FEF954
:1025F000022324A88DF8D83007F09CFABAF90250CB
:10260000479BAB4229D3BAF900904FEA4808BAF881
:1026100004702B9B08FB05664F44BAF80250DFF8A4
:1026200094B03FB29F4228BF1F46BAF8063009EB6C
:10263000490A1D44419B2DB29D4228BF1D46479B20
:10264000AB4210D324A807F0F3F924A807F018F937
:1026500001200DF51F7DBDE8F08F012201A924A8FE
:1026600007F0B1FACCE7012201A924A807F0ABFAE0
:10267000626B49465244B94202F1030201D3464417
:10268000DDE712F8020C12F8013CC0000BEA03234C
:1026900000F4FC60034312F8030C43EAD00326F86D
:1026A00011300131E7E700BF59CD0208AFCD020874
:1026B00013CC020800F8FFFF0129036838BF01218D
:1026C000DB6A70B50D4604469847A84204D22368D9
:1026D0002046DB6A984705466B1EE66910222046B5
:1026E00006EB031606F10801FFF7CCFE06F1100118
:1026F0002046FFF7A3FE236A043B0344C4E90553C5
:1027000070BD00002DE9F34100210446482281619B
:1027100080F84410FFF7B6FEA7690423634A3946E0
:102720002046FFF77BFE40B10323614AF22184F883
:102730004430604B604828F007FD07F1080104238E
:102740005E4A2046A161FFF769FE30B10423584A72
:10275000FA2184F844305A4BECE707F10C010423CA
:10276000584A2046A161FFF759FE064638B10523B5
:102770004F4A40F2011184F84430534BDAE707F135
:1027800010012046FFF75AFE054620B94F4B40F294
:102790000711474ACEE707F1140804234C4A2046A4
:1027A0004146FFF73BFE00284BD0062384F8443017
:1027B0000423484A07F118012046FFF72FFE00289E
:1027C00041D0072384F844304544434F0C2220462F
:1027D0002946FFF757FE05F1080604233A4620462E
:1027E0003146FFF71BFE94F8443000284AD0002BF6
:1027F0004AD1A36A291DAB424AD805F10C03291D11
:102800002046A3610191FFF719FE304401996062EF
:102810002046FFF713FE0644042220463146FFF708
:1028200031FE04232D4A31462046FFF7F7FD0028EC
:1028300039D10123E6616361A369236202B0BDE877
:10284000F0810126B4E7002EBED007F1200120461A
:10285000FFF7F4FD4FF47A7307F13001B0FBF3F0AA
:1028600060602046FFF7EAFD07F14001A0602046C6
:10287000FFF7E4FD07F14401E0602046FFF7DEFDCD
:102880002061A1E7002BB8D00A2384F84430D5E7B3
:102890002046FFF7D3FD08300C2205442046294688
:1028A000FFF7F0FD97E70B23EFE700BF09CE020823
:1028B00027CE02080ECE020813CC020854CE02081E
:1028C00059CE020871CE020876CE02088CCE0208DC
:1028D00098CE02089DCE0208A2CE0208A7CE02081A
:1028E000C0E90A2100220263FFF70CBF10B50023E4
:1028F00004460846E3620B6821639B689847A06220
:102900002046BDE81040FFF7FDBEF0B4BDF8105002
:10291000BDF814602AB123B1CDE90456F0BCFFF72D
:1029200001BDF0BC704700002DE9F04F99464369A6
:1029300085B004460F4690462BB92A4B77212A4A88
:102940002A4828F001FC08228169FFF79BFDA6694F
:1029500020463146FFF787FDB11C83462046FFF72E
:1029600082FD311D82462046FFF768FD06F1080111
:10297000A36A054642189A4227D243F230039B4588
:1029800017D146F264339A4513D190B10246A16142
:102990002046FFF777FD0E9B01462A462046CDF8DC
:1029A0000080CDE901933B46FFF7AFFF6369013338
:1029B0006361A3692B448DB1A361A369626A01338A
:1029C00023F001039342A3610AD10120236A6061CD
:1029D000A36180F0010005B0BDE8F08F0833EBE79C
:1029E0000020F6E7DDCC0208ACCE020813CC0208CA
:1029F000012070470C2070470C2303FB01000830B6
:102A000070470C2303FB010008307047012070471A
:102A100040F22C70704740F22C7303FB0100083029
:102A2000704740F22C7303FB01000830704701200F
:102A300070471020704700EB01100830704700EB22
:102A4000011008307047084600F03EBE034B10B539
:102A50000446036013F096FF204610BDB8CF02086D
:102A600010B50446FFF7F2FF1421204628F03DFB85
:102A7000204610BD034B10B50446036013F082FFDF
:102A8000204610BD84CF020810B50446FFF7F2FFC0
:102A900040F23471204628F028FB204610BD00008B
:102AA000034B10B50446036013F06CFF204610BDC5
:102AB00050CF020810B50446FFF7F2FF1821204658
:102AC00028F013FB204610BD084B10B504460360E8
:102AD00000F5EC60FFF7BAFF04F12C00FFF7CAFF26
:102AE00004F11400FFF7DCFF204610BDECCF020814
:102AF00008B50248FFF7E8FF08BD00BFBC0300208F
:102B000010B50446FFF7E0FF40F6D401204628F058
:102B1000ECFA204610BD00002DE9F34100F052FC14
:102B20000024054600F052FC234601462246284672
:102B300000941AF077FE254B254A2046254D1A6051
:102B400001F070FB24481AF0D5FD2B68BFF35B8FB2
:102B5000DB0735D4284628F0CAFA88B31F4C204B2F
:102B600004F5EF6604F1140004F12C0804F5EC6799
:102B700023606060C4F80880E760266113F004FFFA
:102B8000184B4046636113F0FFFE174B3846E36273
:102B900013F0FAFE154B04F27470C4F8603701F0BC
:102BA000BDFB224604F27471304601F0ADFB3046A5
:102BB00000F08AFD0E4828F0E5FA284628F0A3FA2E
:102BC0000C4802B0BDE8F041FFF79EB80C57012059
:102BD000B01A0020B803002008000020BC03002029
:102BE000ECCF020850CF020884CF0208B8CF020809
:102BF000F12A0008341A002070470000014814F040
:102C000096BC00BF341A002070B5224E224B234CD4
:102C10003046234D2360FFF715FA28461FF0DCF8F5
:102C2000204B00224FF480711F481A8683F85820E9
:102C30005A6683F870205A67DC60C3E912121B4998
:102C4000C3E91A121A4999671A490B604FF4F071D7
:102C50000180194801804FF488711848C3E90422A3
:102C6000C3E90622C3E90822C3E90A22C3E90E2206
:102C7000C3E91022C3E91422C3E91722C3E901659D
:102C800001800F4883F8342001800E490A700E4AF3
:102C90001A6070BD940C002074C60208900C0020CD
:102CA000B41A0020341A0020A456012001000001AB
:102CB00000000101B0560120AA560120A6560120AD
:102CC000AC560120A856012000C802080148FFF7B1
:102CD00095B900BF940C0020002070478180704798
:102CE000C1807047018170474181704770477047CC
:102CF00070477047704710B4C4880368121B8488FB
:102D00005B6D091B12B25DF8044B09B218474FF610
:102D1000FF7383814FF0FF3303621368C361106058
:102D2000704790F825201AB190F8242002B118605D
:102D300070470000034B902283F85A2383F85823EE
:102D4000704700BF00E100E0094A0A49D3680A4819
:102D5000C3F30A03013B9BB20B801169C1F30A0163
:102D6000013901801364536B43F0010353637047CF
:102D7000006801403A1B0020381B0020014BD3F8AB
:102D8000AC00704700680140024B0122C3F8AC1050
:102D90005A62704700680140124A5369DB0370B5FC
:102DA0001ED50023C2F88430BFF34F8FD2F8803095
:102DB00043F6E074C3F3C900C3F34E335B0103EA87
:102DC0000406014646EA81750139C2F87452F9D207
:102DD000203B13F1200FF2D1BFF34F8FBFF36F8F62
:102DE00070BD00BF00ED00E070473823002201FBFA
:102DF0000333C25490F838300BB9036C83647047C6
:102E0000704710B50446582128F06FF9204610BDD0
:102E100038B5044614F077FB23685D6E17F0B4FBF9
:102E200001462046A8472368084A2046D3F8885020
:102E30000023A2F57F31A847054B064A5A60064A8F
:102E40001A649A644FF4FF225A6438BD00F807C030
:102E500004230020BC22002000F40BC014F03ABB75
:102E600014F044BB14F000BB14F06FBC90F82520A4
:102E700012B103685B6918477047000008B531B1AB
:102E8000044B40F29711044A044828F05DF990F889
:102E9000390008BDF8CF02080CD0020899D1020809
:102EA00010B531B1064B40F29111064A064828F0A0
:102EB0004BF9406811460368BDE810401B6B18478A
:102EC000F8CF0208DBD1020899D1020808B529B170
:102ED000034B7A21034A044828F036F9006908BDFB
:102EE000F8CF02088CD3020899D1020808B529B19D
:102EF000054B8321054A064828F026F94161816087
:102F0000C0E9063208BD00BFF8CF020844D5020868
:102F100099D1020810B5044629B1274BA421274AAC
:102F2000274828F011F9052A34D8DFE802F00329F0
:102F30002F34393E406803681B69984750B34FF0FF
:102F4000FF31606D04F0F8F90023012294F83E107F
:102F500084F83B3084F83920A360636101B12262B8
:102F600084F83E306362E36A2BB90123206D84F854
:102F70003A3004F0CBFA606DBDE8104004F00CBAB2
:102F8000002380F8393084F83E3003E003620023E8
:102F90008360436110BD0362002383604361F2E7F5
:102FA000002380F839300123EDE7003B18BF0123EF
:102FB00080F83D30EEE700BFF8CF020803D70208E3
:102FC00099D1020870B50446164629B1314BE72164
:102FD000314A324828F0B8F890F8393033B1304BE4
:102FE0001B6893F86B20436913444361E36A002B29
:102FF0004DD0E169D4E905325343A2684A43934274
:1030000020D2236A002B42D04FF0FF31606D04F0D4
:1030100093F9236A0BB10023E362E36AFBB901254C
:10302000606D04F0B9F994F839300BB9236A3BB1FB
:10303000E36A2BB90123206D84F83A3004F066FA74
:10304000284670BD94F84C000028DDD09B1AB3FBD5
:10305000F1F2994298BF02F1FF326262D4E7002296
:1030600094F83C50A3623046E262E2682261A268B2
:103070000132A260336333685B699847002DCED17B
:1030800094F83D30002BCBD184F83950C8E70125A6
:10309000C9E700BFF8CF0208DAD8020899D10208C0
:1030A000B0560120034B4FF080629A604FF080725F
:1030B0009A60704700E100E0084B4FF08062C3F86F
:1030C0008820BFF34F8FBFF36F8F4FF08072C3F82C
:1030D0008820BFF34F8FBFF36F8F704700E100E090
:1030E00038B5034690F8380038BB01229860D860A4
:1030F0009A634FF4807258619A874FF4F072986126
:10310000D861186258629862D8621863586383F86D
:103110003E00CA864FF4887281F834000A8708633B
:103120009A6C186102F5FF24D3E9101529448C42EA
:103130000AD9084B5821084A03E0084B40F2F51120
:10314000074A084828F000F81A6302F57F329C64A9
:103150005A6338BD38DC020878DC02087EDA0208DF
:10316000AEDA020899D1020810B5144C236823B3D3
:10317000134B144A1B6C11888B4213D1124B1988C4
:1031800002F0C8FC226892F86A30013382F86A3093
:10319000FEF7E4FE206814F003FF0020BDE81040B5
:1031A000FEF7E2BC02F0B6FC206803681B6A984791
:1031B0000020BDE81040FEF707BD10BDB05601204D
:1031C000006801403A1B0020381B00202DE9F7431E
:1031D00004464FF4707894F83A304FF0FF31002BEA
:1031E00031D0606D04F0A8F8276BA36ABB4200D110
:1031F000676B266A656856B32B68314628465B6A5A
:1032000098470023236284F83B30606D04F0C4F8D3
:103210002B684FF4F0723946CDF8008028465E697D
:103220004FF48873B0474FF0FF310646606D04F0ED
:1032300083F894F83B30E3B1002384F83B30606DB1
:1032400004F0AAF8C7E7206D04F026F9C3E7636A23
:10325000002BDAD02B682846D3E909939847616A96
:1032600001442846C847A368626A66621344A360A3
:10327000CBE7E7625EB12B6828469B6A9847013826
:103280000023E06084F83C6084F83A30D7E70120FE
:10329000F6E70000014808B5FFF798FF0423002077
:1032A0000368042270B504465E6A00230D46B047E9
:1032B0004FF0FF31606D04F03FF8382303FB054207
:1032C000D16A09B10021D16203FB0545012385F8CC
:1032D0003B30002385F83930606DBDE8704004F064
:1032E0005BB838B500EB810304460D4611465868BB
:1032F0000368DB68984729462046FFF7D1FF38BDB1
:1033000070B50D461146044600EB85025068026810
:1033100096681A46B04729462046FFF7C1FF70BDA0
:1033200038B5164900251648FFF760F8154C164BBE
:1033300001202A46294623604FF48073A564A387A1
:1033400084F84C0084F83E50C4E91055C4E9145583
:10335000C4E90155C4E90355C4E90555C4E9075555
:10336000C4E90955C4E90B55C4E90D5504F03EF80C
:103370002065284603F09CFF606538BD3C1B00209B
:10338000BC2200200423002028DE0208704710B56C
:103390000446042127F0A9FE204610BD012908B5E6
:1033A00006D0022908D059B900F088FF006808BD8E
:1033B00000F084FF4068FAE700F080FF8068F6E7DD
:1033C0000020F4E70048704770DE020801207047D3
:1033D00013B5002451B1036801AA01948DF803408C
:1033E0009C680DF10303A04702B010BD0846FBE73F
:1033F000C0897047008A7047C088704780887047CE
:10340000807A00F07F007047807AC009704770476B
:1034100010B50446082127F068FE204610BD70470D
:10342000704700F598730868496803C37047704790
:103430007047416070477047064BC0F84801C0F8BC
:103440004C310023C0F8503100F5A273C0F8403170
:10345000704700BFFD3400080123037270477047B6
:10346000704710B441680346C2689B68541001EB72
:103470006200D20748BF0A595DF8044B48BFD358D1
:10348000184743682BB183682BB9C06800F001006E
:103490007047184670470120704710B504460C214C
:1034A00027F023FE204610BD10B50446102127F05A
:1034B0001CFE204610BD10B504464FF4AE7127F037
:1034C00014FE204610BD10B517F05EF80368BDE885
:1034D0001040DB6B184710B50446D0F8400158B1D6
:1034E0000368DB68984738B1D4F8400103689B68EB
:1034F00098470023C4F8403110BD00002DE9F14F7A
:10350000D0E9555A0746A86803681B6A984740F2F5
:103510002B73984205D8464BA321464A464827F0CC
:1035200013FE686803681B6A98470F2803D8434B4B
:10353000A421404AF2E7E86803681B6A98470B2811
:1035400003D83F4BA5213B4AE8E7DFF8FC9017F092
:103550001BF8043017F056F8D9F8000010B10368D2
:10356000DB689847D9F8000010B103681B689847DA
:10357000DFF8D880D8F8000010B103685B6998477D
:10358000D7F83C0110B103685B689847D8F8000091
:1035900010B103681B689847D7F83C0110B1036865
:1035A0009B689847E86800214FF0000B03685B6A4E
:1035B0009847244B0446C0F804B00360594680F88D
:1035C00008B0A86803685B6A9847064600F0DEFE0C
:1035D0006868594603685B6A98470546314600F0BB
:1035E000AFFEC9F80040C7F83C51C8F80060E5B12B
:1035F0002B1DCAF8003030463368C5F808A0DB68D8
:10360000F56398472B6828461B6898472146304643
:1036100018F05CFD236820461B6998472368204604
:103620005B6901B0BDE8F04F18472B46E1E700BFEA
:1036300094DE020822DF020826E002086DE002089C
:1036400010E1020828E20208F0560120EC560120A1
:10365000044B1B6893F858200AB1D86C00B99868DD
:10366000704700BFB0560120F8B5044617460E4615
:1036700017F09AF8104B00251C6029460F4B236069
:103680000F4BC4E951350F4B1868C4E95355036813
:10369000C4E94F559B68C4E955769847284600F021
:1036A000C1FDFFF7D5FF20F0C6F9FFF7D1FF20F0ED
:1036B0003DFA2046F8BD00BFFC560120D4E10208C7
:1036C000BCE10208B0560120064BC0F84801C0F822
:1036D0004C310023C0F8503100F5A273C0F84031DE
:1036E000704700BFFD340008406A7047806A704729
:1036F00070478B88C069DB0A0A6850F823001044C1
:10370000704710B5C2B1137BB3B1547BD27A240297
:1037100004F4E0641443026A98B202EB8402138852
:103720008B4202D192F9020010BD05D80138043253
:1037300080B20028F3D1F7E70020F5E710B5044682
:103740002C2127F0D2FC204610BD000030B58BB0F4
:103750000446BDF860500895BDF85C5007959DF88B
:10376000505006959DF84C5005959DF8485004958D
:103770009DF8445003959DF8405002959DF83C50AB
:103780000195BDF83850009518F06EF8064B2046AC
:103790002360159BE361169B2362199B63621A9B4E
:1037A000A3620BB030BD00BF4CE202087047704707
:1037B00070477047704730B585B003680446018193
:1037C0006D460146D3F884303C342846984795E846
:1037D000070084E8070005B030BD30B585B0036848
:1037E000044641816D460146D3F884303C34284676
:1037F000984795E8070084E8070005B030BD00222F
:10380000028042808280C280704780F83610704704
:10381000036870B504461B6B15469847236820461D
:1038200029465B6EBDE87040184700207047806CE9
:10383000704770477047704710B504464C2127F019
:1038400054FC204610BD10B5044640F22C7127F000
:103850004CFC204610BD08B5FFF708FB08BD000072
:10386000036870B55E6B0446114B8DB21B682BB9B3
:10387000104B6C21104A114827F066FC1049828DCC
:103880000988914203D80F4B6D210B4AF3E713F8D7
:1038900012200D4B1B6853F8220003681B6B9847DE
:1038A000281A334601B22046BDE87040184700BFD1
:1038B00000570120A4E20208E6E2020821E3020820
:1038C0000457012068E302080857012000224FF046
:1038D000FF318260C0E900217047036870B504467B
:1038E0001B6B154698472368204629465B6BBDE84D
:1038F000704018474FF48071002281840C490263A4
:1039000001600C49028781624FF6FF71C2638185B5
:103910004FF47F0141634FF0FF31C0E90122C0E95C
:103920000322C0E90522C0E90722C0E9101270474E
:10393000880A03088CDE020810B50446FFF7DAFF98
:10394000024B204623600023A36410BDE8E3020875
:103950002DE9F04F044600252DED088B8BB026464F
:1039600018F008FA524BE56304F16C0946F8403B45
:1039700004F580784F4B4846256604F2E44BA56673
:1039800004F5BF6A271DC4E910354FF48073A4F80D
:103990006430FF23C4E9125584F86630C4E9145535
:1039A000C4E91655FFF7C8FF04F1B80318460AEE3C
:1039B000103AFFF79FFF4046FFF7BEFF04F5A673DE
:1039C00018460AEE903AFFF795FF04F5CA731846B9
:1039D00009EE103AFFF7B0FF04F5F07318460BEE4E
:1039E000103AFFF787FF04F50A73184609EE903A7C
:1039F000FFF7A2FF04F51D7318460BEE903AFFF790
:103A000079FF04F52F73184608EE103A13F06EF89C
:103A100004F57473184608EE903A13F067F85846A8
:103A200013F064F8504613F061F82A4630462946F0
:103A3000FFF753FF30464FF4F071FFF753F930466C
:103A40004FF48871FFF750F94FF07F433146384605
:103A5000A36604AE13F06EFA342246214846FFF7FF
:103A60003CFF4FF0FF3349463046C4F89C30E36ECC
:103A7000A4F8A050D3F88430984704F1A80396E83E
:103A8000070083E8070004F20C7303930A4B1B68DA
:103A90002BB90A4B60210A4A0A4827F055FB0A4B0A
:103AA0001B88032B14D8094B6121054AF4E700BF9A
:103AB00078E40208180B030800570120A4E202086A
:103AC000A6E3020821E302080457012068E3020884
:103AD000DF4B0321186800F0E1FBDE4A03460421B6
:103AE000039819F0F9FD03994846C4F8B41014F08E
:103AF00019FFD94B484608A908930F23ADF8243085
:103B000014F030FF4946384613F014FA3422D42119
:103B10001AEE100AFFF7E1FE4FF0FF313046A4F82D
:103B2000EC50C4F8E8101AEE101A14F081FC04F1FD
:103B3000F40304F2147996E8070083E80700C64B03
:103B400008A91AEE100A08930B23ADF8243014F0DC
:103B500009FF1AEE101A384684F8DD5013F0EAF91E
:103B6000612246214046FFF7B8FE4FF0FF31D4F8FE
:103B700000313046C4F830114146D3F88430A4F8FF
:103B80003451984704F59E7396E8070083E80700D0
:103B9000B2490B68002B3FF47CAFB1480388022B7D
:103BA00081D9AB4A0221106800F078FBA94A03468C
:103BB0000421484619F090FD4046C4F8489104F2AB
:103BC0001C7914F0AFFEA44B0DF1200C4046089375
:103BD0000E236146ADF8243014F0C4FE4146384649
:103BE00013F0A8F96122D4211AEE900AFFF775FEAE
:103BF0004FF0FF3C1AEE901A3046C4F87CC14FF0EB
:103C00000A08A4F8805114F013FC04F5C4730DF1F4
:103C1000200C96E8070083E807008F4B61461AEEF8
:103C2000900AADF82480089314F09CFE1AEE901AC6
:103C3000384684F8715113F07DF99322462119EE2C
:103C4000100AFFF74AFE4FF0FF3CD4F8943119EE0A
:103C5000101A3046C4F8C4C1D3F88430A4F8C8514F
:103C6000984704F5E87396E8070083E807007B4966
:103C70000B68002B3FF40DAF79480388012B7FF6CA
:103C800012AF734A0121106800F008FB714A034625
:103C90000421484619F020FD19EE100AC4F8DC9101
:103CA00004F2247914F03EFE6B4B0DF1200C19EE5A
:103CB000100A08930D236146ADF8243014F052FE2B
:103CC00019EE101A384613F035F99322D4211BEE61
:103CD000100AFFF702FE4FF0FF3C1BEE101A3046B1
:103CE000C4F810C2A4F8145214F0A2FB04F5077330
:103CF0000DF1200C96E8070083E80700564B61465B
:103D00001BEE100A08930923ADF8243014F02AFEA4
:103D10001BEE101A384684F8055213F00BF9C62230
:103D2000462119EE900AFFF7D8FD4FF0FF3CD4F87A
:103D3000283219EE901A3046C4F858C2D3F88430AD
:103D4000A4F85C52984704F5197396E8070083E8D5
:103D5000070042490B68002B3FF49BAE40480388A4
:103D6000002B3FF4A0AE3A4A2946106800F096FABC
:103D7000384A03460421484619F0AEFC19EE900A71
:103D8000C4F870924FF00C0914F0CCFD324B08A926
:103D900019EE900A0893ADF8249014F0E3FD19EEA3
:103DA000901A384613F0C6F81BEE900AC622D421AA
:103DB000FFF793FD4FF0FF321BEE901A3046C4F828
:103DC000A422A4F8A85214F033FB04F52C7396E84F
:103DD000070083E80700204B08A91BEE900A1E2667
:103DE00008930823ADF8243014F0BCFD1BEE901AA4
:103DF000384684F8995213F09DF818EE100A2722DD
:103E0000B921FFF76AFD4246494618EE100A96238B
:103E1000009612F04DFE64222B46294618EE100A39
:103E2000009512F0C5FE18EE100A4FF0FF3112F0A7
:103E3000C2FD094B08A918EE100A08930723ADF834
:103E4000243012F0DDFD08A918EE100A0AE000BFC8
:103E50000C570120B0FC02088CDE0208005701203C
:103E600004570120ADF8205012F0F6FF18EE100AAA
:103E70003C2112F0D1FD18EE101A384684F8E152B8
:103E800013F058F818EE900A5422B921FFF725FDD7
:103E90004246494618EE900A9623009612F008FE14
:103EA00064222B46294618EE900A009512F080FEF7
:103EB00018EE900A4FF0FF3112F07DFD424B08A939
:103EC00018EE900A08930623ADF8243012F098FDFE
:103ED00008A918EE900AADF8205012F0BDFF18EEB8
:103EE000900A3C2112F098FD18EE901A384684F89A
:103EF000F55313F01FF858468622B921FFF7EDFC61
:103F00004246494658469623009612F0D1FD642257
:103F10002B4629465846009512F04AFE58464FF067
:103F2000FF3112F048FD284B08A958460893052395
:103F3000ADF8243012F064FD08A95846ADF82050C1
:103F400012F08AFF58463C2112F066FD5946384669
:103F500084F8095512F0EEFFB92250461146FFF7DA
:103F6000BCFC4246494650469623009612F0A0FDFE
:103F700064222B4629465046009512F019FE504601
:103F80004FF0FF3112F017FD0F4B08A95046089370
:103F90000423ADF8243012F033FD08A95046ADF8E3
:103FA000205012F059FF50463C2112F035FD3846A2
:103FB000514684F81D5612F0BDFF20460BB0BDECF3
:103FC000088BBDE8F08F00BF8CDE02087047000050
:103FD00030B5164D8FB02C68BFF35B8F14F0010421
:103FE00020D1284627F083F8E0B13F230122104971
:103FF0000993104B10480893104B0A940594CDE98F
:1040000006430423CDE903320A23CDE90B44009390
:10401000CDE90144FFF79AFB094827F0B3F8284699
:1040200027F071F804480FB030BD00BF5C230020BA
:10403000A4920090C0100308602300202011030800
:10404000CD3F00087047000030B5174D8FB02C6889
:10405000BFF35B8F14F0010422D1284627F047F804
:10406000F0B13F231F2211490993114B11480893C6
:10407000114B0A940793012301940493CDE905435E
:104080000423CDE902431423CDE90B440093182304
:10409000FFF75CFB094827F075F8284627F033F84E
:1040A00004480FB030BD00BF8C230020B4920090B4
:1040B000C410030890230020241103084540000881
:1040C0007047000030B5164D8FB02C68BFF35B8F82
:1040D00014F0010420D1284627F009F8E0B13F236D
:1040E000012210490993104B10480893104B0A9471
:1040F0000594CDE906430423CDE903322823CDE915
:104100000B440093CDE90144FFF720FB094827F059
:1041100039F8284626F0F7FF04480FB030BD00BF3D
:10412000BC230020689400901C110308C0230020C9
:1041300028110308C1400008002070470020704784
:104140000EB403B503AB002153F8042B019317F011
:10415000B3F902B05DF804EB03B070470CB407B5D7
:1041600004AB53F8042B019317F0A6F903B05DF8E4
:1041700004EB02B070470000436C10B5044673B303
:10418000038F2BB9184BC521184A194826F0DCFFBC
:10419000C38E00EB43035B8C0BB318F0F5FC238F4D
:1041A000012B03D8134BCB21134AEEE7E28E40F6E6
:1041B0003F10531C9BB2092B194688BFA3F10A017B
:1041C00004EB4101498C814209D10A2B04EB4202E4
:1041D00028BF0023508C04EB4303588451842046AD
:1041E000BDE8104018F0D2BBA4E40208ADE4020818
:1041F00058E50208A2E50208B0E5020818F08FBBF6
:1042000010B586B002AC84E806001A460AAB214617
:1042100005930193099B0093089B15F053FD06B08D
:1042200010BD000038B518BB124B13481C68134969
:10423000B4B1226822440260626822440A60A26823
:1042400014440F4B00221A8000F038F8054600F0A5
:1042500033F80C4B1C600C4B1D600C4B188007E0B6
:104260000B4B03600B4B0B600B4B1C68002CE8D115
:1042700038BD00BFEC230020F0230020F4230020F1
:10428000F82300200057012008570120045701207F
:10429000B894009078940090A4950090044B1B680B
:1042A00053F82100034B1B6803EB4000704700BF2D
:1042B000F4230020F02300201020704700487047AE
:1042C000FC23002010B5054CFFF7BEFE2060FFF771
:1042D000F9FE6060FFF77CFEA06010BDFC230020AB
:1042E000704710B504464FF4AE7126F0FEFE20462E
:1042F00010BD10B50446D0F8580100F012F8204661
:10430000BDE8104016F0DCB910B50446FFF7ACF973
:10431000014B2046236010BD8CE60208002202609B
:1043200070477047704704387047704710B50446AF
:10433000102126F0DAFE204610BDA0F10400F5E7BA
:104340000022C1608260044A10B502F108042032E4
:104350000460426010BD00BFD8E60208704700004C
:10436000034B10B504460360FFF763FA204610BD07
:1043700008E7020810B50446FFF7F2FF40F22C717F
:10438000204626F0B2FE204610BD000010B50446BF
:10439000FFF7DEFA014B2046236010BD08E7020854
:1043A000FFF748BA00B54FF4807295B04FF08071B6
:1043B00003460C9205220F910121069200220191E1
:1043C0000B92139200920B48CDE90312CDE90D2216
:1043D000CDE91122102206A902924FF48002059223
:1043E0006A4601F079FD003818BF012015B05DF86C
:1043F00004FB00BF0824002000B54FF4807395B083
:1044000041F2883217480C93062306A9069300232D
:10441000CDE90D330F930B931393CDE9113301F0D5
:1044200018FDE0B9022301224FF4800104900D48E9
:10443000CDE900331023CDE9023205236A46CDE9E8
:1044400005134FF0807306A90F9341F2883301F0F2
:1044500043FD003818BF012015B05DF804FB0120B2
:10446000FAE700BF0824002000B54FF4807391B034
:104470004FF040720E480893EB2302A902934FF4C9
:10448000406309934FF4005305930023CDE90A32AA
:104490000A220F9307926A46CDE90D33CDE9003326
:1044A00001F06AFD003818BF012011B05DF804FB6F
:1044B00008240020454B012145489A6B42F0020236
:1044C000F0B59A638DB09A6B09240427002602F098
:1044D0000202404D0092009A9A6942F002029A61EB
:1044E0009A6922F002029A611A6B42F002021A6380
:1044F0001A6B02F002020192019A1A6B42F0020258
:104500001A631A6B02F002020292029A1A6B42F0CC
:1045100008021A631A6B02F008020392039A1A6BDC
:1045200042F008021A631A6B02F008020492049A1D
:104530001A6B42F010021A631A6B02F01002059215
:10454000059A1A6B42F008021A6340221B6B03F0B3
:1045500008030693069B0223CDE907230323CDE935
:1045600009130A2307A90B9300F03CFC07A918487C
:10457000079709960B9400F035FC4FF4006307A9E8
:1045800028460B94079300F02DFC4FF4805307A9A5
:1045900028460B94079300F025FC07A90E480797BF
:1045A0000B9400F01FFC4FF4005307A928460B940E
:1045B000079300F017FC32460F215C2000F0D8F979
:1045C0005C2000F007FA0DB0F0BD00BF00380240DB
:1045D00000040240000C024000100240F0B5494CBB
:1045E00091B0494B2046236001F020FC054610B1F4
:1045F000012011B0F0BD01462046FFF75BFF012608
:1046000004234FF08077C4E901631023E36097FA35
:10461000A7F3B3FA83F32046013B23614FF4A06371
:10462000C4E90755C4E9053501F0ACFB0028DFD12A
:104630004FF4807566230B9041F28832079002A9EF
:104640000F9008950293CDE90900CDE90D002046B1
:1046500001F0FFFB08B10420CBE7992341F2883237
:1046600002A92046029301F0F4FB0028F3D141F2A5
:104670008830FFF797FE0028EDD18523079041F29F
:10468000883202A9089502930B97CDE90900CDE97C
:104690000C60CDE90E00204601F0DBFB0028DAD1EA
:1046A00041F288320DF10701204601F04BFD002850
:1046B000D1D1FFF7A1FE0028CDD18123F0220293B2
:1046C00092FAA2F20A219DF80730B2FA82F220464D
:1046D00003F00F0301FA02F202A9134341F28832F8
:1046E0008DF8073001F0B5FB0028B4D141F28832D3
:1046F0000DF10701204601F0C9FC00283FF479AF15
:10470000A9E700BF08240020001000A00F490020E6
:10471000D1F8883043F47003C1F888300C4B1A6824
:1047200042F001021A6098601A6822F0847222F442
:1047300080321A60074A5A601A6822F480221A608E
:10474000D8604FF000638B60704700BF00ED00E061
:1047500000380240103000247047002070470000ED
:10476000002337B58DF807300D4B1A780AB90122AE
:104770001A700324C5B2013CA8212846FDF7D8F9D8
:1047800014F0FF048DF807009DF80730DBB203D169
:104790009DF8070003B030BD512BECD1F8E700BF06
:1047A0005624002013B500240221C0B28DF8074022
:1047B000FDF7BEF98DF807009DF8073003F00F03F1
:1047C0008DF807309DF80730052B01D98DF807408B
:1047D0009DF80720034B9DF807005A7000229A703D
:1047E00002B010BD562400202DE9F74F2F4C15467E
:1047F0004FF000080F46A37862788DF807809A4240
:104800004DD9092B4ED803EB43035B00DBB2191DD6
:1048100003F1030B03F1060A0533C9B25FFA8BFB00
:104820005FFA8AFA5FFA83F8C6B2DFF884903046FE
:10483000FDF77EF98DF807009DF8073059463046A0
:10484000A9F80030FDF774F98DF8070051469DF87E
:1048500007303046B9F800201B0203F4706313439D
:104860003B80A9F80030FDF763F98DF80700414659
:104870009DF807303046A9F80030FDF759F98DF85A
:1048800007009DF80730B9F800201B0203F470639D
:104890001343A9F800302B80A3780133A37003B031
:1048A000BDE8F08FC246C3464146BDE7562400200E
:1048B000542400200122A421C0B2FDF71FB9002218
:1048C000A421C0B2FDF71AB9FFF7F9BF7047000085
:1048D000024B1A780AB901221A7070475624002038
:1048E000074A032008B5136843F48073136000F08F
:1048F0002DF80020FCF79CFFFCF73EFD002008BDD2
:10490000003C0240034A044B11681B780B441360BF
:10491000704700BF5C24002038000020014B18685D
:10492000704700BF5C24002038B50446FFF7F6FF4F
:104930000546631C1EBF044B1B78E418FFF7EEFF0F
:10494000431BA342FAD338BD3800002007490302B5
:10495000CA6803F4E06322F4E0621204120C134309
:1049600043F0BF6343F40033CB60704700ED00E0D9
:10497000164B30B5DC68C4F30224C4F10703251DCF
:10498000042B28BF0423062D4FF0FF358CBF033CBA
:10499000002405FA03F3002805FA04F521EA0303CD
:1049A00022EA050203FA04F343EA02034FEA03137F
:1049B000DBB206DB00F1604000F5614080F80033B7
:1049C00030BD00F00F00024A1354F9E700ED00E09B
:1049D00014ED00E0002807DB4109012300F01F006F
:1049E000024A834042F82130704700BF00E100E0F6
:1049F00000280CDB4309012200F01F00044920338A
:104A0000824041F82320BFF34F8FBFF36F8F704771
:104A100000E100E0BFF35F8F044B5A6A22F480325A
:104A20005A620022C3F89420704700BF00ED00E0F6
:104A3000064B40F00100C3F894005A6A42F48032F9
:104A40005A62BFF34F8FBFF36F8F704700ED00E0E6
:104A50004378144A10B5C2F898300178E9B1436838
:104A6000C2F89C30C37A047B1B0643EA04730B43F1
:104A7000817A43EAC143417B43EA8143817B43EA34
:104A80004143C17B43EA0143417A43EA0123017A6E
:104A900043EA4103C2F8A03010BDC2F89C10C2F82E
:104AA000A010F9E700ED00E010B5044608B90120B8
:104AB00010BD437F03F0FF0213B90277FCF77AFCC5
:104AC000022363772379E3B92368134A5A619A680A
:104AD00022F018029A6062792368D2B94FF0FF324F
:104AE0001A6100209A68616922F060020A43A16994
:104AF0009A609A6822F080020A439A6001236377E1
:104B0000D6E7D4E90212204600F008F80028E2D0E7
:104B1000CDE72269E4E700BFB71DC1041F2310B52C
:104B2000013B1CD321FA03F4E407F9D5102A12D073
:104B300004D83AB1082A10D001200BE0182AFBD182
:104B4000062BF9D800684161836823F018031343EA
:104B50008360002010BD072BF3E70F2BF1E7002A3D
:104B6000EAD1EFE770B50446866DFFF7D7FE05463C
:104B700094F83530022B06D0802301206365002392
:104B800084F8343070BD23681A6822F016021A6067
:104B90005A6922F080025A61226C0AB9A26C1AB1D9
:104BA0001A6822F008021A601A6822F001021A60DC
:104BB00023681B6813F0010308D1E16D3F221846FA
:104BC0008A40B260012284F83520D8E7FFF7A6FEBC
:104BD000401B0528ECD920230320636584F83500A9
:104BE000CDE710B5044630B390F8393003F0FF023A
:104BF0001BB980F83820FCF7F3FB226802236168B8
:104C0000002084F83930136823F440330B43A16843
:104C10001360536B23F007030B43E1685363136C7A
:104C200023F47F5323F03F030B4313640123E0631A
:104C300084F8393010BD0120FCE7704770470368E5
:104C400070B55E6804461D68F20714D5E90512D5F3
:104C50001A6822F480721A60C26B42F00102C263C9
:104C600001229A60042380F83930002380F838301C
:104C7000436903B19847B20616D5AB0414D523682F
:104C80001A6822F400521A6020229A60E36B43F003
:104C90000203E363042384F83930002384F83830B6
:104CA00063690BB120469847300716D5290514D5FE
:104CB00023681A6822F400621A6008229A60E36B83
:104CC00043F00403E363042384F83930002384F8B9
:104CD000383063690BB12046984772070BD56B05D6
:104CE00009D5236820461A6822F480621A600422DB
:104CF0009A60FFF7A2FFB00714D5A90512D5236863
:104D00001A6822F400721A6002229A60E36BE3636D
:104D1000012384F83930002384F8383023690BB13B
:104D200020469847F20613D5EB0411D52368204698
:104D30001A6822F480521A6010229A60E36BE363CF
:104D4000012384F83930002384F83830FFF776FFE8
:104D500070BD0000F0B590F83830012B4FF0020321
:104D60002BD080F83930012200EB01131C4F80F862
:104D700038200E015D6AD3E9074244EA0242093C49
:104D8000012C96BF05F07F4342EA05621A4303688F
:104D9000A9B9596A012C01EA070142EA01025A62E3
:104DA00082699A6103D8426A22F07F429A620123A3
:104DB00080F83930002380F838301846F0BDD969C2
:104DC000012C01EA070142EA0102DA6100EB060266
:104DD00092691A61EBD825F07F451D62E7E700BFB5
:104DE000F0FFFC002DE9F74F0023DFF8B8916B4A84
:104DF00001240D689C4004EA050CAC4340F0B480EB
:104E00004D684FEA4308032605F0030406FA08F646
:104E1000671EF643012F34D8876807EA060ECF686D
:104E200007FA08F747EA0E078760476827EA0C0E7B
:104E3000C5F300179F4047EA0E074760C768022C7A
:104E400007EA060E8F6807FA08F747EA0E07C760F9
:104E500019D14FEAD30A03F0070B4FF00F0E00EB06
:104E60008A0A4FEA8B0BDAF820700EFA0BFE27EA5B
:104E70000E0E0F6907FA0BF747EA0E07CAF8207003
:104E800001E0032CDAD1076804FA08F415F4403F76
:104E900007EA060744EA0704046065D0D9F84440ED
:104EA00023F0030603F0030744F4804406F1804630
:104EB000BF00C9F8444006F59C36D9F8444004F4D4
:104EC00080440194019C0F24D6F808E0BC402EEAEF
:104ED000040E334CA0424ED004F58064A0424CD066
:104EE00004F58064A0424AD004F58064A04248D012
:104EF00004F58064A04246D004F58064A04244D00A
:104F000004F58064A04242D004F58064A04240D001
:104F100004F58064A0423ED004F58064A0420CBF3A
:104F200009240A24BC40EF0244EA0E04B4606FEA8C
:104F30000C06946854BF34404CEA0404AF029460F9
:104F4000D46854BF34404CEA0404AF03D4605468BE
:104F500054BF34404CEA0404ED035460146854BF59
:104F600034404CEA040414600133102B7FF440AF4A
:104F700003B0BDE8F08F0024D4E70124D2E7022477
:104F8000D0E70324CEE70424CCE70524CAE70624AF
:104F9000C8E70724C6E70824C4E700BF003C014077
:104FA00000000240003802402DE9F04F0022494C39
:104FB000DFF82891DFF828A1DFF828B1012303FAF0
:104FC00002FE3EEA01050EEA01076CD122F003055C
:104FD00002F0030C0F26404B05F180454FEA8C0C84
:104FE000984205F59C3506FA0CF6D5F8088006EAD5
:104FF00008085DD003F5806398425BD003F58063B9
:10500000984259D003F58063984257D003F58063E6
:10501000984255D0484555D0504555D0584555D063
:1050200003F58053984253D003F5806398420CBF38
:1050300009230A2303FA0CF3434513D1236823EA17
:1050400007032360636823EA07036360E36823EAD6
:105050000703E360A36823EA0703A360AB6823EABE
:105060000603AB6056000323056802F0070CB3404B
:105070000F274FEA8C0C25EA030507FA0CF70560A9
:10508000D50800EB85052E6A26EA07062E62C5685C
:1050900025EA0305C560456825EA0E054560856873
:1050A00025EA030383600132102A87D1BDE8F08F1F
:1050B0000023BFE70123BDE70223BBE70323B9E7D2
:1050C0000423B7E70523B5E70623B3E70723B1E7D2
:1050D0000823AFE7003C01400000024000140240FA
:1050E00000180240001C02400369194214BF01204D
:1050F000002070470AB1816170470904FBE74369EA
:1051000001EA030221EA030141EA02418161704799
:1051100003689A69910701D500229A629A69D207B9
:1051200003D49A6942F001029A61704730B5039D39
:10513000C1F3090104682B43606843EA0243054A4E
:105140000B4342EA555223F0004320EA0200034396
:10515000636030BDFF63FF0303682DE9F0419C6984
:1051600005460F46164614F010046FD00024102296
:10517000A046DA612B689A69900661D4B8F1000FF5
:1051800035D044F0040401202E68B369D90505D553
:105190004FF4807244F001040120F2615A0505D5F4
:1051A0004FF4806244F008040120F2619B054FD562
:1051B0004FF4007344F00204F3612846FFF7A8FFA0
:1051C0007368012023F0FF7323F48B3323F4FF7300
:1051D00023F0010373606B6C23436B64202385F819
:1051E0004130002385F8423085F8403032E07A1CA7
:1051F000C1D0FFF793FB801BB84201D8002FB9D173
:105200002B68596895F842209869D2B200040AD5F3
:10521000490408D4202A06D05A6842F480425A60D1
:10522000FFF77CFB06462B689B699B06A2D4FFF721
:1052300075FB801B1928F6D920244FF0010899E747
:10524000B8F1000F9DD12022DA619AE720469BE752
:105250000028B2D1BDE8F08170B504460D4616466F
:1052600023689B699B0701D5002070BD3246294603
:105270002046FFF771FFA0B96A1CF1D0FFF74EFB83
:10528000801BA84201D8002DEAD1636C43F02003B3
:105290006364202384F84130002384F8423084F88A
:1052A00040300120E1E72DE9F041069F04468846A1
:1052B00016461D462268936938EA03030CBF012392
:1052C0000023B34201D0002015E06B1CF3D0FFF7A0
:1052D00025FBC01BA84201D8002DEBD1636C012037
:1052E00043F020036364202384F84130002384F8D2
:1052F000423084F84030BDE8F08170B504460D4678
:10530000164623689B699B0601D5002070BD324676
:1053100029462046FFF720FF90B9FFF7FFFA801BD0
:10532000A84201D8002DECD1636C43F020036364E4
:10533000202384F84130002384F8423084F8403040
:105340000120E3E710B5044600284AD090F8413028
:1053500003F0FF021BB980F84020FCF761F824231A
:1053600084F8413023681A6822F001021A606268EA
:1053700022F070621A619A6822F400429A60D4E9BD
:105380000221012924D142F400429A605A68002087
:1053900042F0007242F400425A60DA6822F400429D
:1053A000DA60D4E904210A43A16942EA0122DA6001
:1053B000D4E907210A431A601A6842F001021A6010
:1053C0002023606484F84130206384F8420010BDDB
:1053D00042F4044202299A60D8D14FF400625A6024
:1053E000D4E70120F3E710B5044698B102682423FE
:1053F00080F84130136823F001031360FCF754F880
:105400000020606484F8400084F84100206384F840
:10541000420010BD0120FCE72DE9F74F994690F8B6
:10542000413004460F46202B1646BDF834A0DDF867
:10543000388040F0C6800C9B13B1BAF1000F06D142
:105440004FF400736364012003B0BDE8F08F90F85F
:105450004030012B00F0B5804FF0010B80F840B0D8
:10546000FFF75CFA1923054600905A464FF40041B5
:105470002046FFF718FF0028E5D121235FFA89F2C3
:105480003946606384F84130402384F842300C9BF5
:105490006064204663624C4BA4F82AA000934FF04E
:1054A0008073FFF743FE2A4641462046FFF7D4FEAD
:1054B00018BBB9F1010F236815D1F6B20022802183
:1054C00020469E6243460095FFF7EDFEA8B9638D26
:1054D0009BB2FF2B15D8628D4FF00073009092B2F3
:1054E0002285D2B212E0320A414620469A622A460A
:1054F000FFF7B2FE08B92368DFE7002384F84030E5
:10550000A1E7FF224FF080730090228539462046A4
:10551000FFF70CFE2A4641462046FFF79DFE002875
:1055200091D1636A226813F8011B91626362638DF3
:10553000228D013B013A9BB292B26385638D228535
:105540009BB2B3B1AAB94346802120460095FFF72C
:10555000AAFE00287FF477AF638D9BB2FF2B28D97A
:10556000FF224FF080730090228539462046FFF7D6
:10557000DDFD638D9BB2002BCCD12A4641462046EF
:10558000FFF7BBFE00287FF45EAF23682021D961BE
:105590005A6822F0FF7222F48B3222F4FF7222F05A
:1055A00001025A6084F8411084F8400084F84200F7
:1055B0004AE7628D4FF00073009092B22285D2B21A
:1055C000D3E7022040E700BF002000802DE9F74F1D
:1055D000994690F8413004460F46202B1646BDF8F8
:1055E00034A0DDF8388040F0C9800C9B13B1BAF1CB
:1055F000000F06D14FF400736364012003B0BDE8CF
:10560000F08F90F84030012B00F0B8804FF0010B84
:1056100080F840B0FFF782F91923009005465A46FA
:105620004FF400412046FFF73EFE03460028E4D138
:1056300022223946606384F84120402284F84220C7
:105640000C9A6064204662624D4AA4F82AA0009237
:105650005FFA89F2FFF76AFD2A4641462046FFF7C6
:10566000FBFD20BBB9F1010F236816D1F6B2002271
:10567000402120469E6243460095FFF714FEB0B9D4
:10568000638D9BB2FF2B3F4B15D8628D00934FF07B
:10569000007392B22285D2B212E0320A414620460D
:1056A0009A622A46FFF7D8FD08B92368DEE700238F
:1056B00084F84030A1E7FF2200934FF080732285E9
:1056C00039462046FFF732FD43460022042120469A
:1056D0000095FFF7E8FD00288FD123685A6A636AB6
:1056E0001A70636A228D0133013A6362638D92B24C
:1056F000013B22859BB26385638D9BB2B3B1AAB98E
:105700004346802120460095FFF7CDFD00287FF419
:1057100074AF638D9BB2FF2B28D9FF224FF08073AB
:105720000090228539462046FFF700FD638D9BB22D
:10573000002BC9D12A4641462046FFF7DEFD00284E
:105740007FF45BAF23682021D9615A6822F0FF7291
:1057500022F48B3222F4FF7222F001025A6084F8A4
:10576000411084F8400084F8420047E7628D4FF012
:105770000073009092B22285D2B2D3E702203DE7B7
:10578000002000800024008010B590F84130202BCC
:10579000DCB21DD190F84030012B19D0242380F8C1
:1057A000413003681A6822F001021A601A6822F474
:1057B00080521A601A68114319601A6842F0010297
:1057C0001A60002380F8414080F84030184610BD30
:1057D0000220FCE710B590F84130202BDCB21CD140
:1057E00090F84030012B18D0242380F84130036812
:1057F0001A6822F001021A601A6822F4706242EA02
:10580000012119601A6842F001021A60002380F831
:10581000414080F84030184610BD0220FCE70000EF
:10582000D2010068D1F800C0843283182DE9F0431A
:10583000C6680CF101075D684FF0000E4C68C6F3B6
:105840000B4605F47045D1F8189026445D60C56894
:10585000C5F30B453D4445EA06455D60C668CD6825
:10586000C6F30A062E449D6805F470459D608D6858
:10587000C7680135C7F30A073D4445EA06450E6986
:105880009D601D6925F007051D611E619D6991F8E8
:10589000327091F83180C3F818E091F8305045EA41
:1058A000096545EA082545EA07459D615D6925F0DA
:1058B000FF055D614D695D61DD6925F4E06525F0F9
:1058C0000705DD61D1E907573D43DD619D6A4D6AFA
:1058D000C3F828E09D62FEB1013E062E1ED8104D91
:1058E000AD5DDE6AA4EB0C0406F0E0266C43DE62DC
:1058F00003348E6AC96A6E4344EA0644DC621C6B58
:1059000024F4FF6424F007041C631963835843F0F4
:1059100001038350BDE8F0830425E2E70125E0E7B9
:105920004CE7020838B50446002863D090F8A1304F
:1059300003F0FF021BB980F8A020FBF7D1FD022382
:1059400084F8A13023689A6922F070429A619969BB
:10595000D4E901200243E068024320690243606900
:105960000A4325499A619A680A409A609A6842EA0D
:105970000042A0690243E0699A60DA680A40DA608E
:10598000DA6842EA0042206A0243606ADA601A6911
:105990000A401A611A6942EA0042A06A02431A6187
:1059A0005A690A40E16A5A615A6942EA0142216B26
:1059B0000A435A61DA6A94F8350002F07F4294F89B
:1059C0003610DA62DD6A94F834202A4342EA002273
:1059D000002042EA0142DA625A6B42F006025A6340
:1059E0009A6942F001029A610123C4F8A40084F884
:1059F000A13038BD0120FCE700F800F07047704787
:105A0000036870B59E6B04465D6B720714D5690719
:105A100012D55A6B22F004025A630422DA63D0F8DA
:105A2000A43043F00103C0F8A430002380F8A12083
:105A300080F8A030FFF7E2FFB20716D5AB0714D508
:105A4000236820465A6B22F002025A630222DA636C
:105A5000D4F8A4301343C4F8A430042384F8A1304C
:105A6000002384F8A030FFF7C9FFF00710D5E9073D
:105A70000ED5236820465A6B22F001025A63012298
:105A8000DA63002384F8A12084F8A030FDF76CFBD2
:105A9000320711D52B070FD5236820465A6B22F009
:105AA00008025A630822DA63012384F8A130002334
:105AB00084F8A030FFF7A3FF70BD2DE9F04190F806
:105AC000A03006460F469446012B4FF002001FD02F
:105AD00034244FF001080D4686F8A10004FB02644F
