:020000040800F2
:1000000000000520E9200008D11F0008D31F0008C8
:10001000D51F0008D71F0008D91F000800000000E6
:1000200000000000000000000000000061980008CF
:10003000DB1F000800000000019900086599000816
:100040003921000839210008392100083921000828
:100050003921000839210008392100083921000818
:100060003921000839210008392100083921000808
:1000700039210008392100083921000839210008F8
:100080003921000839210008DD1F00083921000846
:1000900039210008392100083921000839210008D8
:1000A00039210008392100083921000839210008C8
:1000B00039210008392100083921000839210008B8
:1000C00039210008392100083921000839210008A8
:1000D0003921000839210008392100083921000898
:1000E0003921000839210008392100083921000888
:1000F0003921000839210008392100083921000878
:100100003921000839210008392100083921000867
:100110003921000839210008F91F00083921000899
:10012000052000083921000839210008392100087C
:100130001120000839210008392100083921000860
:100140003921000839210008392100083921000827
:100150003921000839210008392100083921000817
:100160003921000839210008392100083921000807
:100170003921000839210008392100080000000059
:1001800039210008392100083921000839210008E7
:1001900039210008392100083921000839210008D7
:1001A0001D200008392100082920000839210008F5
:1001B00039210008392100083921000839210008B7
:0801C000392100083921000873
:1001D00010B5054C237833B9044B13B10448AFF381
:1001E00000800123237010BD800300200000000068
:1001F000B4FC040808B5034B1BB103490348AFF333
:10020000008008BD0000000084030020B4FC040846
:1002100010F8012B11F8013B012A28BF9A42F7D0B0
:10022000D01A70470000000000000000000000002D
:1002300001F0FF01102A2BDB10F0070F08D010F897
:10024000013B013A8B422DD010F0070F42B3F6D19B
:10025000F0B441EA012141EA014122F007047FF0B4
:1002600000070023F0E80256083C85EA010586EA0B
:10027000010685FA47F5A3FA87F586FA47F6A5FA47
:1002800087F68EB9EED1F0BC01F0FF0102F0070253
:1002900032B110F8013B013A83EA010313B1F8D1FE
:1002A0000020704701387047002D06BF35460338DF
:1002B000073815F0010F07D1013015F4807F02BF18
:1002C000013015F4C03F0130F0BC0138704700BF69
:1002D000034613F8012B002AFBD1181A0138704786
:1002E00081F0004102E000BF83F0004330B54FEAE7
:1002F00041044FEA430594EA050F08BF90EA020F54
:100300001FBF54EA000C55EA020C7FEA645C7FEAE6
:10031000655C00F0E2804FEA5454D4EB5555B8BF09
:100320006D420CDD2C4480EA020281EA030382EA7A
:10033000000083EA010180EA020281EA0303362D0C
:1003400088BF30BD11F0004F4FEA01314FF4801CDF
:100350004CEA113102D0404261EB410113F0004FF1
:100360004FEA03334CEA133302D0524263EB4303A8
:1003700094EA050F00F0A780A4F10104D5F1200E46
:100380000DDB02FA0EFC22FA05F2801841F10001A1
:1003900003FA0EF2801843FA05F359410EE0A5F175
:1003A00020050EF1200E012A03FA0EFC28BF4CF0A6
:1003B000020C43FA05F3C01851EBE37101F000455C
:1003C00007D54FF0000EDCF1000C7EEB00006EEB69
:1003D0000101B1F5801F1BD3B1F5001F0CD34908F3
:1003E0005FEA30004FEA3C0C04F101044FEA44524A
:1003F00012F5800F80F09A80BCF1004F08BF5FEAD1
:10040000500C50F1000041EB045141EA050130BDB0
:100410005FEA4C0C404141EB0101013C28BFB1F5C2
:10042000801FE9D291F0000F04BF01460020B1FA0D
:1004300081F308BF2033A3F10B03B3F120020CDAE0
:100440000C3208DD02F1140CC2F10C0201FA0CF0BE
:1004500021FA02F10CE002F11402D8BFC2F1200C23
:1004600001FA02F120FA0CFCDCBF41EA0C019040D9
:10047000E41AA2BF01EB0451294330BD6FEA040422
:100480001F3C1CDA0C340EDC04F11404C4F120020D
:1004900020FA04F001FA02F340EA030021FA04F31F
:1004A00045EA030130BDC4F10C04C4F1200220FA76
:1004B00002F001FA04F340EA0300294630BD21FAB4
:1004C00004F0294630BD94F0000F83F4801306BF7A
:1004D00081F480110134013D4EE77FEA645C18BF6E
:1004E0007FEA655C29D094EA050F08BF90EA020F05
:1004F00005D054EA000C04BF1946104630BD91EAFD
:10050000030F1EBF0021002030BD5FEA545C05D1FF
:100510004000494128BF41F0004130BD14F580043E
:100520003CBF01F5801130BD01F0004545F0FE41B2
:1005300041F470014FF0000030BD7FEA645C1ABFE7
:10054000194610467FEA655C1CBF0B46024650EA1E
:10055000013406BF52EA033591EA030F41F400214A
:1005600030BD00BF90F0000F04BF0021704730B5D0
:100570004FF4806404F132044FF000054FF00001A5
:1005800050E700BF90F0000F04BF0021704730B566
:100590004FF4806404F1320410F0004548BF40423B
:1005A0004FF000013EE700BF42004FEAE2014FEA90
:1005B00031014FEA02701FBF12F07F4393F07F4F6B
:1005C00081F06051704732F07F4208BF704793F06E
:1005D0007F4F04BF41F40021704730B54FF4607481
:1005E00001F0004521F000411CE700BF50EA010284
:1005F00008BF704730B54FF000050AE050EA01022D
:1006000008BF704730B511F0004502D5404261EB9C
:1006100041014FF4806404F132045FEA915C3FF4DD
:10062000D8AE4FF003025FEADC0C18BF03325FEA7A
:10063000DC0C18BF033202EBDC02C2F1200300FA2B
:1006400003FC20FA02F001FA03FE40EA0E0021FA50
:1006500002F11444BDE600BF70B54FF0FF0C4CF43E
:10066000E06C1CEA11541DBF1CEA135594EA0C0FF0
:1006700095EA0C0F00F0DEF82C4481EA030621EA2B
:100680004C5123EA4C5350EA013518BF52EA033566
:1006900041F4801143F4801338D0A0FB02CE4FF018
:1006A0000005E1FB02E506F00042E0FB03E54FF048
:1006B0000006E1FB03569CF0000F18BF4EF0010E40
:1006C000A4F1FF04B6F5007F64F5407404D25FEA3C
:1006D0004E0E6D4146EB060642EAC62141EA5551EF
:1006E0004FEAC52040EA5E504FEACE2EB4F1FD0C31
:1006F00088BFBCF5E06F1ED8BEF1004F08BF5FEAAF
:10070000500E50F1000041EB045170BD06F0004660
:1007100046EA010140EA020081EA0301B4EB5C040D
:10072000C2BFD4EB0C0541EA045170BD41F4801105
:100730004FF0000E013C00F3AB8014F1360FDEBF2A
:10074000002001F0004170BDC4F10004203C35DA06
:100750000C341BDC04F11404C4F1200500FA05F389
:1007600020FA04F001FA05F240EA020001F000422A
:1007700021F0004110EBD37021FA04F642EB0601A0
:100780005EEA430E08BF20EAD37070BDC4F10C04CA
:10079000C4F1200500FA04F320FA05F001FA04F28E
:1007A00040EA020001F0004110EBD37041F100017A
:1007B0005EEA430E08BF20EAD37070BDC4F1200585
:1007C00000FA05F24EEA020E20FA04F301FA05F2ED
:1007D00043EA020321FA04F001F0004121FA04F295
:1007E00020EA020000EBD3705EEA430E08BF20EA65
:1007F000D37070BD94F0000F0FD101F0004640009F
:1008000041EB010111F4801F08BF013CF7D041EA20
:10081000060195F0000F18BF704703F00046520024
:1008200043EB030313F4801F08BF013DF7D043EAF5
:100830000603704794EA0C0F0CEA135518BF95EAAB
:100840000C0F0CD050EA410618BF52EA4306D1D132
:1008500081EA030101F000414FF0000070BD50EA51
:10086000410606BF1046194652EA430619D094EADB
:100870000C0F02D150EA013613D195EA0C0F05D1C5
:1008800052EA03361CBF104619460AD181EA030119
:1008900001F0004141F0FE4141F470014FF00000D1
:1008A00070BD41F0FE4141F4780170BD70B54FF06C
:1008B000FF0C4CF4E06C1CEA11541DBF1CEA1355EC
:1008C00094EA0C0F95EA0C0F00F0A7F8A4EB0504CE
:1008D00081EA030E52EA03354FEA013100F08880C5
:1008E0004FEA03334FF0805545EA131343EA12638E
:1008F0004FEA022245EA111545EA10654FEA002643
:100900000EF000419D4208BF964244F1FD0404F5FB
:10091000407402D25B084FEA3202B61A65EB030557
:100920005B084FEA32024FF480104FF4002CB6EB14
:10093000020E75EB030E22BFB61A754640EA0C0094
:100940005B084FEA3202B6EB020E75EB030E22BFD4
:10095000B61A754640EA5C005B084FEA3202B6EB15
:10096000020E75EB030E22BFB61A754640EA9C00D4
:100970005B084FEA3202B6EB020E75EB030E22BFA4
:10098000B61A754640EADC0055EA060E18D04FEA62
:10099000051545EA16754FEA06164FEAC30343EA02
:1009A00052734FEAC2025FEA1C1CC0D111F4801FCF
:1009B0000BD141EA00014FF000004FF0004CB6E7C8
:1009C00011F4801F04BF01430020B4F1FD0C88BF67
:1009D000BCF5E06F3FF6AFAEB5EB030C04BFB6EB72
:1009E000020C5FEA500C50F1000041EB045170BD65
:1009F0000EF0004E4EEA113114EB5C04C2BFD4EB92
:100A00000C0541EA045170BD41F480114FF0000E15
:100A1000013C90E645EA060E8DE60CEA135594EA91
:100A20000C0F08BF95EA0C0F3FF43BAF94EA0C0F94
:100A30000AD150EA01347FF434AF95EA0C0F7FF409
:100A400025AF104619462CE795EA0C0F06D152EA5D
:100A500003353FF4FDAE1046194622E750EA410641
:100A600018BF52EA43067FF4C5AE50EA41047FF452
:100A70000DAF52EA43057FF4EBAE12E74FF0FF3CB7
:100A800006E000BF4FF0010C02E000BF4FF0010C88
:100A90004DF804CD4FEA410C7FEA6C5C4FEA430C01
:100AA00018BF7FEA6C5C1BD001B050EA410C0CBF50
:100AB00052EA430C91EA030F02BF90EA020F0020B2
:100AC000704710F1000F91EA030F58BF994208BF19
:100AD00090422CBFD8176FEAE37040F001007047D6
:100AE0004FEA410C7FEA6C5C02D150EA013C07D12D
:100AF0004FEA430C7FEA6C5CD6D152EA033CD3D078
:100B00005DF8040B704700BF8446104662468C4671
:100B10001946634600E000BF01B5FFF7B7FF0028A4
:100B200048BF10F1000F01BD4DF808EDFFF7F4FFCD
:100B30000CBF012000205DF808FB00BF4DF808ED58
:100B4000FFF7EAFF34BF012000205DF808FB00BF7B
:100B50004DF808EDFFF7E0FF94BF012000205DF89D
:100B600008FB00BF4DF808EDFFF7CEFF94BF012052
:100B700000205DF808FB00BF4DF808EDFFF7C4FF4B
:100B800034BF012000205DF808FB00BF4FEA410C94
:100B90007FEA6C5C02D150EA013C0AD14FEA430C77
:100BA0007FEA6C5C02D152EA033C02D14FF00000B4
:100BB00070474FF0010070474FEA410212F50012F2
:100BC00015D211D56FF47873B3EB625212D94FEA94
:100BD000C12343F0004343EA505311F0004F23FA7E
:100BE00002F018BF404270474FF00000704750EAD3
:100BF000013005D111F0004008BF6FF00040704790
:100C00004FF00000704700BF4A0011D212F50012E9
:100C100011D20DD56FF47873B3EB62520ED44FEA54
:100C2000C12343F0004343EA505323FA02F07047D4
:100C30004FF00000704750EA013002D14FF0FF3012
:100C400070474FF0000070474FEA4102B2F1E043B5
:100C500024BFB3F5001CDCF1FE5C0DD901F0004CA3
:100C60004FEAC0024CEA5070B2F1004F40EB8300F3
:100C700008BF20F00100704711F0804F21D113F11F
:100C80003872BCBF01F00040704741F480114FEA58
:100C90005252C2F11802C2F1200C10FA0CF320FAE1
:100CA00002F018BF40F001004FEAC1234FEAD323FE
:100CB00003FA0CFC40EA0C0023FA02F34FEA430368
:100CC000CCE77FEA625307D150EA01331EBF4FF0F1
:100CD000FE4040F44000704701F0004040F0FE400C
:100CE00040F40000704700BF53B94AB9002908BF5B
:100CF00000281CBF4FF0FF314FF0FF3000F0A6B9C5
:100D0000ADF1080C6DE904CE00F03CF8DDF804E02C
:100D1000DDE9022304B0704738B500220023044601
:100D20000D46FFF70BFF28B920462946BDE838409D
:100D300000F00AB8204605F1004100F005F84042F5
:100D400061EB410138BD00BFD0B50C4B0022064617
:100D50000F46FFF781FCFFF757FF0446FFF702FC41
:100D6000074B0022FFF778FC02460B463046394617
:100D7000FFF7BAFAFFF748FF2146D0BD0000F03D6B
:100D80000000F0412DE9F047089E0D4604460F464D
:100D9000002B4AD18A42944665D9B2FA82F343B114
:100DA00002FA03FCC3F120029F4020FA02F217432B
:100DB0009C404FEA1C4E1FFA8CF5B7FBFEF1220C4B
:100DC0000EFB117742EA074201FB05F090420AD977
:100DD0001CEB020201F1FF3780F01C81904240F2CF
:100DE000198102396244121AA4B2B2FBFEF00EFB62
:100DF000102244EA024400FB05F5A5420AD91CEB87
:100E0000040400F1FF3280F00781A54240F2048122
:100E10006444023840EA0140641B00211EB1DC40FA
:100E20000023C6E90043BDE8F0878B4208D9002EB5
:100E300000F0ED800021C6E900050846BDE8F08716
:100E4000B3FA83F1002949D1AB4202D3824200F2C6
:100E5000F880841A65EB030201201746002EE2D0C9
:100E6000C6E90047DFE702B9FFDEB2FA82F3002BE2
:100E700040F090808A1A4FEA1C471FFA8CFE01212D
:100E8000B2FBF7F507FB1520220C42EA00420EFBED
:100E900005F0904208D91CEB020205F1FF3802D29E
:100EA000904200F2CB804546121AA4B2B2FBF7F092
:100EB00007FB102244EA02440EFB00FEA64508D9B7
:100EC0001CEB040400F1FF3202D2A64500F2BB8005
:100ED0001046A4EB0E0440EA05409FE7C1F120074D
:100EE0008B4022FA07FC4CEA030C05FA01F420FAC5
:100EF00007F3FD404FEA1C492343B5FBF9F81FFAFD
:100F00008CFE09FB18551C0C44EA054408FB0EF541
:100F1000A54202FA01F200FA01F00BD91CEB04041D
:100F200008F1FF3A80F08880A54240F28580A8F160
:100F300002086444641B9DB2B4FBF9F309FB13443B
:100F400045EA044403FB0EFEA64508D91CEB040445
:100F500003F1FF356CD2A6456AD9023B644443EAEB
:100F60000843A3FB0295A4EB0E04AC42C846AE4670
:100F700056D353D056B1B0EB080264EB0E0404FA1A
:100F800007F7CA40CC401743C6E900741846002151
:100F9000BDE8F087C3F1200102FA03FC20FA01F258
:100FA00025FA01F19D402A434FEA1C471FFA8CFEA7
:100FB000B1FBF7F007FB1015110C41EA054100FBEE
:100FC0000EF58D4204FA03F408D91CEB010100F17F
:100FD000FF382FD28D422DD902386144491B92B27D
:100FE000B1FBF7F507FB151142EA014205FB0EF1D3
:100FF000914208D91CEB020205F1FF3816D291424A
:1010000014D9023D6244521A45EA004138E731469C
:10101000304608E73946E6E61046FBE64845A9D2E1
:10102000B9EB020865EB0C0E013BA3E74546EAE786
:101030002B4694E74046D1E7D0467BE7023D624429
:1010400032E708460AE76444023842E7704700BFC7
:101050004FF4FA7008B504F063FA0A220D490E48FD
:1010600004F016FB10B10D4848F0EAF90A220C49C9
:101070000C4804F00DFB10B10B4848F0E1F90B48A7
:1010800007F09CF920B90A48BDE8084048F0D8B9F3
:101090000848F9E7A003002010040020BCFD040864
:1010A000C803002058040020CEFD0408400700209B
:1010B000E0FD0408EBFD040808B58021084805F0B0
:1010C00061FA431E012158425841064B18700648E8
:1010D00005F058FA421E054B50425041187008BDA9
:1010E000001802409C030020002002409D030020C5
:1010F000014B186808F010B908040020014848F0B6
:101100009FB900BFF9FD04080149002009F0BCBDEA
:10111000E525000808B5642007F0B6FFFBE708B531
:10112000FFF796FFFFF7C8FF012007F0ADFFF9E7D3
:1011300007B54FF0FF330190012201A9034807F0E2
:10114000E8FD019803B05DF804FB00BF8C070020A8
:1011500010B594B01022002102240AA848F0BEFD68
:101160001422002103A848F0B9FD1D4B192108A83D
:101170001A6C42F080521A641B6C03F08053019386
:10118000019B184B1A6842F440421A6001221B6806
:1011900003F440430293029B4FF48033CDE90823CC
:1011A0004FF48003CDE90E434FF4D873CDE91244D8
:1011B000CDE9101306F076FA05F018FF0F23002092
:1011C0000721CDE903344FF4A053CDE905034FF4D3
:1011D000805303A8079306F04DFC14B010BD00BF68
:1011E00000380240007000402DE98048A5B0BFF3F0
:1011F0004F8FBFF36F8FC94A0021C2F85012BFF35F
:101200004F8FBFF36F8F536943F400335361BFF3C4
:101210004F8FBFF36F8FC2F88410BFF34F8FD2F898
:10122000803043F6E074C3F3C900C3F34E335B016F
:1012300003EA0406014646EA81750139C2F86052A4
:10124000F9D2203B13F1200FF2D1BFF34F8F536936
:1012500043F480335361BFF34F8FBFF36F8F102779
:1012600004F03AF9002117A83A460024012548F075
:1012700035FD04F08FFC4FF01042A94B17A8ADF8D4
:101280005C504FF003091A944FF4805BA54E4FF069
:1012900002084FF0040ACDE9182304F099FC172343
:1012A00017A88DF85D508DF864308DF86A5004F001
:1012B0008FFC042004F07CFCFFF74AFF1422214637
:1012C00017A848F00BFD336B224639463B4396483E
:1012D0003363336B3B400293029B336B43F0020357
:1012E0003363336B03F002030393039B336B2B4392
:1012F0003363336B2B400493049B336B43F0400305
:101300003363336B03F040030593059B336B43F466
:1013100000733363336B03F400730693069B336BE4
:1013200043F008033363336B03F008030793079B11
:10133000336B43F480633363336B03F4806308934C
:10134000089B336B43F020033363336B03F02003BC
:101350000993099B336B43F480733363336B03F45A
:1013600080730A930A9B336B43F080033363336BC0
:1013700003F080030B930B9B336B43F00403336345
:10138000336B03F004030C930C9B05F001F92A4620
:101390000821664805F0FCF82A464FF4805164485D
:1013A00005F0F6F82246C021624805F0F1F8224621
:1013B0004021614805F0ECF817A95B48CDF868902A
:1013C0001994CDE9177504F05BFF082317A9574856
:1013D000CDE91735CDE9194404F052FF17A9544857
:1013E000CDE917B5CDE9194404F04AFF17A95048D3
:1013F000CDF86480CDE9175404F042FFC02317A94B
:101400004C48CDE91735CDE9194904F039FF80235F
:1014100017A94948CDF86480CDE9173404F030FFAE
:10142000402317A94448CDE91735CDE9194904F0FF
:1014300027FF326B0521382042F480023263326B81
:101440003E4E02F480020192019A224604F050FBC3
:10145000382004F07FFB052122463C2004F048FBA5
:101460003C2004F077FB364A3046C6E90A44C6E918
:101470000C44C6E90024C6E9024404F001FE2946F2
:101480003046304E04F0B4FE40214FF4C0732E4A73
:101490003046B460F461B462CDF85C80C6E90513EF
:1014A0004FF4006317A9C6E9083BDFF8A0B0072393
:1014B000C6E90024CDE9183ACDE91A39C6E903A7EF
:1014C000CDE91C8806F03CFE59464FF6FF723046C7
:1014D0000094CBE90057CBE9025406F051FE2846B0
:1014E00004F01EF859464FF6FF723046CBE90087EC
:1014F000CBE9025406F044FE082359464FF6FF722A
:101500003046CBE90097CBE9023406F039FE4FF4C0
:101510000C734FF6FF7259461AE000BF00ED00E071
:101520001B00000300380240000402400028024073
:10153000002002400008024000180240C4040020BD
:1015400000B002400C070020400100A0F003002082
:1015500000933046009B40F21529CBF80850CBF899
:101560000C30CBE900A706F00BFE40F22B713046A1
:10157000A14E06F024FE43F2D2024FF02043642035
:1015800040F2352B1A6003F0CBFF9C4B9C48346231
:10159000C6E900033046C6E90245C6E90444C6E987
:1015A000064405F01DF92146304605F03BFB214677
:1015B0003046944E05F05CFB3422214617A848F0D3
:1015C0008DFB914B4FF0280C4FF0350E3046B48612
:1015D000346186F83640C6E900340923C6E905C3FC
:1015E0000B23C6E907E340F21B13C6E9099340F257
:1015F0001D134FF08059C6E90BB3C6E9024405F04C
:10160000DFFBFF214FF480604FF4F0724FF48873DA
:101610001794ADF88C4022938DF88E40CDE91C14C0
:101620000521CDE91E014FF0404130461826CDE995
:101630002012CDE9182417A92246CDE91A3805F061
:101640008AFC7248724B4FF010680462C0E90035A2
:101650004FF4A063C0E902A7C0E90463C0E90644EF
:1016600005F0DEFD4FF4803A03F0B4FD694E03F05F
:10167000F7FC5C2004F07CFA00F034FD6648674B10
:1016800084600561846180F82040C460C56180F891
:1016900030504461C0E9003AC0E90A8903F052FFC2
:1016A0005F48604B848003600562C0E9054404F034
:1016B000BBFA1C22214610A80F94CDE90D4448F036
:1016C0000DFB2C22214617A848F008FBDFF89CC12F
:1016D00042F20F733046B4607461C6E900C340F251
:1016E000E733C6E903348023B36106F0EFFF20231C
:1016F0000DA930460F94CDE90D3407F081F822464C
:1017000010A930461694CDE91044CDE91244CDE934
:10171000144407F043F84FF4005317A930461B94C4
:101720001E942194404ECDE91C344FF00073CDE956
:101730001744CDE91F34CDE9194407F0ADF8DFF8BF
:1017400030E13A484FF41653C0E900E30C2304613A
:101750004462C0E90534C0E90244C0E9074407F027
:101760004CFB3A46214617A848F0B8FA304B3046B1
:10177000B4603561B46186F82040F460F56186F8A4
:1017800030507561C6E9003AC6E90A8903F0DAFE0D
:10179000082317A930461994CDE9173504F0E8F865
:1017A00000F0CCFC00F0C9FC07F0E0FB214A294620
:1017B000284607F021FD204B204A2146186020488A
:1017C00007F00EFC1F4B204A214618601F4807F007
:1017D00007FC1F4B1F4A214618601F4807F000FCFA
:1017E0001E4B1F4A214618601E4807F0F9FB1E4B8E
:1017F000186007F0D5FBFEE7C405002068474020CD
:10180000005C00401806002000680140C00600206F
:10181000001000A04007002010040020002001401C
:10182000A004002000300240580400208C07002053
:101830000022014070FE04080804002080FE040815
:10184000151100080C0400204CFE04084B21000870
:1018500000040020C8FE0408CD3900081808002044
:10186000A4FE04081F110008140800200000014015
:10187000001001400268034B9A4201D103F03EBEC2
:10188000704700BF00100040704700000D4B82B051
:101890000F216FF001001A6C42F080521A641A6C2A
:1018A00002F080520092009A5A6C42F480425A64CC
:1018B00000225B6C03F480430193019B02B004F0AF
:1018C00017B900BF003802401422002170B58AB059
:1018D00005460DEB020048F001FA2B68374A9342A7
:1018E00041D1374B012405A936485A6C364E42F493
:1018F00080725A645A6C02F480720192019A1A6BD7
:1019000042F001021A631B6B03F001030293029B76
:101910000323CDE9054304F0B3FC2C4C00234FF422
:101920008062C4E90063C4E9023322614FF40052CB
:101930004FF4006120466362C4E905124FF48072DF
:10194000C4E9072304F0E4F908B1FFF79DFF122072
:10195000AC6300220521A56304F0CAF8122004F04C
:10196000F9F80AB070BD1A4A9342FAD1144B4FF4F9
:101970008066184805A95A6C174C42F480625A6474
:101980005A6C02F480620392039A1A6B42F02002AE
:101990001A631B6B03F020030493049B0323CDE91C
:1019A000056304F06DFC4FF080630C482661C4E9C8
:1019B00000030023C4E90233B8E700BF0020014060
:1019C000003802400000024070640240040500201C
:1019D000002201400014024064050020106402400F
:1019E000026882B0084B9A420BD1D3F8302803F535
:1019F000006342F480521A631B6B03F4805301931B
:101A0000019B02B0704700BF003002400E4B07B58B
:101A100002689A4215D1A3F5F04305215A201A6BAA
:101A200042F400021A6300221B6B03F400030193CB
:101A3000019B04F05DF85A2003B05DF804EB04F05C
:101A400089B803B05DF804FB00B0024010B5A8B03F
:101A500004461422002102A848F040F98422002103
:101A600007A848F03BF92268174B9A422AD14FF455
:101A7000803307A8079306F0D9F808B1FFF704FFF1
:101A8000124C4FF4C07201211148236B43F08003C4
:101A90002363236B03F080030093009B1223CDE9A3
:101AA00002230323CDE90413042302A9069304F0BF
:101AB000E7FB236C43F400032364236C03F400036B
:101AC0000193019B28B010BD005C0040003802402B
:101AD000001C0240026808B5094B9A420FD1094A1E
:101AE00080210948136C23F40003136404F0AAFC5A
:101AF0004FF480710448BDE8084004F0A3BC08BD61
:101B0000005C004000380240001C024070B5ACB0E0
:101B100004461422002106A848F0E0F8842200219F
:101B20000BA848F0DBF82268484B9A4240F08C80C2
:101B30000823052001240B934FF4C0731093022354
:101B4000CDE911304FF400330BA8CDE9154306F071
:101B50006DF808B1FFF798FE3D4B002402250E26D4
:101B60005A6C06A93B4842F080625A645A6C02F0F3
:101B700080620092009A1A6B42F010021A631A6B8C
:101B800002F010020192019A1A6B42F400721A6379
:101B90001A6B02F400720292029A1A6B42F480628B
:101BA0001A631A6B02F480620392039A1A6B42F072
:101BB00040021A631A6B02F040020492049A1A6BF4
:101BC00042F480721A631B6B03F480730593059BC8
:101BD0001023CDE90635CDE908440A9604F050FB00
:101BE0004EF6FF7306A91C480A96CDE90635CDE9E5
:101BF000084404F045FBF72306A918480A96CDE9E6
:101C00000635CDE9084404F03BFB4FF4805306A9A8
:101C10001348CDE906350923CDE908440A9304F0B9
:101C20002FFB4FF4464306A90E480A96CDE9063528
:101C3000CDE9084404F024FB58202246052103F096
:101C400057FF582003F086FF2CB070BD006801409C
:101C500000380240001002400024024000280240E8
:101C60000018024000200240142200212DE9F0411A
:101C70008AB004460DEB020048F030F822682C4B85
:101C80009A4251D12B4B0225032409269A6B4FF01F
:101C9000040805A9284842F0020200279A639A6BBB
:101CA00002F002020192019A1A6B42F010021A63CA
:101CB0001A6B02F010020292029A1A6B42F00202B0
:101CC0001A631A6B02F002020392039A1A6B42F033
:101CD00008021A631B6B03F008030493049BCDE90D
:101CE0000585CDE9084604F0CBFA402305A9134841
:101CF000CDE905350A23CDE90774099304F0C0FA4C
:101D000005A90E480996CDE90585CDE9077404F0CB
:101D1000B7FA4FF4605305A909480996CDE905358E
:101D2000CDE9077404F0ACFA0AB0BDE8F08100BF59
:101D3000001000A0003802400010024000040240E1
:101D4000000C0240026808B50B4B9A4213D10B4AB3
:101D500004210B48936B23F00203936304F072FB9E
:101D60004421084804F06EFB4FF460510648BDE87A
:101D7000084004F067BB08BD001000A00038024016
:101D80000010024000040240000C0240026882B0D1
:101D9000074B9A420AD103F59C335A6C42F0010278
:101DA0005A645B6C03F001030193019B02B070471E
:101DB00000000140F0B5ABB004461422002104A895
:101DC00047F08CFF8422002109A847F087FF226892
:101DD000204B9A423CD1402309A8099305F026FFE5
:101DE00008B1FFF751FD1C4B0227002603255A6C52
:101DF000072404A9194842F010025A645A6C02F0F0
:101E000010020192019A1A6B42F002021A631A6BD5
:101E100002F002020292029A1A6B42F001021A6365
:101E20001B6B089403F001030393039B8023CDE90C
:101E30000665CDE9043704F023FA4FF4007304A9D2
:101E400007480894CDE90437CDE9066504F018FA8F
:101E50002BB0F0BD001001400038024000040240E9
:101E600000000240F0B5002387B00393294B1E68A1
:101E7000002E4DD10122022703250C241A6001A94E
:101E8000254B26489A6B42F001029A639B6B03F044
:101E900001030093009B4FF68373CDE90454CDE911
:101EA000013704F0EDF948F2331301A91C480594F9
:101EB000CDE90137CDE9036504F0E2F94CF2037393
:101EC00001A918480594CDE90137CDE9036504F06F
:101ED000D7F94FF63F0301A913480594CDE901371F
:101EE000CDE9036504F0CCF9282301A90F48059436
:101EF000CDE90137CDE9036504F0C2F9082301A952
:101F00000B480594CDE90137CDE9036504F0B8F934
:101F100007B0F0BD1C08002000380240001002404D
:101F200000180240000C024000140240001C024055
:101F300000080240214B1A6C42F0100270B51A647E
:101F400088B01B6C054601A903A803F01003029397
:101F5000029B05F04DFE069B4BBB05F029FE184E7B
:101F6000184B336040F2E733F360174BB0FBF3F3E9
:101F7000013B3046736000233361B360B36106F008
:101F800075FB044680B9304606F018FA044658B985
:101F9000362003F0DFFD0F2D0DD8224629463620CE
:101FA00003F0A6FD094B1D60204608B070BD05F08A
:101FB000FFFD4000D3E70124F6E700BF00380240F0
:101FC000200800200010004040420F004000002088
:101FD0007047FEE7FEE7FEE7FEE77047044808B5F6
:101FE00003F0F7FB0348BDE8084003F0F2BB00BF75
:101FF0001004002058040020014806F021BA00BF58
:1020000020080020014803F07DBF00BF64050020C8
:10201000014803F077BF00BF04050020014804F029
:102020003DBF00BF18060020014804F057B800BFAC
:10203000C40400200120704708B549F011FE1623A2
:1020400003604FF0FF3008BD08B549F009FE1623C4
:102050000360FEE770B50D4614460E46731B9C42A6
:1020600001DC204670BDAFF3008006F8010BF5E7F8
:1020700070B50D4614460E46731B9C4201DC20468B
:1020800070BD16F8010BFFF753F8F5E74FF0FF307E
:1020900070474FF4005300204B6070470120704799
:1020A000002070470B4A0346116810B509B90A4968
:1020B0001160106809490A4C0344091B8B4206D978
:1020C00049F0CEFD0C2303604FF0FF3010BD1360CC
:1020D000FCE700BF70080020D07A01200000052036
:1020E000000A000070470000DFF834D0002103E050
:1020F0000C4B5B58435004310B480C4B42189A422E
:10210000F6D30B4A02E0002342F8043B094B9A4203
:10211000F9D303F0F7F849F0A9FDFFF765F8704728
:1021200000000520449205080000002080030020E4
:1021300080030020CC7A0120FEE7704708B501F04B
:10214000F7F8BDE8084001F083B801F0F3B8406843
:1021500070474160704700004FF0E022D2F8FC3D2C
:1021600043F08073C2F8FC3D054B064AD3F8B01F1C
:102170000A43C3F8B02F1A6842F001021A60704790
:10218000001000E055CEACC5511A01EB5301B1FB74
:10219000F3F07047014B5868704700BF001000E033
:1021A000704710B504460C212AF08BFC204610BD68
:1021B000036810B51B69044631B19847A26863688B
:1021C0009B1A1844606010BD9847A060FBE70000B0
:1021D000024B7020024A1360DB681847140000208D
:1021E00074080020704710B5044604212AF069FCE9
:1021F000204610BD73B50E4E0D461446336813B914
:10220000002002B070BD1B69702098470028F7D0ED
:102210003368702001AA0DF106015B699847BDF88B
:10222000043001202B60BDF806302360E9E700BFD1
:10223000740800207FB501238DF817204FF47A72BF
:10224000CDE901320DF1170200920A460146054818
:1022500004F030FB10B1034804F013FB07B05DF845
:1022600004FB00BFC40500207FB500230A464FF4DD
:102270007A718DF817300123CDE901310DF1170185
:1022800000910146054804F0EFFB10B1034804F04B
:10229000F8FA9DF8170007B05DF804FBC4050020AC
:1022A000032823D8DFE800F0020B131A104B10218B
:1022B00010481A68B2FA82F2520904F069B90C4B5C
:1022C00040215A68B2FA82F252090B48F5E7084BEE
:1022D00080219A68B2FA82F25209F6E7044B402153
:1022E0000648DA68B2FA82F25209E6E7704700BFA0
:1022F0007808002000040240000802400018024054
:10230000032823D8DFE800F0020B131A104B10212A
:1023100010481A68003A18BF012204F039B90C4B72
:1023200040215A68003A18BF01220B48F5E7084BD4
:1023300080219A68003A18BF0122F6E7044B402139
:102340000648DA68003A18BF0122E6E7704700BF86
:1023500078080020000402400008024000180240F3
:1023600003280FD8DFE800F00206090B1021064809
:1023700004F013B940210548FAE78021FBE740212A
:102380000348F5E7704700BF000402400008024020
:102390000018024008B5032813D8DFE800F0020A4D
:1023A0000D0F1021084804F0EDF8431E5842584123
:1023B00008BD40210548F6E78021FBE7402104489D
:1023C000F1E70020F1E700BF0004024000080240EE
:1023D0000018024070B5084D00240126E0B2FFF756
:1023E000D9FF18B12B68012B18BF2E6001340435BA
:1023F000052CF3D170BD00BF78080020012380F8C0
:10240000781080F8793070470020704741640039B7
:10241000024B18BF01211970704700BF37580120C7
:1024200000207047836B0BB10846184770474FF682
:10243000FF707047406803689B6918477047000049
:1024400038B5044601F080F8084923682046084D55
:10245000D3F88C3098470023284684F84A30FFF799
:102460007BFE0123256184F8703038BD000000C078
:102470008808002001F01EB801F022B870B501F004
:102480008DF810490023C1F88430BFF34F8FD1F885
:10249000803043F6E074C3F3C900C3F34E335B01ED
:1024A00003EA0406024646EA8275013AC1F874520C
:1024B000F9D2203B13F1200FF2D1BFF34F8FBFF3BE
:1024C0006F8F70BD00ED00E001F06AB800F0CEBF84
:1024D00001F084B901F08CB900F0D2BF10B5044608
:1024E00017F09CF923682046D3F8AC30BDE81040C3
:1024F000184716F0F1BB10B504467C212AF0E1FA2A
:10250000204610BD90F87A301BB1406803681B6804
:10251000184718467047000090F834100D4B10B55E
:1025200090F878401A788C4209D03AB90A490B4A97
:1025300008881488108001220C801A7010BD002AAF
:10254000FCD0064A0449148808880C8010800022B8
:10255000F3E700BF305801202E5801202C580120ED
:1025600070B50D46194635B9094B40F2D221094ADA
:10257000094844F0D1FDC0E90F52003A074B18BF9B
:1025800001221A700368BDE87040D3F88C301847F8
:102590002CFF040864FF0408B2FF04083658012029
:1025A00008B5094B1B888B4203D8084B1B88934204
:1025B00005D9074B9E21074A074844F0ADFD074B5C
:1025C0001980074B1A8008BD2C5801202E58012075
:1025D000F7FF04085A000508B2FF0408325801202A
:1025E00034580120014608B5034B186801B1012198
:1025F00017F02EF9012008BD38580120034B0022A6
:102600005A609A60024A1A60704700BF880800202A
:10261000F4FE04080121002208B5084606F0ECFD8E
:102620000A4B186028B90A4B28210A4A0A4844F084
:1026300073FD00220421012006F0A4FE074B186060
:1026400018B9074B2C21034AF0E708BD9808002071
:1026500078010508C1010508F0010508940800206B
:102660005B020508024B4FF0FF31186806F01ABEF6
:1026700098080020014B186806F04EBE980800200C
:10268000024B0021186806F00DBE00BF980800201C
:10269000FFF7F0BF0023034803491A46006806F01D
:1026A000B7BE00BF940800200800002013B5002327
:1026B000074C01A91A46206806F0ECFE4FF0FF33E4
:1026C000002201A9206806F0E5FE02B010BD00BF9F
:1026D0009408002003685B6C18470120704703686A
:1026E0009B6A18470D4B82B01A6B42F400021A63C2
:1026F0001A6B02F400020192019A1A6942F4000274
:102700001A611A6922F400021A61054B054A1A611E
:102710004FF08062044B9A6002B07047003802406C
:10272000C40400206D27000800E100E040F2EF3013
:1027300070470000054B4FF080620360044BC3F804
:102740008820BFF34F8FBFF36F8F704718040508C1
:1027500000E100E010B504464FF45A61FFF7EAFFCC
:1027600020462AF0AEF9204610BD0000024B1B683F
:10277000586803685B6918473858012070B50446EB
:102780000A4B0C3000262546602260602672667275
:1027900045F8203B294617F097F904F55A63EE6097
:1027A0002435AB42FBD1204670BD00BF180405089C
:1027B00008B50B290BD8DFE801F01206100A0A0A47
:1027C0000A0808080808012008BD0520FCE7054B99
:1027D0006521054A054844F09FFC0020F4E70220EB
:1027E000F2E700BF9D020508B802050802030508CC
:1027F00008B50A2909D8DFE801F010060E08080814
:10280000080606060600012008BD054B8621054A7C
:10281000054844F081FC0020F6E70220F4E700BF01
:102820009D0205086B030508020305082DE9F8431E
:1028300091F81D800C4607464146FFF7B9FF94F812
:102840001E90054638464946FFF7B2FF4946064600
:102850003846FFF7CDFFA18A628B434B521A1A64A8
:102860009A61228B521A1A61E28A586342EA014243
:1028700020695A646268D863DA602768802F28D09C
:10288000227F0FD8202F65D0402F63D0042F1AD07D
:1028900045EA0265344BC84545F40035DD615FD03B
:1028A000324A44E0B7F5807F04D0B7F5007FEFD11E
:1028B0002F4900E02F4941EA0262DA61E2681A62B8
:1028C0005E62586132E045EA026242F40032DA6147
:1028D000F6E7A7683A1DDA62217F3A7845EA016592
:1028E00045F40035DD615E62586142B1012A21D0B4
:1028F000214B4FF48871214A214844F00DFCDA69DC
:10290000798822F47F42013922F0100242EA012242
:102910000121DA61144BDA6942F02002DA61DA69E6
:102920009206FCD410229A600029B9D0154A1A6088
:10293000BDE8F883DA69FF39788822F47F4218BF4E
:102940000121013822F0100242EA002242F0100276
:10295000DA61DFE745EA0262034B42F40032B6E790
:1029600040F20122E3E700BF00B002400102010093
:10297000090002000A000200B6030508D00305089A
:10298000020305080102020038B50C46897FFFF7F3
:102990002FFF174BA58AE28A586342EA0542216954
:1029A0005A64628BD963521B1A642568082D0ED1B4
:1029B0009A611A6158620F4A207F42EA0062DA6126
:1029C000E2681A620C4A5961D9601A6038BD002267
:1029D000D8611A61E1680A0A4809C1F3C40102F426
:1029E000784200F4FC6002430A439A63034AECE72E
:1029F00000B00240090001000102020001020300D0
:102A00004069704790F844007047036B23B9C06A6F
:102A1000003818BF01207047012070478068704758
:102A2000043010B50C460FC884E80F0010BD704785
:102A300008B5034A40F21221024B034844F06CFBF4
:102A400060040508931D0508BB04050810B504467D
:102A500048212AF036F8204610BD00002DE9F04349
:102A60001C46436BADF51F7D05460E461746002BF1
:102A700037D0002203A8DFF8A890CDE901320EF08C
:102A800063FE4FF4F4725021249024A808F0ABFDAB
:102A90003A46314624A809F027FD012124A808F070
:102AA000A5FE022324A88DF8D83008F043FFBDF816
:102AB00098322B9ABDF89C629342A89F28BF134678
:102AC000419A964203EB4308A7EB430728BF1646FB
:102AD000479B9E4209D824A808F0AAFE24A808F023
:102AE000CFFD0DF51F7DBDE8F083012201A924A8CB
:102AF00008F069FF6B6B03EB0800984201D83C4477
:102B0000E6E759789A78C90009EA022201F4FC61E3
:102B10000A4313F8031B42EAD10224F8022BECE724
:102B200000F8FFFF0A4A02600022C0E90522C0E95E
:102B30000722C0E90922C0E90B22C0E90D12C0E951
:102B40000F2280F84420C0E90322C0E90122704727
:102B5000B807050810B40C4611461A46036B3BB182
:102B6000036C806BE41A20445DF8044B47F0B0BA64
:102B7000C06AF8E7036B10B573B1036C826BC91AB6
:102B80005318525C98785C780004DB7840EA0420A3
:102B9000104340EA036010BDC36A5858FBE7036B5B
:102BA00043B1036CC91A836B5A18585C527840EAD7
:102BB00002207047C36A585A7047000070B5044637
:102BC000006B0D461646D8B1E36B934208D2092339
:102BD0000D4A65210D4884F844300D4B44F09CFAB1
:102BE0000368DB689847206B3246A16B03681B695A
:102BF000984710B90D2384F84430A06B256470BD4C
:102C0000E06A0844FBE700BF43050508BB0405086C
:102C1000300505082DE9F843436904462BB9234BD9
:102C2000AA21234A234844F077FA08228169FFF752
:102C3000C5FFA16943F2300646F2643704312046ED
:102C4000FFF798FFA3691844A36A00F108029A42AB
:102C500006D3012300206361236AA361BDE8F883E2
:102C6000636909300822013320F0010120466361C5
:102C7000A161FFF7A3FFD4F8189020464946FFF75B
:102C80008EFF09F1020180462046FFF788FF09F117
:102C9000040105462046FFF76DFFB045D2D1BD4285
:102CA000D0D10028CED00120D8E700BF8505050887
:102CB000CE050508BB0405082DE9F04F0446ADF527
:102CC0001F7D8A461646816908229846FFF776FFDF
:102CD000A7692046391DFFF74DFF07F1080102469D
:102CE00005462046FFF76AFF636B074633B93C4B46
:102CF00040F2AB113B4A3C4844F00EFA002203A8D4
:102D0000CDE901320EF020FD4FF4F47250212490F1
:102D100024A808F068FC2A46394624A809F0E4FBF8
:102D2000012124A808F062FD022324A88DF8D830E0
:102D300008F000FEBAF90250479BAB4229D3BAF91A
:102D400000904FEA4808BAF804702B9B08FB056610
:102D50004F44BAF80250DFF894B03FB29F4228BF08
:102D60001F46BAF8063009EB490A1D44419B2DB2B3
:102D70009D4228BF1D46479BAB4210D324A808F0B4
:102D800057FD24A808F07CFC01200DF51F7DBDE84F
:102D9000F08F012201A924A808F015FECCE701223A
:102DA00001A924A808F00FFE626B49465244B942BB
:102DB00002F1030201D34644DDE712F8020C12F8D7
:102DC000013CC0000BEA032300F4FC60034312F84B
:102DD000030C43EAD00326F811300131E7E700BFC6
:102DE0000106050857060508BB04050800F8FFFFA3
:102DF0000129036838BF0121DB6A70B50D4604461E
:102E00009847A84204D223682046DB6A98470546C3
:102E10006B1EE6691022204606EB031606F1080138
:102E2000FFF7CCFE06F110012046FFF7A3FE236A50
:102E3000043B0344C4E9055370BD00002DE9F34190
:102E4000002104464822816180F84410FFF7B6FE55
:102E5000A7690423634A39462046FFF77BFE40B149
:102E60000323614AF22184F84430604B604844F007
:102E700053F907F1080104235E4A2046A161FFF7D8
:102E800069FE30B10423584AFA2184F844305A4B81
:102E9000ECE707F10C010423584A2046A161FFF733
:102EA00059FE064638B105234F4A40F2011184F815
:102EB0004430534BDAE707F110012046FFF75AFE82
:102EC000054620B94F4B40F20711474ACEE707F1BC
:102ED000140804234C4A20464146FFF73BFE0028D5
:102EE0004BD0062384F844300423484A07F11801E4
:102EF0002046FFF72FFE002841D0072384F84430F6
:102F00004544434F0C2220462946FFF757FE05F162
:102F1000080604233A4620463146FFF71BFE94F884
:102F2000443000284AD0002B4AD1A36A291DAB4265
:102F30004AD805F10C03291D2046A3610191FFF732
:102F400019FE3044019960622046FFF713FE0644E3
:102F5000042220463146FFF731FE04232D4A314634
:102F60002046FFF7F7FD002839D10123E6616361B0
:102F7000A369236202B0BDE8F0810126B4E7002E08
:102F8000BED007F120012046FFF7F4FD4FF47A731D
:102F900007F13001B0FBF3F060602046FFF7EAFD77
:102FA00007F14001A0602046FFF7E4FD07F144016E
:102FB000E0602046FFF7DEFD2061A1E7002BB8D0DE
:102FC0000A2384F84430D5E72046FFF7D3FD0830C4
:102FD0000C22054420462946FFF7F0FD97E70B2316
:102FE000EFE700BFB1060508CF060508B6060508DD
:102FF000BB040508FC0605080107050819070508B4
:103000001E07050834070508400705084507050899
:103010004A0705084F070508C0E90A210022026394
:10302000FFF70CBF10B5002304460846E3620B68A7
:1030300021639B689847A0622046BDE81040FFF7D7
:10304000FDBEF0B4BDF81050BDF814602AB123B134
:10305000CDE90456F0BCFFF701BDF0BC704700009D
:103060002DE9F04F9946436985B004460F469046D6
:103070002BB92A4B77212A4A2A4844F04DF80822D6
:103080008169FFF79BFDA66920463146FFF787FD62
:10309000B11C83462046FFF782FD311D8246204643
:1030A000FFF768FD06F10801A36A054642189A4237
:1030B00027D243F230039B4517D146F264339A4539
:1030C00013D190B10246A1612046FFF777FD0E9B18
:1030D00001462A462046CDF80080CDE901933B46C3
:1030E000FFF7AFFF636901336361A3692B448DB1BF
:1030F000A361A369626A013323F001039342A361D0
:103100000AD10120236A6061A36180F0010005B04B
:10311000BDE8F08F0833EBE70020F6E785050508EA
:1031200054070508BB040508012070470C207047B0
:103130000C2303FB0100083070470C2303FB010044
:1031400008307047012070474FF45E7070474FF4AD
:103150005E7303FB0100083070474FF45E7303FB9E
:10316000010008307047012070471020704700EBC5
:1031700001100830704700EB011008307047084616
:1031800000F03CBE034B10B50446036015F0FAFA9C
:10319000204610BD6008050810B50446FFF7F2FF91
:1031A0001421204629F08DFC204610BD034B10B59C
:1031B0000446036015F0E6FA204610BD2C08050809
:1031C00010B50446FFF7F2FF4FF46071204629F076
:1031D00078FC204610BD0000034B10B50446036088
:1031E00015F0D0FA204610BDF807050810B50446C2
:1031F000FFF7F2FF1821204629F063FC204610BD9E
:10320000084B10B50446036000F56B70FFF7BAFF7A
:1032100004F12C00FFF7CAFF04F11400FFF7DCFFF4
:10322000204610BD9408050808B50248FFF7E8FFDE
:1032300008BD00BFA008002010B50446FFF7E0FF5E
:103240004FF4AD61204629F03CFC204610BD000043
:103250002DE9F34100F052FC0024054600F052FC39
:10326000234601462246284600941BF0C7FF254B03
:10327000254A2046254D1A6001F01AF824481BF013
:1032800025FF2B68BFF35B8FDB0735D4284629F079
:103290001AFC88B31F4C204B04F5816604F114001E
:1032A00004F12C0804F56B7723606060C4F8088093
:1032B000E760266115F068FA184B4046636115F027
:1032C00063FA174B3846E36215F05EFA154B04F5C6
:1032D0007070C4F8AC3301F0ABFB224604F570719A
:1032E000304601F03BFB304600F088FD0E4843F0CD
:1032F00031FF284629F0F3FB0C4802B0BDE8F0414D
:10330000FFF79EB894580120281C00209C0800203C
:103310000C000020A008002094080508F807050804
:103320002C0805086008050829320008AC1B00209D
:1033300070470000014815F038BD00BFAC1B0020ED
:1033400070B5224E224B234C3046234D2360FFF7AD
:1033500015FA284620F02CFA204B00224FF48071F9
:103360001F481A8683F858205A6683F870205A67D7
:10337000DC60C3E912121B49C3E91A121A499967A2
:103380001A490B604FF4F0710180194801804FF425
:1033900088711848C3E90422C3E90622C3E9082258
:1033A000C3E90A22C3E90E22C3E91022C3E91422A9
:1033B000C3E91722C3E9016501800F4883F834206F
:1033C00001800E490A700E4A1A6070BD0C0E002072
:1033D0001CFF0408080E00202C1C0020AC1B002041
:1033E0002C58012001000001000001013858012083
:1033F000325801202E580120345801203058012025
:10340000A80005080148FFF795B900BF0C0E002081
:103410000020704781807047C180704701817047EC
:10342000418170477047704770477047704710B4CC
:10343000C4880368121B84885B6D091B12B25DF897
:10344000044B09B218474FF6FF7383814FF0FF33E7
:1034500003621368C3611060704790F825201AB1A9
:1034600090F8242002B1186070470000034B9022AE
:1034700083F85A2383F85823704700BF00E100E027
:10348000094A0A49D3680A48C3F30A03013B9BB2BD
:103490000B801169C1F30A01013901801364536B78
:1034A00043F0010353637047006801400A1D002088
:1034B000081D0020014BD3F8AC00704700680140A4
:1034C000024B0122C3F8AC105A62704700680140F9
:1034D000124A5369DB0370B51ED50023C2F884304D
:1034E000BFF34F8FD2F8803043F6E074C3F3C900C6
:1034F000C3F34E335B0103EA0406014646EA8175D5
:103500000139C2F87452F9D2203B13F1200FF2D1E5
:10351000BFF34F8FBFF36F8F70BD00BF00ED00E0B2
:1035200070473823002201FB0333C25490F838302F
:103530000BB9036C83647047704710B5044658217B
:1035400029F0BFFA204610BD38B5044615F019FC25
:1035500023685D6E18F00CFC01462046A8472368DE
:10356000084A2046D3F888500023A2F57F31A847A7
:10357000054B064A5A60064A1A649A644FF4FF22C1
:103580005A6438BD00F807C0B01C00208C2400200D
:1035900000F40BC015F0DCBB15F0E6BB15F0A2BBC8
:1035A00015F011BD90F8252012B103685B6918472A
:1035B0007047000008B531B1044B40F29711044A3E
:1035C000044843F0A9FD90F8390008BDA00805089B
:1035D000B4080508410A050810B531B1064B40F2A0
:1035E0009111064A064843F097FD4068114603686A
:1035F000BDE810401B6B1847A0080508830A0508A2
:10360000410A050808B529B1034B7A21034A044849
:1036100043F082FD006908BDA0080508340C0508C8
:10362000410A050808B529B1054B8321054A06481A
:1036300043F072FD41618160C0E9063208BD00BF00
:10364000A0080508EC0D0508410A050810B5044658
:1036500029B1274BA421274A274843F05DFD052ABD
:1036600034D8DFE802F003292F34393E406803687C
:103670001B69984750B34FF0FF31606D05F062FD54
:103680000023012294F83E1084F83B3084F839205E
:10369000A360636101B1226284F83E306362E36A31
:1036A0002BB90123206D84F83A3005F035FE606DAA
:1036B000BDE8104005F076BD002380F8393084F86D
:1036C0003E3003E0036200238360436110BD036268
:1036D000002383604361F2E7002380F8393001233F
:1036E000EDE7003B18BF012380F83D30EEE700BF57
:1036F000A0080508AB0F0508410A050870B5044687
:10370000164629B1314BE721314A324843F004FDD6
:1037100090F8393033B1304B1B6893F86B20436914
:1037200013444361E36A002B4DD0E169D4E90532CB
:103730005343A2684A43934220D2236A002B42D0CB
:103740004FF0FF31606D05F0FDFC236A0BB10023E3
:10375000E362E36AFBB90125606D05F023FD94F88F
:1037600039300BB9236A3BB1E36A2BB90123206DD1
:1037700084F83A3005F0D0FD284670BD94F84C002E
:103780000028DDD09B1AB3FBF1F2994298BF02F1F9
:10379000FF326262D4E7002294F83C50A3623046C4
:1037A000E262E2682261A2680132A2603363336898
:1037B0005B699847002DCED194F83D30002BCBD1DA
:1037C00084F83950C8E70125C9E700BFA0080508FB
:1037D00082110508410A050838580120034B4FF0B3
:1037E00080629A604FF080729A60704700E100E05A
:1037F000084B4FF08062C3F88820BFF34F8FBFF3B0
:103800006F8F4FF08072C3F88820BFF34F8FBFF3E4
:103810006F8F704700E100E038B5034690F838003C
:1038200038BB01229860D8609A634FF48072586167
:103830009A874FF4F0729861D86118625862986262
:10384000D8621863586383F83E00CA864FF48872C2
:1038500081F834000A8708639A6C186102F5FF2426
:10386000D3E9101529448C420AD9084B5821084A3B
:1038700003E0084B40F2F511074A084843F04CFCBE
:103880001A6302F57F329C645A6338BDE014050860
:10389000201505082613050856130508410A0508D2
:1038A00010B5144C236823B3134B144A1B6C1188B6
:1038B0008B4213D1124B198803F07AFB226892F8DD
:1038C0006A30013382F86A30FEF7E4FE206815F0B2
:1038D000A5FF0020BDE81040FEF7E2BC03F068FB46
:1038E000206803681B6A98470020BDE81040FEF777
:1038F00007BD10BD38580120006801400A1D002096
:10390000081D00202DE9F74304464FF4707894F821
:103910003A304FF0FF31002B31D0606D05F012FCD2
:10392000276BA36ABB4200D1676B266A656856B3F2
:103930002B68314628465B6A98470023236284F847
:103940003B30606D05F02EFC2B684FF4F072394669
:10395000CDF8008028465E694FF48873B0474FF079
:10396000FF310646606D05F0EDFB94F83B30E3B1A6
:10397000002384F83B30606D05F014FCC7E7206D30
:1039800005F090FCC3E7636A002BDAD02B68284669
:10399000D3E909939847616A01442846C847A36858
:1039A000626A66621344A360CBE7E7625EB12B688C
:1039B00028469B6A984701380023E06084F83C6001
:1039C00084F83A30D7E70120F6E70000014808B54F
:1039D000FFF798FFB01C00200368042270B504466E
:1039E0005E6A00230D46B0474FF0FF31606D05F071
:1039F000A9FB382303FB0542D16A09B10021D1623A
:103A000003FB0545012385F83B30002385F8393059
:103A1000606DBDE8704005F0C5BB38B500EB8103B3
:103A200004460D46114658680368DB6898472946E6
:103A30002046FFF7D1FF38BD70B50D46114604464C
:103A400000EB85025068026896681A46B04729461E
:103A50002046FFF7C1FF70BD38B51649002516484E
:103A6000FFF760F8154C164B01202A4629462360C3
:103A70004FF48073A564A38784F84C0084F83E500B
:103A8000C4E91055C4E91455C4E90155C4E9035506
:103A9000C4E90555C4E90755C4E90955C4E90B55FE
:103AA000C4E90D5505F0A8FB2065284605F006FB86
:103AB000606538BD0C1D00208C240020B01C002047
:103AC000D0160508704710B50446042128F0F9FF08
:103AD000204610BD012908B506D0022908D059B9E1
:103AE00000F032FC006808BD00F02EFC4068FAE7E8
:103AF00000F02AFC8068F6E70020F4E700487047F1
:103B0000181705080920704713B5002451B1036840
:103B100001AA01948DF803409C680DF10303A047AE
:103B200002B010BD0846FBE7C0897047008A7047A5
:103B3000C088704780887047807A00F07F007047A7
:103B4000807AC0097047704710B50446082128F0F4
:103B5000B8FF204610BD7047704700F5987308689D
:103B6000496803C3704770477047416070477047AA
:103B7000064BC0F84801C0F84C310023C0F8503162
:103B800000F5A273C0F84031704700BF353C000813
:103B90000123037270477047704710B441680346B1
:103BA000C2689B68541001EB6200D20748BF0A59F3
:103BB0005DF8044B48BFD358184743682BB183685E
:103BC0002BB9C06800F0010070471846704701200B
:103BD000704710B504460C2128F073FF204610BD35
:103BE00010B50446102128F06CFF204610BD10B51A
:103BF00004464FF4AE7128F064FF204610BD10B5A6
:103C000018F0B6F80368BDE81040DB6B184710B534
:103C10000446D0F8400158B10368DB68984738B1D2
:103C2000D4F8400103689B6898470023C4F84031EA
:103C300010BD00002DE9F14FD0E9555A0746A8689C
:103C400003681B6A9847B0F55E7F05D2454BA321F8
:103C5000454A464843F060FA686803681B6A98471B
:103C60000F2803D8424BA4213F4AF2E7E8680368D3
:103C70001B6A98470B2803D83E4BA5213A4AE8E730
:103C8000DFF8F89018F074F8043018F096F8D9F8C6
:103C9000000010B10368DB689847D9F8000010B144
:103CA00003681B689847DFF8D880D8F8000010B187
:103CB00003685B699847D7F83C0110B103685B68FB
:103CC0009847D8F8000010B103681B689847D7F8E8
:103CD0003C0110B103689B689847E86800214FF0E9
:103CE000000B03685B6A9847234B0446C0F804B096
:103CF0000360594680F808B0A86803685B6A984773
:103D0000064601F0C7F86868594603685B6A984739
:103D10000546314601F098F8C9F80040C7F83C5113
:103D2000C8F80060E5B12B1DCAF800303046336892
:103D3000C5F808A0DB68F56398472B6828461B6820
:103D400098472146304619F001FD236820461B693B
:103D50009847236820465B6901B0BDE8F04F1847DB
:103D60002B46E1E7DC1705086A1805087A190508EB
:103D7000C1190508641A05087C1B0508785801203C
:103D800074580120044B1B6893F858200AB1D86C72
:103D900000B99868704700BF38580120F8B504464C
:103DA00017460E4618F0AAF8104B00251C6029464D
:103DB0000F4B23600F4BC4E951350F4B1868C4E912
:103DC00053550368C4E94F559B68C4E95576984735
:103DD000284600F06DFAFFF7D5FF21F018FBFFF73A
:103DE000D1FF21F08FFB2046F8BD00BF8458012091
:103DF000281B0508101B050838580120064BC0F881
:103E00004801C0F84C310023C0F8503100F5A273CE
:103E1000C0F84031704700BF353C0008406A704729
:103E2000806A704770478B88C069DB0A0A6850F85F
:103E300023001044704710B5C2B1137BB3B1547B5B
:103E4000D27A240204F4E0641443026A98B202EBCA
:103E5000840213888B4202D192F9020010BD05D86A
:103E60000138043280B20028F3D1F7E70020F5E7EB
:103E700010B504462C2128F024FE204610BD000079
:103E800030B58BB00446BDF860500895BDF85C5065
:103E900007959DF8505006959DF84C5005959DF856
:103EA000485004959DF8445003959DF84050029564
:103EB0009DF83C500195BDF83850009519F07EF8FA
:103EC000064B20462360159BE361169B2362199BDA
:103ED00063621A9BA3620BB030BD00BFA01B050834
:103EE0007047704770477047704730B585B00368BA
:103EF000044601816D460146D3F884303C3428469F
:103F0000984795E8070084E8070005B030BD30B554
:103F100085B00368044641816D460146D3F884307C
:103F20003C342846984795E8070084E8070005B028
:103F300030BD0022028042808280C280704780F8BB
:103F400036107047036870B504461B6B15469847DA
:103F50002368204629465B6EBDE870401847002064
:103F60007047806C7047704710B504464C2128F0AC
:103F7000A8FD204610BD08B5FFF714FB08BD0000E2
:103F8000036870B55E6B0446114B8DB21B682BB98C
:103F9000104B6C21104A114843F0BEF81049828D35
:103FA0000988914203D80F4B6D210B4AF3E713F8B0
:103FB00012200D4B1B6853F8220003681B6B9847B7
:103FC000281A334601B22046BDE87040184700BFAA
:103FD00088580120F81B05083A1C0508751C0508BF
:103FE0008C580120BC1C05089058012000224FF07D
:103FF000FF318260C0E900217047036870B5044654
:104000001B6B154698472368204629465B6BBDE825
:10401000704018474FF48071002281840D4902637B
:1040200081624FF6FF71028781854FF47F01C26381
:1040300041630949826401604FF0FF31C0E9012208
:10404000C0E90322C0E90522C0E90722C0E9101235
:10405000704700BFD4170508041D0508704700000D
:1040600030B5164D8FB02C68BFF35B8F14F0010490
:1040700020D1284628F027FDE0B13F230122104936
:104080000993104B10480893104B0A940594CDE9FE
:1040900006430423CDE903320A23CDE90B44009300
:1040A000CDE90144FFF7ECFE094843F053F82846F8
:1040B00028F015FD04480FB030BD00BFD424002007
:1040C00080E007908C910508D8240020EC91050829
:1040D0005D4000087047000030B5164D8FB02C6869
:1040E000BFF35B8F14F0010421D1284628F0EBFCCC
:1040F000E8B1114B242211490893114B1148079341
:10410000012301940493CDE905330423CDE902434F
:104110001423CDE90B4400931823CDE90944FFF79C
:10412000AFFE094843F016F8284628F0D8FC0548A9
:104130000FB030BD042500209091050890E0079055
:10414000F091050808250020D540000870470000C0
:1041500030B5164D8FB02C68BFF35B8F14F001049F
:1041600020D1284628F0AFFCE0B13F2301221049BE
:104170000993104B10480893104B0A940594CDE90D
:1041800006430423CDE903322823CDE90B440093F1
:10419000CDE90144FFF774FE094842F0DBFF2846F1
:1041A00028F09DFC04480FB030BD00BF342500202E
:1041B00088E20790E891050838250020F491050869
:1041C0004D41000800207047002070470EB403B531
:1041D00003AB002153F8042B019318F017FD02B034
:1041E0005DF804EB03B070470CB407B504AB53F8AB
:1041F000042B019318F00AFD03B05DF804EB02B044
:1042000070470000436C10B5044673B3038F2BB99D
:10421000184BC521184A194842F07EFFC38E00EBA7
:1042200043035B8C0BB319F0A9FF238F012B03D839
:10423000134BCB21134AEEE7E28E40F63F10531C9E
:104240009BB2092B194688BFA3F10A0104EB410177
:10425000498C814209D10A2B04EB420228BF00237A
:10426000508C04EB4303588451842046BDE8104031
:1042700019F086BE8C1D0508951D0508401E050811
:104280008A1E0508981E050819F043BE10B586B0B1
:1042900002AC84E806001A460AAB21460593019356
:1042A000099B0093089B17F0E5F806B010BD0000CD
:1042B00038B518BB124B13481C681349B4B12268B7
:1042C00022440260626822440A60A26814440F4BD0
:1042D00000221A8000F038F8054600F033F80C4B45
:1042E0001C600C4B1D600C4B188007E00B4B0360EF
:1042F0000B4B0B600B4B1C68002CE8D138BD00BF8A
:1043000064250020682500206C25002070250020F1
:1043100088580120905801208C580120D8E207903D
:1043200098E20790BCE30790044B1B6853F8210008
:10433000034B1B6803EB4000704700BF6C25002057
:104340006825002010207047004870477425002021
:1043500010B5054CFFF7C0FE2060FFF7F9FE606066
:10436000FFF77EFEA06010BD7425002070477047E7
:1043700010B504464FF45E7128F0A3FB204610BD33
:1043800070B504461D46BDF91060FFF736FE236880
:10439000294620469B6B9847236831462046DB6BB5
:1043A000BDE87040184700000022C0E90122C0E9C2
:1043B0000322C0E90522C0E907224FF480728284FB
:1043C000014A0260704700BFAC1F050838B50446BB
:1043D0000D462622002145F081FC2046FFF7E4FF30
:1043E000064B2046294623602B88E384FF2384F86C
:1043F000283015F060FF204638BD00BFF4430508A3
:104400002DE9F04F044600254FF6FF76A14604F152
:104410006C0A04F1980804F1E40704F5BE7B2DED65
:104420000A8B8BB018F0E6FF694B26222946E5631C
:1044300049F8403B484645F051FC4846FFF7B4FF79
:10444000644B08A950462364FF23A56684F86630B0
:10445000ADF8206015F094FB4046FFF7DBFD3846D1
:10446000FFF7D8FD04F59873184608EE103AFFF7E9
:10447000D1FD5846FFF7CEFD04F5E47308A9ADF869
:104480002060184608EE903AFFF7A0FF04F5FA7393
:1044900008A9ADF82060184609EE103AFFF796FF1C
:1044A00004F5087308A9ADF82060184609EE903AA3
:1044B000FFF78CFF04F5137308A9ADF820601846C8
:1044C0000AEE103AFFF782FF04F51E7308A9ADF853
:1044D000206018460AEE903AFFF778FF04F529733A
:1044E00008A9ADF8206018460BEE103AFFF76EFFF2
:1044F00004F5347308A9ADF8206018460BEE903A25
:10450000FFF764FF04F53F7308A9ADF82060184673
:104510000CEE103AFFF75AFF4FF488732A464846CC
:10452000294600934FF4F073261DFFF729FF4FF043
:104530007F4349463046A3660DF1100914F038F95F
:104540000823504608A9ADF8203015F0B4FE4FF40A
:1045500088732A465046294600934FF4F073FFF7BC
:104560000FFF5046294615F0C6FA51463046DFF88F
:104570007CA014F01DF9C62294214046FFF73DFDB2
:104580004FF07F4341464846C4F8C830D4F89830CD
:10459000A4F8CC50D3F88430984704F1D40399E8B8
:1045A000070083E8070004F54A730393DAF8003044
:1045B0002BB9094B6021094A094842F0ADFD094B6E
:1045C0001B88062B14D8084B6121044AF4E700BF6E
:1045D000142005088C430508F81B05086A1F050808
:1045E000751C05088C580120BC1C05088858012042
:1045F000CC4B06211868FFF797FE0A210346CA4AEA
:1046000003981AF06FFB039A4046C4F8E02015F0B7
:104610006BFD4FF0070108A8C44AADF8241001460D
:104620004046089215F080FD4146304614F0C0F82F
:10463000E9229E213846FFF7E0FC4FF07F40D4F896
:10464000E4303946C4F814014846D3F8843004F500
:104650004F78A4F81851984704F5907399E807002B
:1046600083E80700DAF80030002BA2D0B0490B88AD
:10467000042BA8D9AB4B04211868FFF755FEAA4AB2
:1046800003460A2140461AF02DFB3846C4F82C8117
:1046900015F02AFD0DF1200C4FF00500A34A6146EC
:1046A000ADF824003846089215F03EFD39463046F4
:1046B00014F07EF8AE22DC2118EE100AFFF79DFC04
:1046C0004FF07F47D4F8303118EE101A4846C4F83E
:1046D0006071D3F8843004F55477A4F86451984796
:1046E00004F5B67399E8070083E80700DAF80030AC
:1046F000002B3FF45EAF8E490B88022B7FF663AF31
:10470000884B02214FF003081868FFF70DFE864A18
:1047100003460A2138461AF0E5FA18EE100AC4F8E2
:10472000787108AF15F0E0FC804A394618EE100A9F
:1047300008924FF07F47ADF8248015F0F5FC18EE95
:10474000101A304614F034F811224FF49071584684
:10475000FFF753FCD4F87C3159464846D3F88430EF
:10476000C4F8AC7104F55977A4F8B051984704F532
:10477000DC7399E8070083E80700DAF80030002BC3
:104780003FF417AF6A490B88002B3FF41CAF654B11
:1047900029461868FFF7C8FD634A03460A213846D0
:1047A0001AF0A0FA5846C4F8C471012715F09CFC11
:1047B00008AB5E4A58461946ADF82470089215F0C9
:1047C000B3FC5946304613F0F3FF112218EE900A5D
:1047D00040F2A911FFF711FC4FF0070118EE900A03
:1047E000ADF8201008A915F066FD18EE901A3046B5
:1047F00013F0DEFF102219EE100A40F2A911FFF7A4
:10480000FCFB062308A919EE100AADF8203015F0BC
:1048100052FD19EE101A304684F8195213F0C8FFF1
:10482000322219EE900A40F2A511FFF7E6FB08A923
:1048300019EE900AADF8207015F03DFD19EE901AB2
:10484000304613F0B5FF30221AEE100A4FF4D27141
:10485000FFF7D3FB08A91AEE100AADF8205015F0A7
:104860002AFD1AEE101A304684F8715213F0A0FF98
:104870005D221AEE900A40F29D11FFF7BEFB08A9D7
:104880001AEE900AADF8208015F015FD1AEE901A78
:10489000304613F08DFF5D221BEE100A40F29D1191
:1048A000FFF7ABFB022308A91BEE100AADF820307E
:1048B00015F001FD1BEE101A304684F8C95213F0B2
:1048C00077FF81221BEE900A4FF4BE71FFF795FB34
:1048D0004FF0050008A9ADF820001BEE900A15F076
:1048E000EAFC1BEE901A304613F062FF7E221CEEAB
:1048F000100A4FF4BE71FFF780FB042308A91CEED9
:10490000100AADF8203015F0D6FC30461CEE101A17
:1049100084F8215313F04CFF20460BB0BDEC0A8BFA
:10492000BDE8F08F9458012008370508D417050812
:104930008C580120704710B504464FF4AE7128F032
:10494000C0F8204610BD10B50446D0F8580100F05C
:104950008BF92046BDE8104017F08CBA10B504461C
:10496000FFF71CFA014B2046236010BD48200508C4
:104970002DE9F84FD0E900634FF000089B1B1B1195
:1049800003F1FF395BEC10AB2DED028BC14502D872
:104990009FED250B41E0D6E9004552465B46204697
:1049A000294608F10108FCF7D3F8D0B352465B461C
:1049B00096ED047B51EC170BB0EE478AF0EE678A58
:1049C000FCF7D0F868B3D6E90289D6E90601424679
:1049D0004B46FBF789FC06460F4622462B465046BF
:1049E0005946FBF781FC02460B4630463946FBF739
:1049F00033FE06460F4622462B4651EC180BFBF7BA
:104A000073FC02460B4630463946FBF74FFF4246E1
:104A10004B46FBF76BFC41EC100BBDEC028BBDE889
:104A2000F88F1036B2E700BF000000000000000061
:104A300030B508A5D5E900450022C0E908454FF08A
:104A40003334034D0260C0E90E4530BDAFF3008042
:104A50003333F33F6666666666662840064B006839
:104A60001A680A32B2F5617F08BF00221A60026834
:104A700019689268104700BF04040020000000007D
:104A800010B504460846FBF77DFD00221C4BFBF7E2
:104A9000E3FD00221B4BFBF7DFFD00220023FBF7A9
:104AA00025FC41EC100BC4E90401206803685B6934
:104AB000984711A3D3E90023D4E90401FBF7CCFD07
:104AC000C4E90C0141EC100B41F0E2FAD4E90823EF
:104AD00051EC100BFBF7C0FDD4E90E23FBF706FCED
:104AE000C4E90A0141EC100B20680368BDE81040DE
:104AF000DB691847AFF30080399D52A246DF913F32
:104B0000004059400000303F10B504460846FBF70E
:104B100039FD00220A4BFBF79FFD0022094BFBF7F2
:104B20009BFD00230022FBF7E1FBC4E9060141ECF9
:104B3000100B20680368BDE810409B69184700BF50
:104B4000004059400000303F0023134910B51A4679
:104B5000044631F8020B013302440A2B92B2F8D119
:104B6000B2FBF3F0FBF70EFD00220C4BFBF774FDDC
:104B700000220B4BFBF770FD00230022FBF7B6FB76
:104B8000FCF71AF801466060206889B20368BDE846
:104B90001040DB68184700BFA00300200000B040B1
:104BA0000000303F0023134910B51A46044631F87F
:104BB000020B013302440A2B92B2F8D1B2FBF3F09C
:104BC000FBF7E0FC00220C4BFBF746FD00220B4BF1
:104BD000FBF742FD00230022FBF788FBFBF7ECFF0D
:104BE0000146A060206889B20368BDE810401B69D7
:104BF000184700BFC80300200000B0400000303F4D
:104C000010B5044653EC102BD0E90601FBF7B4FFB6
:104C1000011E206818BF0121036884F840105B6AF8
:104C2000BDE810401847000010B50446084B0022AC
:104C3000D0E90401FBF7A0FF011E206818BF012185
:104C4000036884F841109B6ABDE81040184700BF14
:104C50000000544000680368DB6A18470068036876
:104C60001B6B18470000000010B504462DED028BA9
:104C7000FFF76AFF2046FFF795FF294894ED0A0BDE
:104C8000FFF776FE2068B0EE408AF0EE608A036897
:104C90001B6A98470022002351EC180BFBF76CFFAE
:104CA00008B99FED1D8B1F4B186848B1642104F0B3
:104CB000F9FA50BB2046FFF747FF2046FFF772FF87
:104CC000194B20461968FFF7C9FE61682046FFF7B7
:104CD000D7FEA1682046FFF717FF2046FFF7A4FF85
:104CE000B0EE480AF0EE680A2046FFF789FF0F4B46
:104CF00020461978FFF7AEFF0D4B20461978BDEC22
:104D0000028BBDE81040FFF7A9BF0230D8D0094898
:104D100044F096FBD4E700BF000000000000000054
:104D20008425002008040020040400209C030020A7
:104D30009D0300209420050830B5A9B00D4827F048
:104D40001FFF0D49A022684646F0C1FFA0220B4D6F
:104D500000231046AB60C5E9003327F0C3FE0446CC
:104D6000A0226946A0342860AC6046F0B0FF6C60B9
:104D700029B030BD80250020D0FC04088425002007
:104D800008B5064B186818B19968091A27F099FEFA
:104D90000348BDE8084028F027B800BF842500205C
:104DA000802500207047704770477047043870476F
:104DB0007047C0680368DB6A1847A0F10400FFF77A
:104DC000F8BFC06803681B6B1847A0F10400FFF729
:104DD000F8BFC06803685B6B1847A0F10400FFF7D9
:104DE000F8BFC06803689B6B1847A0F10400FFF789
:104DF000F8BFC0680368DB6B1847A0F10400FFF739
:104E0000F8BFC06803681B6C1847A0F10400FFF7E7
:104E1000F8BFC06803685B6C1847A0F10400FFF797
:104E2000F8BFC06803689B6C1847A0F10400FFF747
:104E3000F8BF10B50446102127F043FE204610BDF0
:104E4000A0F10400F5E700000022C1608260044A7E
:104E500010B502F1080440320460426010BD00BF8A
:104E6000A020050870470000034B10B504460360FE
:104E7000FFF77CFA204610BD2421050810B5044632
:104E8000FFF7F2FF4FF45E71204627F01AFE20462E
:104E900010BD000010B50446FFF7B2FA014B2046E2
:104EA000236010BD24210508FFF761BA13B504463D
:104EB00051EC100BFBF7C8FE01AB01900A21064A2A
:104EC00004F54A701AF0F8F804F1980002B0BDE851
:104ED000104017F0C6BF00BF1421050813B50446E3
:104EE00051EC100BFBF7B0FE01AB01900A21064A12
:104EF00004F554701AF0E0F804F5987002B0BDE8BB
:104F0000104017F0AEBF00BF1421050813B50446CA
:104F100051EC100BFBF798FE01AB01900A21064AF9
:104F200004F54F701AF0C8F804F1E40002B0BDE8CF
:104F3000104017F096BF00BF1421050813B50446B2
:104F400051EC100BFBF780FE01AB01900A21064AE1
:104F500004F559701AF0B0F804F5BE7002B0BDE85F
:104F6000104017F07EBF00BF1421050880F8191209
:104F700000F5FA7017F075BF80F8711200F5137024
:104F800017F06FBF80F8C91200F5297017F069BFDC
:104F900080F8211300F53F7017F063BF00B54FF4A0
:104FA000807295B04FF0807103460C9205220F91EC
:104FB00001210692002201910B92139200920B485C
:104FC000CDE90312CDE90D22CDE91122102206A967
:104FD00002924FF4800205926A4602F0CBF9003843
:104FE00018BF012015B05DF804FB00BF902500201C
:104FF00000B54FF4807395B041F2883217480C9396
:10500000062306A906930023CDE90D330F930B93D6
:105010001393CDE9113302F06AF9E0B902230122BA
:105020004FF4800104900D48CDE900331023CDE901
:10503000023205236A46CDE905134FF0807306A9B5
:105040000F9341F2883302F095F9003818BF012020
:1050500015B05DF804FB0120FAE700BF90250020A1
:1050600000B54FF4807391B04FF040720E48089332
:10507000EB2302A902934FF4406309934FF40053CA
:1050800005930023CDE90A320A220F9307926A465C
:10509000CDE90D33CDE9003302F0BCF9003818BF7B
:1050A000012011B05DF804FB90250020454B012143
:1050B00045489A6B42F00202F0B59A638DB09A6B44
:1050C00009240427002602F00202404D0092009AB3
:1050D0009A6942F002029A619A6922F002029A6188
:1050E0001A6B42F002021A631A6B02F0020201927A
:1050F000019A1A6B42F002021A631A6B02F0020262
:105100000292029A1A6B42F008021A631A6B02F0BA
:1051100008020392039A1A6B42F008021A631A6B90
:1051200002F008020492049A1A6B42F010021A6309
:105130001A6B02F010020592059A1A6B42F00802EF
:105140001A6340221B6B03F008030693069B02239D
:10515000CDE907230323CDE909130A2307A90B93FC
:1051600001F08EF807A91848079709960B9401F0EB
:1051700087F84FF4006307A928460B94079301F0C2
:105180007FF84FF4805307A928460B94079301F04A
:1051900077F807A90E4807970B9401F071F84FF4C0
:1051A000005307A928460B94079301F069F832468B
:1051B0000F215C2000F09CFC5C2000F0CBFC0DB0CB
:1051C000F0BD00BF0038024000040240000C024065
:1051D00000100240F0B5494C91B0494B2046236085
:1051E00002F072F8054610B1012011B0F0BD014681
:1051F0002046FFF75BFF012604234FF08077C4E9C8
:1052000001631023E36097FAA7F3B3FA83F3204610
:10521000013B23614FF4A063C4E90755C4E9053598
:1052200001F0FEFF0028DFD14FF4807566230B905C
:1052300041F28832079002A90F9008950293CDE9B8
:105240000900CDE90D00204602F051F808B1042014
:10525000CBE7992341F2883202A92046029302F05B
:1052600046F80028F3D141F28830FFF797FE002876
:10527000EDD18523079041F2883202A90895029367
:105280000B97CDE90900CDE90C60CDE90E00204671
:1052900002F02DF80028DAD141F288320DF1070131
:1052A000204602F09DF90028D1D1FFF7A1FE002889
:1052B000CDD18123F022029392FAA2F20A219DF825
:1052C0000730B2FA82F2204603F00F0301FA02F22D
:1052D00002A9134341F288328DF8073002F007F833
:1052E0000028B4D141F288320DF10701204602F0C6
:1052F0001BF900283FF479AFA9E700BF90250020F3
:10530000001000A00F490020D1F8883043F470034A
:10531000C1F888300C4B1A6842F001021A6098609C
:105320001A6822F0847222F480321A60074A5A60A6
:105330001A6822F480221A60D8604FF000638B60F4
:10534000704700BF00ED00E000380240103000243C
:105350007047002070470000002337B58DF80730F4
:105360000D4B1A780AB901221A700324C5B2013C08
:10537000A8212846FCF778FF14F0FF048DF80700F9
:105380009DF80730DBB203D19DF8070003B030BDB4
:10539000512BECD1F8E700BFDE25002013B5002427
:1053A0000221C0B28DF80740FCF75EFF8DF80700C0
:1053B0009DF8073003F00F038DF807309DF8073094
:1053C000052B01D98DF807409DF80720034B9DF868
:1053D00007005A7000229A7002B010BDDE2500202E
:1053E0002DE9F74F2F4C15464FF000080F46A378D4
:1053F00062788DF807809A424DD9092B4ED803EB7D
:1054000043035B00DBB2191D03F1030B03F1060A32
:105410000533C9B25FFA8BFB5FFA8AFA5FFA83F849
:10542000C6B2DFF884903046FCF71EFF8DF8070007
:105430009DF8073059463046A9F80030FCF714FFB4
:105440008DF8070051469DF807303046B9F8002026
:105450001B0203F4706313433B80A9F80030FCF790
:1054600003FF8DF8070041469DF807303046A9F844
:105470000030FCF7F9FE8DF807009DF80730B9F809
:1054800000201B0203F470631343A9F800302B8043
:10549000A3780133A37003B0BDE8F08FC246C346C2
:1054A0004146BDE7DE250020DC2500200122A421A5
:1054B000C0B2FCF7BFBE0022A421C0B2FCF7BABE46
:1054C000FFF7F9BF70470000024B1A780AB90122B2
:1054D0001A707047DE250020074A032008B51368BC
:1054E00043F48073136000F0F1FA0020FCF722FD12
:1054F000FCF7CCF9002008BD003C0240034A044BF5
:1055000011681B780B441360704700BFE42500202E
:105510003C000020014B1868704700BFE4250020C4
:1055200038B50446FFF7F6FF0546631C1EBF044B63
:105530001B78E418FFF7EEFF431BA342FAD338BDF4
:105540003C00002038B50446002800F09B80056C24
:1055500025B9FCF7B9F9656484F83C50236CDB0687
:1055600000F18E80236C23F4885323F0020343F070
:1055700002032364444B5A6822F440325A605A684A
:1055800061680A435A60236821695A6822F480726C
:105590005A605A6842EA0122A1685A605A6822F0A9
:1055A00040725A605A680A43E1685A609A6822F465
:1055B00000629A609A680A4334499A60A26A8A42F1
:1055C00052D0996821F07061996099680A43E16A44
:1055D0009A609A6822F040529A609A680A439A60E8
:1055E0009A68A16922F002029A609A6842EA41022E
:1055F0009A6094F82020002A3ED05A68616A42F4EA
:10560000006201395A605A6822F460425A605A684E
:1056100042EA41325A600020DA6AE16922F47002FB
:105620000139DA62DA6A42EA0152DA629A6822F4ED
:1056300000729A609A6894F8301042EA41226169D7
:105640009A609A6822F480629A609A6842EA81229B
:105650009A606064236C23F0030343F00103236426
:10566000002384F83C3038BD9A6822F070629A605A
:105670009A6822F04052B2E75A6822F40062C9E701
:105680000120EDE70120EEE7002301400100000FBB
:105690001346002273B50192054690F83C20012A7A
:1056A0007DD00122066880F83C20B268D4070CD572
:1056B000B46814F001041BD12B6C43F010032B646D
:1056C0006B6C43F001036B644FE0B26842F001027F
:1056D000B260344A1068344AB0FBF2F000EB40008C
:1056E0000190019A002AE3D0019A013A0192F8E769
:1056F000286C20F4E06020F0010040F48070286401
:105700007268500505D5286C20F4405040F4805054
:1057100028642A6C12F4805202D06A6C22F00602CD
:105720006A640022A86B85F83C20204AC263204AA4
:105730000264204AC2646FF022023260726842F052
:1057400080627260B26842F48072B2600A4606F10A
:105750004C0100F05BFB18494B6813F01F0F2B68DE
:1057600006D1986810F0405014D0002002B070BDEF
:10577000124A934207D19A6812F0405F03D19A68A7
:1057800042F080429A604A68D206EED40C4A9342B4
:10579000EBD1E6E79A6842F080429A60E6E70220A1
:1057A000E4E700BF1000002040420F000559000848
:1057B000C7570008EF5800080023014000200140AF
:1057C000002201407047806B08B5FFF7FBFF08BD62
:1057D0007047036870B51E6804465D68B2072BD534
:1057E000A80629D5226CD10603D4226C42F400729B
:1057F00022649A6812F0405F17D1A269AAB9DA6AE6
:1058000012F4700F02D09A6852050ED45A6822F032
:1058100020025A60236C23F480732364236CD80421
:1058200003D4236C43F0010323642046FBF760FCA0
:1058300023686FF012021A60710733D52A0631D53A
:10584000236CDB0603D4236C43F4005323642368E6
:105850009A6812F4401F1ED19A6B12F4401F02D0B6
:105860009A68500517D45A68510514D49A6812F0F2
:10587000405F10D1A26972B95A6822F080025A6062
:10588000236C23F480532364236CDA0503D4236C44
:1058900043F001032364204600F016F923686FF0FB
:1058A0000C021A60F30710D568060ED523681B6832
:1058B000D9070AD5236C204643F480332364FFF7CD
:1058C00087FF23686FF001021A60B2060ED56B01E4
:1058D0000CD5636C6FF02005204643F0020363642F
:1058E00023681D60FBF70AFC23681D6070BD806B98
:1058F00008B540230364436C43F004034364FBF79F
:10590000FDFB08BD836B1A6C12F0500F1A6C10B5BA
:1059100023D142F400721A641A68916811F0405F52
:1059200017D19969A9B9D16A11F4700F02D09168A1
:1059300048050ED4516821F0200151601A6C22F400
:1059400080721A641A6CD10403D41A6C42F00102FA
:105950001A641846FBF7CCFB10BDD20603D51846D7
:10596000FBF7CCFBF8E79B6BBDE81040DB6C1847FE
:105970000023F7B5019390F83C30012B77D0012339
:1059800080F83C300C680368A5B2092C8E6805EBE2
:1059900045023AD9B4F1004F37D01E3A4FF0070C08
:1059A000DF680CFA02FC27EA0C07DF60414FBC42BB
:1059B00026D1DA6842EA0662DA604968062901EB14
:1059C00081022FD8053A1F26596B964005FA02F23C
:1059D00021EA06015963596B0A435A63364A9342D6
:1059E00008D1B4F1004F44D1D2F8043323F440037A
:1059F000C2F80433002380F83C30184603B0F0BDF1
:105A0000DF6806FA02F23A43D6E74FF0070C1F6947
:105A100096400CFA02FC27EA0C071F611F693E43FF
:105A20001E61CAE70C294FF01F010BD8233A1E6BE9
:105A3000914005FA02F226EA01011963196B0A4343
:105A40001A63CBE7413ADE6A9140954026EA0101AC
:105A5000D962D96A0D43DD62C0E7184B5A6822F457
:105A600000025A605A6842F480025A60C2E702207B
:105A7000C4E7122CF1D00F4B9C4201D0112CB9D1AC
:105A80000E4B5A6822F480025A605A6842F40002AF
:105A90005A60084B9C42ADD1094B0A4A1B68B3FBC4
:105AA000F2F30A2253430193019B002BA2D0019BE6
:105AB000013BF8E7120000100020014000230140E4
:105AC0001000002040420F00704700000749030209
:105AD000CA6803F4E06322F4E0621204120C134378
